:020000040000FA
:06000000DCEF32F01200FB
:020006001200E6
:06000800A6EF20F012003B
:02000E00FEFFF3
:060018003BEF21F0120095
:02001E000200DE
:100020003366000060000000850000000E00000044
:08003000EF00000002000000D7
:08003800020EE66E06EC33F047
:10004000E5528C84020EE66E06EC33F0E5528C9499
:10005000010EE66E06EC33F0E5521200D9CFE6FF52
:10006000E1CFD9FF020EE126FC0EDB501BE08C90A5
:100070009588958A958C958E8C828C84020EE66E7E
:1000800006EC33F0E5528350800B01E0010EDF6E89
:100090008C94020EE66E06EC33F0E552CDDFDF50B5
:1000A000ECE105D00C0EE66E8DEC32F0E552959841
:1000B000959A959C959EFD0EDB5002E08C8001D0B8
:1000C0008C908C92FE0EDB50F00BE76E010EE7CFAA
:1000D000DBFFDBCFE6FF0F0E8C14E552E7108C6ED2
:1000E000ABDFFB0EDB500FE0FE0EDB500F0B100DF5
:1000F000010EF3CFDBFFDBCFE6FF0F0E8C14E552D2
:10010000E7108C6E99DF020EE15C02E2E16AE552D3
:10011000E16EE552E7CFD9FF12009598959A959C2C
:10012000959E8C948C908C923C0EE66E8DEC32F009
:10013000E552E66AE66AE66A300EE66E8FDFE55261
:10014000E552E552E552060EE66E8DEC32F0E552D0
:10015000E66AE66AE66A300EE66E80DFE552E55250
:10016000E552E552E66AE66AE66A300EE66E76DF4A
:10017000E552E552E552E552E66AE66AE66A200E85
:10018000E66E6CDFE552E552E552E552010EE66E91
:10019000E66AE66A280EE66E61DFE552E552E55250
:1001A000E552010EE66EE66EE66A080EE66E56DF72
:1001B000E552E552E552E552010EE66EE66EE66A5C
:1001C000E66E4CDFE552E552E552E552010EE66E71
:1001D000E66EE66A0C0EE66E41DFE552E552E55248
:1001E000E5520001EF69F0691200010EE66EE66E5D
:1001F000E66A400EE66E32DFE552E552E552E55220
:100200000101016B400E015D15E2010EE66EE66E26
:10021000E66E0151F76A380FF66E640EF722080099
:10022000F550E66E1BDFE552E552E552E55201015D
:10023000012BE8D7010EE66EE66EE66A800EE66EEA
:100240000DDFE552E552E552E5521200D9CFE6FF47
:10025000E1CFD9FFFE0EDB50F60A3EE0030A36E09E
:100260000E0A2EE0070A26E0060A1EE0090A16E03A
:100270001E0A0EE0040A06E0080A01E033D0FE0E72
:10028000DB6A30D0010EF36EFE0EF3CFDBFF2AD017
:10029000020EF36EFE0EF3CFDBFF24D0030EF36EDF
:1002A000FE0EF3CFDBFF1ED0040EF36EFE0EF3CF77
:1002B000DBFF18D0050EF36EFE0EF3CFDBFF12D07E
:1002C000060EF36EFE0EF3CFDBFF0CD0070EF36EBF
:1002D000FE0EF3CFDBFF06D0EF0EF36EFE0EF3CF74
:1002E000DBFF00D0010EE66EE66EE66EFE0EDBCFA3
:1002F000E6FFB4DEE552E552E552E552E552E7CFBE
:10030000D9FF1200D9CFE6FFE1CFD9FF020EE126D7
:10031000DE6ADD6A01012B0E036F760E106FD95075
:10032000FB0FE96EFF0EDA20EA6ED890030EEB5059
:10033000000A08E6000EEE5C000EEE58000EEE58C5
:10034000000EEE5820E22D0E036FFB0EDBCF06F001
:10035000FC0EDBCF07F0FD0EDBCF08F0FE0EDBCF8F
:1003600009F00B680C680D680E6862EC31F0FB0E4A
:1003700002C0DBFFFC0E03C0DBFFFD0E04C0DBFF91
:10038000FE0E05C0DBFFFB0EDBCF14F0FC0EDBCF57
:1003900015F0FD0EDBCF16F0FE0EDBCF17F00A0EC8
:1003A0000B6E0C6A0D6A0E6A14C006F015C007F0D9
:1003B00016C008F017C009F0D8EC2DF002C014F0F8
:1003C00003C015F004C016F005C017F0300E142657
:1003D000000E152216221722DECFE9FFDDCFEAFF3D
:1003E000040EE926010EEA2214C0EFFFFB0EDBCF5C
:1003F00006F0FC0EDBCF07F0FD0EDBCF08F0FE0EA3
:10040000DBCF09F00A0E0B6E0C6A0D6A0E6AD8EC8F
:100410002DF0FB0E06C0DBFFFC0E07C0DBFFFD0E60
:1004200008C0DBFFFE0E09C0DBFFDF2A010E01E37F
:10043000DB2AF90EDB50DF1804E1FA0EDB50DE5246
:10044000DD180EE1DECFE9FFDDCFEAFF040EE9267D
:10045000010EEA222E0EEF6EDF2A010E01E3DB2AE7
:10046000FB0EDBCF07F0FC0EDBCF08F0FD0EDBCF81
:1004700009F0FE0EDBCF0AF00A34000E0A1809E676
:10048000D880000E0754000E0854000E0954000EC8
:100490000A5401E278D7DECF14F0DDCF15F0020E5A
:1004A000E76EF90EDBCF16F0FA0EDBCF17F0E75050
:1004B0001626000E17221650145C1750155801E22C
:1004C00062D703C1E6FFC2DEE552DECF14F0DDCF16
:1004D00015F0F70EDBCF16F0F80EDBCF17F0165045
:1004E000145C175015581FE3D9CFE9FFDACFEAFFA4
:1004F000EE06000EED5AEECFF3FFEDCFF4FFF3CF93
:10050000E9FFF4CFEAFF040EE926010EEA22EF50DC
:10051000E66E9CDEE552D9CFE9FFDACFEAFFEE5076
:10052000ED10D3E101D000D010C1E6FF8FDEE5521F
:10053000020EE15C02E2E16AE552E16EE552E7CFCC
:10054000D9FF1200926A956AF00E936E966A946AC9
:100550000F0EC16EE2DD0001EF69F069D08EF28E00
:10056000F29CF184D59ED59CD59AD598D596D58404
:10057000D582D580F29E93948A848D808D828D84DD
:1005800093809392949EC79EC79CC790C69EC69C1C
:10059000C68AC698C690C682C694C6961200D9CF9F
:1005A000E6FFE1CFD9FF020EE126DE6ADD6ADE6AF0
:1005B000DD6ADECF14F0DDCF15F0FD0EDBCF16F0D7
:1005C000FE0EDBCF17F01450165C155017580AE3D7
:1005D000020EE66E8DEC32F0E552DF2A010E01E3E9
:1005E000DB2AE7D7020EE15C02E2E16AE552E16E46
:1005F000E552E7CFD9FF1200D9CFE6FFE1CFD9FF0F
:100600003D0EE66E5AEC32F0E552E66875EC32F0DB
:10061000E552FD0EDBCF08F0FE0EDBCF09F0050E34
:10062000081801E1095044E0040E081801E10950DE
:1006300036E0030E081801E1095028E0020E081800
:1006400001E109501AE0010E081801E109500DE01E
:10065000085001E1095001E033D0000EE66EE66A71
:10066000C9EC31F0E552E55232D0CD0EE66EE66AC5
:10067000C9EC31F0E552E5522AD09A0EE66E010E31
:10068000E66EC9EC31F0E552E55221D0660EE66E19
:10069000020EE66EC9EC31F0E552E55218D0320E8A
:1006A000E66E030EE66EC9EC31F0E552E5520FD06E
:1006B000E668030EE66EC9EC31F0E552E55207D06C
:1006C000000EE66EE66AC9EC31F0E552E552E552FD
:1006D000E7CFD9FF1200D9CFE6FFE1CFD9FFE66817
:1006E00027EC31F0E552FD0EDBCFE6FFFE0EDBCF4F
:1006F000E6FF9AEC31F0E552E552E552E7CFD9FF3B
:100700001200CE0E146E590E156E166A14C0E6FF56
:1007100015C0E6FF16C0E6FF99EC30F0E552E55251
:10072000E552010EE66EE66EE66AC00EE66E96DCF7
:10073000E552E552E552E552CE0E146E590E156E95
:10074000166A14C0E6FF15C0E6FF16C0E6FF99EC76
:1007500030F0E552E552E552010EE66EE66EE66ACD
:10076000940EE66E7BDCE552E552E552E552CE0E84
:10077000146E590E156E166A14C0E6FF15C0E6FF1A
:1007800016C0E6FF99EC30F0E552E552E552010E55
:10079000E66EE66EE66AD40EE66E60DCE552E55281
:1007A000E552E552CE0E146E590E156E166A14C03F
:1007B000E6FF15C0E6FF16C0E6FF99EC30F0E55203
:1007C000E552E552010EE66EE66EE66A800EE66ED2
:1007D00045DCE552E552E552E5521200D9CFE6FF7D
:1007E000E1CFD9FFE652A96AA69EA69CA680A85092
:1007F000DF6EDF5000D0E552E552E7CFD9FF12009F
:10080000D9CFE6FFE1CFD9FFA96AFE0EDB50A86E73
:10081000A69EA69CA684F29E550EA76EAA0EA76E53
:10082000A682A6B2FED7F28EA694E552E7CFD9FFF4
:100830001200D9CFE6FFE1CFD9FFE652C790C69E9E
:10084000C950DF6EFE0EDB50C96EC7A0FED7C9507F
:1008500000D0E552E552E7CFD9FF1200D9CFE6FF2D
:10086000E1CFD9FF020EE1268A94050EE66EE1DFA4
:10087000E552E66ADEDFE552DE6EDD6A8A84DF502D
:10088000010BF2E1020EE15C02E2E16AE552E16E87
:10089000E552E7CFD9FF1200D9CFE6FFE1CFD9FF6C
:1008A000020EE126DBDF8A94060EE66E3CEC32F0A7
:1008B000E5528A84020EE66E8DEC32F0E5528A949F
:1008C000020EE66EB6DFE552FE0EDBCFE6FFB1DFCD
:1008D000E552FD0EDBCFE6FFACDFE552DF6A200E0E
:1008E000DF5C0FE2FB0EDBCFE9FFDB2AFC0EDBCF88
:1008F000EAFF01E3DB2AEF50E66E9BDFE552DF2AD9
:10090000EED78A84020EE15C02E2E16AE552E16E12
:10091000E552E7CFD9FF1200D9CFE6FFE1CFD9FFEB
:10092000E6529CDF8A94030EE66E83DFE552FE0EEC
:10093000DBCFE6FF7EDFE552FD0EDBCFE6FF79DFA2
:10094000E552DF6A200EDF5C12E2E66A72DFE552F2
:10095000E66EFB0EDBCFE9FFDB2AFC0EDBCFEAFF06
:1009600001E3DB2AE552E750EF6EDF2AEBD78A84FA
:10097000E552E552E7CFD9FF1200D9CFE6FFE1CF2C
:10098000D9FF030EE126010EDB6ADF6A040EDF5C8D
:1009900071E2080EDF5206E0DFCFF3FFE8327F0B93
:1009A000F306FCE1896E010EDB5002E0010EDB2A4A
:1009B00081A810D0FE0EDB5007E0010EDBCFE6FF72
:1009C000C8D8E55259D006D0010EDBCFE6FF60D87B
:1009D000E55252D0010EDB2A020EE66EE66ADFDD3A
:1009E000E552E55281AA10D0FE0EDB5007E0010E61
:1009F000DBCFE6FFAED8E5523FD006D0010EDBCF0D
:100A0000E6FF46D8E55238D0010EDB2A020EE66E2C
:100A1000E66AC5DDE552E55281AC10D0FE0EDB5032
:100A200007E0010EDBCFE6FF94D8E55225D006D0D3
:100A3000010EDBCFE6FF2CD8E5521ED0010EDB2ADB
:100A4000020EE66EE66AABDDE552E55281AE10D0ED
:100A5000FE0EDB5007E0010EDBCFE6FF7AD8E55251
:100A60000BD006D0010EDBCFE6FF12D8E55204D042
:100A7000DF2A8CD7230E00D0146E030EE15C02E255
:100A8000E16AE552E16E1450E552E7CFD9FF12005A
:100A9000D9CFE6FFE1CFD9FF030EE126320EDF6E9C
:100AA000010EDB6A81A810D081B8FED7FE0EDB50A4
:100AB000050DF3CFE9FFF4CFEAFF900EE926000E13
:100AC000EA22020EEFCFDBFF81AA10D081BAFED757
:100AD000FE0EDB50050DF3CFE9FFF4CFEAFF900ED9
:100AE000E926000EEA22020EEFCFDBFF81AC10D028
:100AF00081BCFED7FE0EDB50050DF3CFE9FFF4CF2E
:100B0000EAFF900EE926000EEA22020EEFCFDBFF8D
:100B100081AE10D081BEFED7FE0EDB50050DF3CFA7
:100B2000E9FFF4CFEAFF900EE926000EEA22020E5A
:100B3000EFCFDBFF020EDB50146E030EE15C03E22D
:100B400000D0E16AE552E16E1450E552E7CFD9FFDB
:100B50001200D9CFE6FFE1CFD9FF030EE126320E16
:100B6000DF6E010EDB6A81A8EED0FE0EDB5002E1E3
:100B7000000E01D0010E146EFE0EDB500C0802E1D7
:100B8000000E01D0010E141401E1CDD08150800B74
:100B900001E0010E156E8150400B01E0010E146E54
:100BA0008150200B01E0010E1410151001E0BAD0A5
:100BB00081A8AED081B8FED7CE0E146E590E156E38
:100BC000166A14C0E6FF15C0E6FF16C0E6FF99ECF2
:100BD00030F0E552E552E552010EE66EE66EE66A49
:100BE000C00EE66E2EEC00F0E552E552E552E552FD
:100BF000FE0EDB50050DF3CF16F0F4CF17F0900E7C
:100C00001626000E1722010EDB500F011624E96E86
:100C1000000E1720EA6EEFCF14F0156A14BE1568A7
:100C200014C0E6FF15C0E6FFB90E186E590E196E16
:100C30001A6A18C0E6FF19C0E6FF1AC0E6FF99EC71
:100C400030F01B6E050EE15E1B50010EE66EE66E87
:100C5000E66A940EE66E2EEC00F0E552E552E5529F
:100C6000E552CE0E146E590E156E166A14C0E6FFCC
:100C700015C0E6FF16C0E6FF99EC30F0E552E552EC
:100C8000E552010EE66EE66EE66AD40EE66E2EECD6
:100C900000F0E552E552E552E552CE0E146E590EC3
:100CA000156E166A14C0E6FF15C0E6FF16C0E6FF13
:100CB00099EC30F0E552E552E552010EE66EE66E33
:100CC000E66A800EE66E2EEC00F0E552E552E55243
:100CD000E552FE0EDB50050DF3CF14F0F4CF15F006
:100CE000900E1426000E1522010EDB500F01142465
:100CF000E96E000E1520EA6E020EEFCFDBFF010E4B
:100D0000DB50030803E1010EDB6A02D0010EDB2A8F
:100D1000320EE66E8DEC32F0E552DF50DF06000950
:100D200001E034D710D081B8FED7FE0EDB50050DA0
:100D3000F3CFE9FFF4CFEAFF900EE926000EEA2296
:100D4000020EEFCFDBFF81AACCD08150800B01E0F7
:100D5000010E156E8150400B01E0010E146E8150A2
:100D6000100B01E0010E1410151001E0BAD081AA99
:100D7000AED081BAFED7CE0E146E590E156E166A1D
:100D800014C0E6FF15C0E6FF16C0E6FF99EC30F090
:100D9000E552E552E552010EE66EE66EE66AC00ED9
:100DA000E66E2EEC00F0E552E552E552E552FE0EFD
:100DB000DB50050DF3CF16F0F4CF17F0900E16268A
:100DC000000E1722010EDB500F011624E96E000EF3
:100DD0001720EA6EEFCF14F0156A14BE156814C020
:100DE000E6FF15C0E6FFB90E186E590E196E1A6AA5
:100DF00018C0E6FF19C0E6FF1AC0E6FF99EC30F014
:100E00001B6E050EE15E1B50010EE66EE66EE66A95
:100E1000940EE66E2EEC00F0E552E552E552E552F6
:100E2000CE0E146E590E156E166A14C0E6FF15C06C
:100E3000E6FF16C0E6FF99EC30F0E552E552E552C8
:100E4000010EE66EE66EE66AD40EE66E2EEC00F05B
:100E5000E552E552E552E552CE0E146E590E156E6E
:100E6000166A14C0E6FF15C0E6FF16C0E6FF99EC4F
:100E700030F0E552E552E552010EE66EE66EE66AA6
:100E8000800EE66E2EEC00F0E552E552E552E5529A
:100E9000FE0EDB50050DF3CF14F0F4CF15F0900EDD
:100EA0001426000E1522010EDB500F011424E96EEA
:100EB000000E1520EA6E020EEFCFDBFF010EDB50B5
:100EC000030803E1010EDB6A02D0010EDB2A320EB9
:100ED000E66E8DEC32F0E552DF50DF06000901E0EE
:100EE00034D781ACE2D0FE0EDB50020801E1CDD058
:100EF0008150800B01E0010E156E8150200B01E046
:100F0000010E146E8150100B01E0010E141015102B
:100F100001E0BAD081ACAED081BCFED7CE0E146E4B
:100F2000590E156E166A14C0E6FF15C0E6FF16C00E
:100F3000E6FF99EC30F0E552E552E552010EE66E1F
:100F4000E66EE66AC00EE66E2EEC00F0E552E55263
:100F5000E552E552FE0EDB50050DF3CF16F0F4CF4F
:100F600017F0900E1626000E1722010EDB500F010F
:100F70001624E96E000E1720EA6EEFCF14F0156A02
:100F800014BE156814C0E6FF15C0E6FFB90E186E52
:100F9000590E196E1A6A18C0E6FF19C0E6FF1AC08A
:100FA000E6FF99EC30F01B6E050EE15E1B50010E62
:100FB000E66EE66EE66A940EE66E2EEC00F0E55202
:100FC000E552E552E552CE0E146E590E156E166AB4
:100FD00014C0E6FF15C0E6FF16C0E6FF99EC30F03E
:100FE000E552E552E552010EE66EE66EE66AD40E73
:100FF000E66E2EEC00F0E552E552E552E552CE0EDB
:10100000146E590E156E166A14C0E6FF15C0E6FF81
:1010100016C0E6FF99EC30F0E552E552E552010EBC
:10102000E66EE66EE66A800EE66E2EEC00F0E552A5
:10103000E552E552E552FE0EDB50050DF3CF14F0FC
:10104000F4CF15F0900E1426000E1522010EDB5081
:101050000F011424E96E000E1520EA6E020EEFCF88
:10106000DBFF010EDB50030803E1010EDB6A02D057
:10107000010EDB2A320EE66E8DEC32F0E552DF50C7
:10108000DF06000901E034D710D081BCFED7FE0E88
:10109000DB50050DF3CFE9FFF4CFEAFF900EE92610
:1010A000000EEA22020EEFCFDBFF81AE10D081BE30
:1010B000FED7FE0EDB50050DF3CFE9FFF4CFEAFFBC
:1010C000900EE926000EEA22020EEFCFDBFF020EA1
:1010D000DB50146E030EE15C03E200D0E16AE552DE
:1010E000E16E1450E552E7CFD9FF1200D9CFE6FFE9
:1010F000E1CFD9FFFE0EDB500E0A01E123D1030A36
:1011000001E10FD1010A01E1FBD0070A01E1E7D0BB
:10111000010A01E1D3D0030A01E1BFD0010A01E1D4
:10112000ABD00F0A01E197D0010A01E183D0030A95
:1011300070E0010A5DE0070A4AE0010A37E0030AAD
:1011400024E0010A11E0690E146E580E156E166A3D
:1011500014C0E6FF15C0E6FF16C0E6FF99EC30F0BC
:10116000E552E552E552FFD0A40E146E590E156EED
:10117000166A14C0E6FF15C0E6FF16C0E6FF99EC3C
:1011800030F0E552E552E552EED08F0E146E590E56
:10119000156E166A14C0E6FF15C0E6FF16C0E6FF1E
:1011A00099EC30F0E552E552E552DDD07A0E146E3E
:1011B000590E156E166A14C0E6FF15C0E6FF16C07C
:1011C000E6FF99EC30F0E552E552E552CCD0650EE1
:1011D000146E590E156E166A14C0E6FF15C0E6FFB0
:1011E00016C0E6FF99EC30F0E552E552E552BBD06F
:1011F000500E146E590E156E166A14C0E6FF15C017
:10120000E6FF16C0E6FF99EC30F0E552E552E552F4
:10121000AAD03B0E146E590E156E166A14C0E6FF66
:1012200015C0E6FF16C0E6FF99EC30F0E552E55236
:10123000E55299D0260E146E590E156E166A14C01A
:10124000E6FF15C0E6FF16C0E6FF99EC30F0E55268
:10125000E552E55288D0110E146E590E156E166ABD
:1012600014C0E6FF15C0E6FF16C0E6FF99EC30F0AB
:10127000E552E552E55277D0FC0E146E580E156E0D
:10128000166A14C0E6FF15C0E6FF16C0E6FF99EC2B
:1012900030F0E552E552E55266D0E70E146E580E76
:1012A000156E166A14C0E6FF15C0E6FF16C0E6FF0D
:1012B00099EC30F0E552E552E55255D0D20E146E5D
:1012C000580E156E166A14C0E6FF15C0E6FF16C06C
:1012D000E6FF99EC30F0E552E552E55244D0BD0E00
:1012E000146E580E156E166A14C0E6FF15C0E6FFA0
:1012F00016C0E6FF99EC30F0E552E552E55233D0E6
:10130000A80E146E580E156E166A14C0E6FF15C0AE
:10131000E6FF16C0E6FF99EC30F0E552E552E552E3
:1013200022D0930E146E580E156E166A14C0E6FF86
:1013300015C0E6FF16C0E6FF99EC30F0E552E55225
:10134000E55211D07E0E146E580E156E166A14C03A
:10135000E6FF15C0E6FF16C0E6FF99EC30F0E55257
:10136000E552E55200D0E552E7CFD9FF1200D9CFC0
:10137000E6FFE1CFD9FF040EE126DE6ADD6A020E48
:10138000DB6A030EDB6AFD0EDBCF14F0FE0EDBCF53
:1013900015F0DE501424E96EDD501520EA6EEF5092
:1013A00032E0FD0EDBCF15F0FE0EDBCF16F0DE5087
:1013B0001524E96EDD501620EA6EEFCF14F0300EE2
:1013C000145C1AE3FD0EDBCF17F0FE0EDBCF18F036
:1013D000DE501724E96EDD501820EA6EEF50390810
:1013E0000BE3010EF36E020EF3CFDBFF030EDB6A9D
:1013F000DF2A010E07E305D0020EDB6A030EDB6A6B
:1014000002D0DB2AC0D7020EDBCF14F0030EDBCFF5
:1014100015F014C0F3FF15C0F4FF00D0040EE15C1A
:1014200002E2E16AE552E16EE552E7CFD9FF120030
:10143000D9CFE6FFE1CFD9FF070EE126DE6ADD6AEC
:10144000020EDB6A030EDB6A010EF36E040EF3CFAD
:10145000DBFF050EDB6A81EC03F0E66ABDEC04F00D
:10146000E552E76E060EE7CFDBFFDB50610805E1D2
:101470000101050E1B6FCFD107D0060EDB506308AC
:1014800003E101011B6BC7D1600EE66E000EE66E34
:10149000660E146E580E156E166A14C0E6FF15C05F
:1014A000E6FF16C0E6FF99EC30F0176E050EE15E20
:1014B0001750010EE66EE66EE66AC00EE66E2EEC82
:1014C00000F0E552E552E552E552DECF14F0DDCFF3
:1014D00015F0280E0D6E0E6A14C008F015C009F044
:1014E000A4EC32F004C014F005C015F0145015102F
:1014F00001E0BAD0020EDBCF16F0030EDBCF17F0FF
:101500000D0E165C000E175801E3AED0D950040F33
:10151000E96EDACFEAFF070EEE1801E1ED5035E192
:10152000DF0EE66EE66A010EE76E020EDBCFE9FF24
:10153000030EDBCFEAFFE750E926000EEA22010E98
:10154000D890E936EA36E806FBE1730EE926000E8C
:10155000EA22EECFE6FFEFCFE6FF040EDBCFE6FF99
:10156000050EDBCFE6FF4E0E146E580E156E166A92
:1015700014C0E6FF15C0E6FF16C0E6FF99EC30F098
:10158000176E090EE15E175048D0010EE76E020E8D
:10159000DBCFE9FF030EDBCFEAFFE750E926000EC1
:1015A000EA22010ED890E936EA36E806FBE1730E2E
:1015B000E926000EEA22EECFE6FFEFCFE6FFDF0ED0
:1015C000E66EE66A020EDBCFE9FF030EDBCFEAFF31
:1015D000010ED890E936EA36E806FBE1730EE926FB
:1015E000000EEA22EECFE6FFEFCFE6FF040EDBCFE0
:1015F000E6FF050EDBCFE6FF360E146E580E156EB5
:10160000166A14C0E6FF15C0E6FF16C0E6FF99ECA7
:1016100030F0176E0B0EE15E1750040EDBCF14F0A6
:10162000050EDBCF15F0070E145C000E155810E206
:10163000020EDB2A030E01E3DB2A020EDB2A030E75
:1016400001E3DB2A040EDB2A050E01E3DB2A0BD0C3
:10165000020EDB6A030EDB6A010EF36E040EF3CF9B
:10166000DBFF050EDB6A87D0D950040FE96EDACFB5
:10167000EAFF070EEE1801E1ED5035E1DF0EE66EF0
:10168000E66A010EE76E020EDBCFE9FF030EDBCF49
:10169000EAFFE750E926000EEA22010ED890E9366B
:1016A000EA36E806FBE1730EE926000EEA22EECFE9
:1016B000E6FFEFCFE6FF040EDBCFE6FF050EDBCF44
:1016C000E6FF4E0E146E580E156E166A14C0E6FF35
:1016D00015C0E6FF16C0E6FF99EC30F0176E090E54
:1016E000E15E175048D0010EE76E020EDBCFE9FF36
:1016F000030EDBCFEAFFE750E926000EEA22010ED7
:10170000D890E936EA36E806FBE1730EE926000ECA
:10171000EA22EECFE6FFEFCFE6FFDF0EE66EE66AE7
:10172000020EDBCFE9FF030EDBCFEAFF010ED890FC
:10173000E936EA36E806FBE1730EE926000EEA22F6
:10174000EECFE6FFEFCFE6FF040EDBCFE6FF050EA0
:10175000DBCFE6FF1D0E146E580E156E166A14C010
:10176000E6FF15C0E6FF16C0E6FF99EC30F0176EF5
:101770000B0EE15E1750010EE66EE66EE66A940E01
:10178000E66E2EEC00F0E552E552E552E552080E09
:10179000146E580E156E166A14C0E6FF15C0E6FFEB
:1017A00016C0E6FF99EC30F0E552E552E552010E25
:1017B000E66EE66EE66AD40EE66E2EEC00F0E552BA
:1017C000E552E552E552F30E146E570E156E166A89
:1017D00014C0E6FF15C0E6FF16C0E6FF99EC30F036
:1017E000E552E552E552010EE66EE66EE66A800EBF
:1017F000E66E2EEC00F0E552E552E552E552140E8D
:10180000E66EE66ACFEC02F0E552E552DF2A010E01
:1018100001E3DB2A22D6070EE15C02E2E16AE5522F
:10182000E16EE552E7CFD9FF1200D9CFE6FFE1CF55
:10183000D9FFE65281EC03F0E66ABDEC04F0E55214
:10184000DF6E310EDF5C05E10101020E1B6F90D0EF
:1018500017D0320EDF5C05E10101030E1B6F88D04B
:101860000FD0330EDF5C05E10101040E1B6F80D049
:1018700007D0340EDF5C04E10101010E1B6F78D04C
:10188000DE0E146E570E156E166A14C0E6FF15C0F4
:10189000E6FF16C0E6FF99EC30F0E552E552E5525E
:1018A000010EE66EE66EE66AC00EE66E2EEC00F005
:1018B000E552E552E552E552C90E146E570E156E0B
:1018C000166A14C0E6FF15C0E6FF16C0E6FF99ECE5
:1018D00030F0E552E552E552010EE66EE66EE66A3C
:1018E000940EE66E2EEC00F0E552E552E552E5521C
:1018F000B40E146E570E156E166A14C0E6FF15C0AE
:10190000E6FF16C0E6FF99EC30F0E552E552E552ED
:10191000010EE66EE66EE66AD40EE66E2EEC00F080
:10192000E552E552E552E5529F0E146E570E156EC4
:10193000166A14C0E6FF15C0E6FF16C0E6FF99EC74
:1019400030F0E552E552E552010EE66EE66EE66ACB
:10195000800EE66E2EEC00F0E552E552E552E552BF
:10196000020EE66EE66ACFEC02F0E552E55264D76D
:10197000E552E552E7CFD9FF1200D9CFE6FFE1CF1C
:10198000D9FF3F0EE126DF6AD950010FE96EDACFA9
:10199000EAFFEE6AEE6AEE6AEE6AEE6AEE6AEE6AF6
:1019A000EE6AEE6AEE6AEE6AEE6AEE6AEE6AEE6A77
:1019B000EE6AEE6AEE6AEE6AEE6AEE6AEE6AEE6A67
:1019C000EE6AEE6AEE6AEE6AEE6AEE6AEE6AEE6A57
:1019D000EE6A210EDB6AD950220FE96EDACFEAFFF8
:1019E000EE6AEE6AEE6AEE6AEE6AEE6AEE6AEE6A37
:1019F000EE6AEE6AEE6AEE6AEE6AEE6AEE6AEE6A27
:101A0000EE6AEE6A340EDB6A350EDB6A360EDB6890
:101A1000380EDB6A120EF36E390EF3CFDBFF3B0E8E
:101A2000DB6A3C0EDB6A3D0EDB6A3E0EDB6A81EC54
:101A300003F0380EDB50000805E2E66ABDEC04F066
:101A4000E55205D0010EE66EBDEC04F0E552E76EFE
:101A50003A0EE7CFDBFFDB50230801E146D23A0E16
:101A6000DB50650829E1340EDB5025E0D950210F09
:101A7000E66E000EDA20E66E66EC30F0E552E552D6
:101A8000F3CF14F0F4CF15F0153404E2145000082D
:101A9000000E155410E2340EDB06D950210F146EDF
:101AA000DACF15F0340EDB500F011424E96E000E6E
:101AB0001520EA6EEF6A19D23A0EDB50640801E095
:101AC000B4D1380EDB50000801E3EDD0D950210F1E
:101AD000E66E000EDA20E66E4ADCE552E552F3CF00
:101AE00014F0F4CF15F01450151001E1CBD0D950FB
:101AF000210FE66E000EDA20E66EEEEC2EF0E552D7
:101B0000E552F3CF14F0F4CF15F0D890155004E659
:101B1000000E145C010E15584DE2D950210FE66EEF
:101B2000000EDA20E66EEEEC2EF0E552E552F3CF31
:101B300016F0F4CF17F0173404E216500008000E28
:101B4000175438E20D0EF36E380EDBCFF4FFF3506E
:101B5000F45C30E2D950210FE66E000EDA20E66E1A
:101B6000EEEC2EF0E552E552F350E66ED9CF14F0CC
:101B7000DACF15F0390EDB500F011424E96E000E98
:101B80001520EA6EE552E750EF6E8A0E146E570E7E
:101B9000156E166A14C0E6FF15C0E6FF16C0E6FF14
:101BA00099EC30F0E552E552E552390EDB2A380E59
:101BB000DB2A67D0380EDB500D0853E1D950210FD6
:101BC000E66E000EDA20E66EEEEC2EF0E552E552FF
:101BD000F3CF14F0F4CF15F0153404E214500008DC
:101BE000000E15543EE2D950210FE66E000EDA20A9
:101BF000E66EEEEC2EF0E552E5523B0EF3CFDBFF46
:101C00003C0EF4CFDBFFD9CF14F0DACF15F0390E4C
:101C1000DB500F011424E96E000E1520EA6E3C0E15
:101C2000DBCFEFFF390EDB2AD9CF14F0DACF15F076
:101C3000DB501424E96E000E1520EA6E3B0EDBCF5C
:101C4000EFFF390EDB2AD9CF14F0DACF15F0DB50D5
:101C50001424E96E000E1520EA6EEF6A380EDB2AB6
:101C600010D0750E146E570E156E166A14C0E6FF6E
:101C700015C0E6FF16C0E6FF99EC30F0E552E552DC
:101C8000E55210D0600E146E570E156E166A14C011
:101C9000E6FF15C0E6FF16C0E6FF99EC30F0E5520E
:101CA000E552E5529BD0D950210FE66E000EDA20A6
:101CB000E66E66EC30F0E552E552F3CF14F0F4CF67
:101CC00015F0153404E214500208000E155476E2A3
:101CD000230EDF6E010EF36E370EF3CFDBFF010E26
:101CE000F36E340EF3CFDBFF120EF36E340EDBCF48
:101CF000F4FFF350F45C4FE2D950210F146EDACFA9
:101D000015F0340EDB040F011424E96E000E1520CB
:101D1000EA6EEF502EE0370EDB501DE0D950210F58
:101D2000166EDACF17F0340EDB041624E96E000EBF
:101D30001720EA6EEF50E66ED9CF14F0DACF15F027
:101D4000340EDB501424E96E000E1520EA6EE552C5
:101D5000E750EF6E0DD0D9CF14F0DACF15F0340E76
:101D6000DB501424E96E000E1520EA6E200EEF6E93
:101D70000FD0370EDB6AD9CF14F0DACF15F0340E5E
:101D8000DB501424E96E000E1520EA6E200EEF6E73
:101D9000340EDB2AA9D74B0E146E570E156E166A39
:101DA00014C0E6FF15C0E6FF16C0E6FF99EC30F060
:101DB000E552E552E552380EDB2A10D0360E146E8D
:101DC000570E156E166A14C0E6FF15C0E6FF16C062
:101DD000E6FF99EC30F0E552E552E552130EE66E5F
:101DE000E66AE66AD950210FE66E000EDA20E66E4A
:101DF0004CEC30F0146E050EE15E1450010EE66EF0
:101E0000E66EE66AC00EE66E2EEC00F0E552E55294
:101E1000E552E552580EE66E020EE66ECFEC02F089
:101E2000E552E552340EDB6A60D03A0EDB506308AF
:101E300004E101011B6B53D258D0D950210FE66E3B
:101E4000000EDA20E66E66EC30F0E552E552F3CF94
:101E500014F0F4CF15F0D890155004E6120E145C6F
:101E6000000E155816E2380EDB5013E1D950210F41
:101E7000146EDACF15F0340EDB500F011424E96E26
:101E8000000E1520EA6E3A0EDBCFEFFF340EDB2A90
:101E90002CD0380EDB50000828E2D950210FE66E16
:101EA000000EDA20E66E66EC30F0E552E552F3CF34
:101EB00014F0F4CF15F0D890155004E6030E145C1E
:101EC000000E155812E2D950210F146EDACF15F01A
:101ED000340EDB500F011424E96E000E1520EA6E5B
:101EE0003A0EDBCFEFFF340EDB2A140E146E14C053
:101EF0000EF0350EDBCF09F0F8EC32F0055017E1AB
:101F0000360EDB5020080EE1380EDB50000808E2E8
:101F1000380EDB50010B02E1730E01D0DF0E01D051
:101F2000FF0E01D0200EE76E360EE7CFDBFF380E36
:101F3000DB500E0801E057D181EC03F0E66AD9D9F5
:101F4000E552000902E1000E05D0E66AD2D9E55259
:101F5000200DF350E66ED9503D0FE96EDACFEAFF5F
:101F6000E552E750EE6EED6AD9CFE6FFDACFE6FF35
:101F70003D0EDBCFE6FF3E0EDBCFE6FF4CEC04F080
:101F8000E552E552E552E552E66AB3D9E552E66E0E
:101F900000EC04F0E552380EDBCFE6FF76EC08F0FB
:101FA000E552010EE66EE66EE66AC00EE66E2EECB7
:101FB00000F0E552E552E552E552210E146E570E3F
:101FC000156E166A14C0E6FF15C0E6FF16C0E6FFE0
:101FD00099EC30F0E552E552E552010EE66EE66E00
:101FE000E66A940EE66E2EEC00F0E552E552E552FC
:101FF000E5520C0E146E570E156E166A14C0E6FFED
:1020000015C0E6FF16C0E6FF99EC30F0E552E55248
:10201000E552010EE66EE66EE66AD40EE66E2EEC32
:1020200000F0E552E552E552E552F70E146E560EF9
:10203000156E166A14C0E6FF15C0E6FF16C0E6FF6F
:1020400099EC30F0E552E552E552010EE66EE66E8F
:10205000E66A800EE66E2EEC00F0E552E552E5529F
:10206000E552080EE66E070EE66ECFEC02F0E55282
:10207000E552010EF36E370EF3CFDBFF340EDB6A51
:10208000DB5012084EE3D9CF14F0DACF15F0340E3E
:10209000DB500F011424E96E000E1520EA6EEF509C
:1020A000200825E0370EDB5018E0D9CF14F0DACF46
:1020B00015F0340EDB281424E96E000E1520EA6EAC
:1020C000EF50E66E340EDB50EA6A600FE96E000EE8
:1020D000EA22E552E750EF6E09D0340EDB50EA6A8F
:1020E000600FE96E000EEA22200EEF6E0BD0370E65
:1020F000DB6A340EDB50EA6A600FE96E000EEA22FA
:10210000200EEF6E340EDB50120808E1340EDB5067
:10211000EA6A600FE96E000EEA22EF6A340EDB2AEB
:10212000AFD7010EF36E370EF3CFDBFF340EDB6A51
:102130000C0EF36E340EDBCFF4FFF350F45C20E2B0
:10214000D9CF14F0DACF15F0340EDB50120F0F0197
:102150001424E96E000E1520EA6EEF50E66E340E80
:10216000EA6ADB34FE0BEA36E96E730EE926000EEE
:10217000EA22E552E750EE6EED6A340EDB2AD8D73C
:102180003B0EDBCF8DF03C0EDBCF8EF0380EDB6AE2
:102190003B0EDB6A3C0EDB6A3D0EDB6A3E0EDB6A01
:1021A000130EE66EE66AE66AD950210FE66E000E5F
:1021B000DA20E66E4CEC30F0146E050EE15E145041
:1021C000210EE66EE66AE66AD9CFE6FFDACFE6FFD1
:1021D0004CEC30F0146E050EE15E14500101010E5E
:1021E0001B6F7DD012D0380EDBCFE6FF76EC08F007
:1021F000E552010EE66EE66EE66AC00EE66E2EEC65
:1022000000F0E552E552E552E552360EDBCFE6FF2F
:10221000E66AD950210FE66E000EDA20E66EE20E75
:10222000146E560E156E166A14C0E6FF15C0E6FF52
:1022300016C0E6FF99EC30F0176E070EE15E1750FE
:10224000010EE66EE66EE66A940EE66E2EEC00F087
:10225000E552E552E552E552CE0E146E590E156E5A
:10226000166A14C0E6FF15C0E6FF16C0E6FF99EC3B
:1022700030F0E552E552E552010EE66EE66EE66A92
:10228000D40EE66E2EEC00F0E552E552E552E55232
:10229000F30E146E570E156E166A14C0E6FF15C0C5
:1022A000E6FF16C0E6FF99EC30F0E552E552E55244
:1022B000010EE66EE66EE66A800EE66E2EEC00F02B
:1022C000E552E552E552E5520A0EE66EE66ACFECBB
:1022D00002F0E552E552350EDB2A19EF0DF03F0E04
:1022E000E15C02E2E16AE552E16EE552E7CFD9FF37
:1022F0001200D9CFE6FFE1CFD9FF260EE126DF6A33
:10230000DE52010EDD6E020EDB6AD950030FE96E5C
:10231000DACFEAFFEE6AEE6AEE6AEE6AEE6AEE6A1B
:10232000EE6AEE6AEE6AEE6AEE6AEE6AEE6AEE6AED
:10233000EE6AEE6AEE6AEE6AEE6AEE6AEE6AEE6ADD
:10234000EE6AEE6AEE6AEE6AEE6AEE6AEE6AEE6ACD
:10235000EE6AEE6A230EDB6A240EDB6A250EDB6A68
:10236000FE0EDB502EE0FE0EDB50010806E2FE0EF4
:10237000DB50200DF350E00F01D0000EE66ED95077
:10238000240FE96EDACFEAFFE552E750EE6EED6A10
:10239000D950020FE66E000EDA20E66E240EDBCF77
:1023A000E6FF250EDBCFE6FF8CEC04F0E552E552AC
:1023B000E552E552020EDB50230802E1230EDB2A30
:1023C00034D0DF5002E1000E01D0200E146E156AE9
:1023D00014BE1568D950240FE96EDACFEAFF145005
:1023E000EE261550ED22D950020FE66E000EDA20CF
:1023F000E66E240EDBCFE6FF250EDBCFE6FF8CEC8E
:1024000004F0E552E552E552E552020EDB50230896
:1024100003E1230EDB2A02D0010EDB6ADF2A0F0E56
:10242000DF5C03E2010EDB50CCE1230EDB50146EC7
:10243000260EE15C03E200D0E16AE552E16E145041
:10244000E552E7CFD9FF1200D9CFE6FFE1CFD9FFA0
:10245000270EE126040EDB6AD950050FE96EDACFAC
:10246000EAFFEE6AEE6AEE6AEE6AEE6AEE6AEE6A1B
:10247000EE6AEE6AEE6AEE6AEE6AEE6AEE6AEE6A9C
:10248000EE6AEE6AEE6AEE6AEE6AEE6AEE6AEE6A8C
:10249000EE6AEE6AEE6AEE6AEE6AEE6AEE6AEE6A7C
:1024A000EE6ADE6ADD6A020EDB6A030EDB6AFE0E8E
:1024B000DB50200DF350E00F02E1000E05D0FE0EC0
:1024C000DB50200DF350E00FDE6EDD6AD950040FB3
:1024D000E66E000EDA20E66EDECFE6FFDDCFE6FF29
:1024E0008CEC04F0E552E552E552E552040EDB5067
:1024F000230801E0C0D0010EF36E260EF3CFDBFF00
:10250000250EDB6ADB50120850E3D950040F146E1D
:10251000DACF15F0250EDB500F011424E96E000E02
:102520001520EA6EEF50200826E0260EDB5019E059
:10253000D950040F146EDACF15F0250EDB281424C1
:10254000E96E000E1520EA6EEF50E66E250EDB50A8
:10255000EA6A600FE96E000EEA22E552E750EF6E7C
:1025600009D0250EDB50EA6A600FE96E000EEA2200
:10257000200EEF6E0BD0260EDB6A250EDB50EA6ACA
:10258000600FE96E000EEA22200EEF6E250EDB5082
:10259000120808E1250EDB50EA6A600FE96E000EB2
:1025A000EA22EF6A250EDB2AADD7010EF36E260E66
:1025B000F3CFDBFF250EDB6A0C0EF36E250EDBCFAF
:1025C000F4FFF350F45C21E2D950040F146EDACF1B
:1025D00015F0250EDB50120F0F011424E96E000ECA
:1025E0001520EA6EEF50E66E250EEA6ADB34FE0B2C
:1025F000EA36E96E730EE926000EEA22E552E7504C
:10260000EE6EED6A250EDB2AD7D7020EDB6A030ECB
:10261000DB6A250EDB50120FE76E250EE7CFDBFFDE
:10262000D950040F146EDACF15F0250EDBCFF3FF6F
:10263000DB2AF3500F011424E96E000E1520EA6E18
:10264000030EEFCFDBFFD950040F146EDACF15F075
:10265000250EDBCFF3FFDB2AF3501424E96E000EC6
:102660001520EA6E020EEFCFDBFFDBCF8DF0030EFD
:10267000DBCF8EF07AD0CD0E146E560E156E166A24
:1026800014C0E6FF15C0E6FF16C0E6FF99EC30F077
:10269000E552E552E552010EE66EE66EE66AC00EC0
:1026A000E66E2EEC00F0E552E552E552E552B80E2A
:1026B000146E560E156E166A14C0E6FF15C0E6FFBE
:1026C00016C0E6FF99EC30F0E552E552E552010EF6
:1026D000E66EE66EE66A940EE66E2EEC00F0E552CB
:1026E000E552E552E552CE0E146E590E156E166A7D
:1026F00014C0E6FF15C0E6FF16C0E6FF99EC30F007
:10270000E552E552E552010EE66EE66EE66AD40E3B
:10271000E66E2EEC00F0E552E552E552E552CE0EA3
:10272000146E590E156E166A14C0E6FF15C0E6FF4A
:1027300016C0E6FF99EC30F0E552E552E552010E85
:10274000E66EE66EE66A800EE66E2EEC00F0E5526E
:10275000E552E552E552580EE66E020EE66ECFECFB
:1027600002F0E552E55201011B6B270EE15C02E22B
:10277000E16AE552E16EE552E7CFD9FF1200D9CF09
:10278000E6FFE1CFD9FF640EE126DF6AD950010FE1
:10279000E96EDACFEAFFEE6AEE6AEE6AEE6AEE6A98
:1027A000EE6AEE6AEE6AEE6AEE6AEE6AEE6AEE6A69
:1027B000EE6AEE6AEE6AEE6AEE6AEE6AEE6AEE6A59
:1027C000EE6AEE6AEE6AEE6AEE6AEE6AEE6AEE6A49
:1027D000EE6AEE6AEE6A210EDB6AD950220FE96ECC
:1027E000DACFEAFFEE6AEE6AEE6AEE6AEE6AEE6A47
:1027F000EE6AEE6AEE6AEE6AEE6AEE6AEE6AEE6A19
:10280000EE6AEE6AEE6AEE6AD950340FE96EDACFFC
:10281000EAFFEE6AEE6AEE6AEE6AEE6AEE6AEE6A67
:10282000EE6AEE6AEE6AEE6AEE6AEE6AEE6AEE6AE8
:10283000EE6AEE6AEE6AEE6AEE6AEE6AEE6AEE6AD8
:10284000EE6AEE6AEE6AEE6AEE6AEE6AEE6AEE6AC8
:10285000EE6AEE6AEE6AEE6AEE6AEE6AEE6A010E01
:10286000F36E5C0EF3CFDBFF5D0EDB6A600EDB6A9E
:10287000610EDB6A620EDB6A630EDB6A81EC03F0D9
:10288000600EDB6A610EDB6A5C0EDB50030801E25E
:1028900088D05D0EDB50000809E2D950600FE96E68
:1028A000DACFEAFF200EEE26000EED22D9CFE6FFAA
:1028B000DACFE6FF600EDBCFE6FF610EDBCFE6FF8F
:1028C0008CEC04F0E552E552E552E5525B0EDB6A12
:1028D000120EF36E5B0EDBCFF4FFF350F45C5CE2A0
:1028E000230EDF5C27E1D9CF18F0DACF19F05B0EA9
:1028F000DB280F011824E96E000E1920EA6EEF5054
:10290000E66ED950210F166EDACF17F05C0EDB049D
:10291000130D1650F324146E1750F420156E5B0E31
:10292000DB501424E96E000E1520EA6EE552E750E4
:10293000EF6E18D0D950210F166EDACF17F05C0E5B
:10294000DB04130D1650F324146E1750F420156E8B
:102950005B0EDB500F011424E96E000E1520EA6EA9
:10296000200EEF6E5B0EDB50110813E1D950210FE2
:10297000146EDACF15F05C0EDB04130D1450F32443
:10298000E96E1550F420EA6E120EE926000EEA22D6
:10299000EF6A5B0EDB2A9CD75C0EDB2A5D0EDB2A1E
:1029A00073D75C0EDB6A5D0EDB2AE66ABDEC04F0D1
:1029B000E552E76E5A0EE7CFDBFFDB50230801E15B
:1029C0000BD15A0EDB50360801E0C1D0010EF36E78
:1029D0005C0EF3CFDBFF210EE66EE66AE66AD9CF26
:1029E000E6FFDACFE6FF4CEC30F0146E050EE15E48
:1029F0001450390EE66EE66AE66AD950210FE66E8B
:102A0000000EDA20E66E4CEC30F0146E050EE15E3E
:102A100014500F0EF36E5D0EDBCFF4FFF350F45C39
:102A200009E3010EF36E5D0EF3CFDBFF600EDB6A90
:102A3000610EDB6A5C0EDB50030801E287D05D0E9D
:102A4000DB0409E0D950600FE96EDACFEAFF200E0F
:102A5000EE26000EED22D9CFE6FFDACFE6FF600EBC
:102A6000DBCFE6FF610EDBCFE6FF8CEC04F0E55236
:102A7000E552E552E5525B0EDB6A120EF36E5B0E19
:102A8000DBCFF4FFF350F45C5CE2230EDF5C27E164
:102A9000D9CF18F0DACF19F05B0EDB280F0118241C
:102AA000E96E000E1920EA6EEF50E66ED950210F44
:102AB000166EDACF17F05C0EDB04130D1650F324FC
:102AC000146E1750F420156E5B0EDB501424E96E63
:102AD000000E1520EA6EE552E750EF6E18D0D9507F
:102AE000210F166EDACF17F05C0EDB04130D1650B3
:102AF000F324146E1750F420156E5B0EDB500F019B
:102B00001424E96E000E1520EA6E200EEF6E5B0EA7
:102B1000DB50110813E1D950210F146EDACF15F0F4
:102B20005C0EDB04130D1450F324E96E1550F420F1
:102B3000EA6E120EE926000EEA22EF6A5B0EDB2A2D
:102B40009CD75C0EDB2A5D0EDB2A74D745D05A0E6B
:102B5000DB50310808E05A0EDB50320804E05A0E10
:102B6000DB50330832E15A0EDB50310808E15D0ECC
:102B7000DB50FD0FE76E5F0EE7CFDBFF16D05A0E7E
:102B8000DB50320808E15D0EDB50FE0FE76E5F0E92
:102B9000E7CFDBFF0AD05A0EDB50330806E15D0EAB
:102BA000DB04E76E5F0EE7CFDBFF5F0EDBCFE6FFF8
:102BB00000EC04F0E5525F0EDBCFE6FF45DCE552AA
:102BC0000101010E1B6FF3D007D05A0EDB506308D2
:102BD00003E101011B6BEBD0210EDB5020081DE04F
:102BE000D950210FE66E000EDA20E66E5D0EDB5046
:102BF000FD0FE66EE66AB00E146E560E156E166A7E
:102C000014C0E6FF15C0E6FF16C0E6FF99EC30F0F1
:102C1000176E070EE15E175016D05D0EDB50FD0FEC
:102C2000E66EE66AA50E146E560E156E166A14C090
:102C3000E6FF15C0E6FF16C0E6FF99EC30F0176E10
:102C4000050EE15E1750010EE66EE66EE66AC00EF6
:102C5000E66E2EEC00F0E552E552E552E552340EF8
:102C6000DB5020081DE0D950340FE66E000EDA204C
:102C7000E66E5D0EDB50FE0FE66EE66AB00E146E79
:102C8000560E156E166A14C0E6FF15C0E6FF16C094
:102C9000E6FF99EC30F0176E070EE15E175016D084
:102CA0005D0EDB50FE0FE66EE66AA50E146E560E44
:102CB000156E166A14C0E6FF15C0E6FF16C0E6FFE3
:102CC00099EC30F0176E050EE15E1750010EE66EBE
:102CD000E66EE66A940EE66E2EEC00F0E552E552E2
:102CE000E552E552470EDB5020081CE0D950470F53
:102CF000E66E000EDA20E66E5D0EDB04E66EE66A36
:102D0000B00E146E560E156E166A14C0E6FF15C08E
:102D1000E6FF16C0E6FF99EC30F0176E070EE15E95
:102D2000175015D05D0EDB04E66EE66AA50E146E34
:102D3000560E156E166A14C0E6FF15C0E6FF16C0E3
:102D4000E6FF99EC30F0176E050EE15E1750010EAC
:102D5000E66EE66EE66AD40EE66E2EEC00F0E55204
:102D6000E552E552E552900E146E560E156E166A37
:102D700014C0E6FF15C0E6FF16C0E6FF99EC30F080
:102D8000E552E552E552010EE66EE66EE66A800E09
:102D9000E66E2EEC00F0E552E552E552E552050EE6
:102DA000E66EE66ACFEC02F0E552E552FED5640E1F
:102DB000E15C02E2E16AE552E16EE552E7CFD9FF5C
:102DC0001200D9CFE6FFE1CFD9FF410EE126DF6A3D
:102DD000D950010FE96EDACFEAFFEE6AEE6AEE6AC9
:102DE000EE6AEE6AEE6AEE6AEE6AEE6AEE6AEE6A23
:102DF000EE6AEE6AEE6AEE6AEE6AEE6AEE6AEE6A13
:102E0000EE6AEE6AEE6AEE6AEE6AEE6AEE6AEE6A02
:102E1000EE6AEE6AEE6AEE6AEE6A210EDB6AD9505D
:102E2000220FE96EDACFEAFFEE6AEE6AEE6AEE6A28
:102E3000EE6AEE6AEE6AEE6AEE6AEE6AEE6AEE6AD2
:102E4000EE6AEE6AEE6AEE6AEE6AEE6A340EDB6AEB
:102E5000350EDB6A360EDB68380EDB6A120EF36E57
:102E6000390EF3CFDBFF3F0EDB6A010EF36E400E2F
:102E7000F3CFDBFF3B0EDB6A3C0EDB6A3D0EDB6A09
:102E80003E0EDB6A81EC03F03F0EDB5027E1400E83
:102E9000DB5024E0340EDB6ADB5012081CE3340EF6
:102EA000DB50EA6A600FE96E000EEA22EF50E66E30
:102EB000D950210F146EDACF15F0340EDB500F010C
:102EC0001424E96E000E1520EA6EE552E750EF6E0D
:102ED000340EDB2AE1D7400EDB6A50D03F0EDB50C8
:102EE000000829E20D0EF36E3F0EDBCFF4FFF35026
:102EF000F45C21E2400EDB501EE0D950210FE66E5B
:102F0000000EDA20E66E3F0EDB04E96EEA6AD89026
:102F1000E936EA36730EE926000EEA22EECFE6FF26
:102F2000EFCFE6FF63EC2FF0E552E552E552E552B4
:102F3000400EDB6A23D03F0EDB500D081FE1400E30
:102F4000DB501CE0D950210FE66E000EDA20E66E51
:102F50003F0EEA6ADB34FE0BEA36E96E730EE926B1
:102F6000000EEA22EECFE6FFEFCFE6FF63EC2FF094
:102F7000E552E552E552E552400EDB6A380EDB5071
:102F8000000805E2E66ABDEC04F0E55205D0010E4A
:102F9000E66EBDEC04F0E552E76E3A0EE7CFDBFFDC
:102FA000DB50230801E16DD23A0EDB50650840E1A9
:102FB000340EDB500FE1D950210FE66E000EDA20FF
:102FC000E66E66EC30F0E552E552340EF3CFDBFFEF
:102FD000F35002D0340EDB50E76E340EE7CFDBFF48
:102FE000DB5025E0D950210FE66E000EDA20E66EA8
:102FF00066EC30F0E552E552F3CF14F0F4CF15F063
:10300000153404E214500008000E155410E2340E7A
:10301000DB06D950210F146EDACF15F0340EDB50D9
:103020000F011424E96E000E1520EA6EEF6A29D212
:103030003A0EDB50640801E0C4D1380EDB500008C2
:1030400001E3F5D0D950210FE66E000EDA20E66ECE
:10305000B7EC09F0E552E552F3CF14F0F4CF15F0D8
:103060001450151001E1D2D0D950210FE66E000E98
:10307000DA20E66EEEEC2EF0E552E552F3CF14F0D6
:10308000F4CF15F0D890155004E6000E145C010E34
:10309000155854E2D950210FE66E000EDA20E66E84
:1030A000EEEC2EF0E552E552F3CF16F0F4CF17F028
:1030B000173404E216500008000E17543FE20D0EBC
:1030C000F36E380EDBCFF4FFF350F45C37E2D950E7
:1030D000210FE66E000EDA20E66EEEEC2EF0E552E1
:1030E000E552F350E66ED9CF14F0DACF15F0390E71
:1030F000DB500F011424E96E000E1520EA6EE55234
:10310000E750EF6E8A0E146E570E156E166A14C0D5
:10311000E6FF15C0E6FF16C0E6FF99EC30F0E55279
:10312000E552E552390EDB2A380EDB2A3F0EDB2A48
:10313000010EF36E400EF3CFDBFF67D0380EDB508D
:103140000D0853E1D950210FE66E000EDA20E66E2D
:10315000EEEC2EF0E552E552F3CF14F0F4CF15F07B
:10316000153404E214500008000E15543EE2D95004
:10317000210FE66E000EDA20E66EEEEC2EF0E55240
:10318000E5523B0EF3CFDBFF3C0EF4CFDBFFD9CF94
:1031900014F0DACF15F0390EDB500F011424E96E6C
:1031A000000E1520EA6E3C0EDBCFEFFF390EDB2A56
:1031B000D9CF14F0DACF15F0DB501424E96E000EED
:1031C0001520EA6E3B0EDBCFEFFF390EDB2AD9CF9D
:1031D00014F0DACF15F0DB501424E96E000E152040
:1031E000EA6EEF6A380EDB2A10D0750E146E570E99
:1031F000156E166A14C0E6FF15C0E6FF16C0E6FF9E
:1032000099EC30F0E552E552E55210D0600E146EA4
:10321000570E156E166A14C0E6FF15C0E6FF16C0FD
:10322000E6FF99EC30F0E552E552E552A3D0D950D3
:10323000210FE66E000EDA20E66E66EC30F0E55205
:10324000E552F3CF14F0F4CF15F0153404E2145026
:103250000208000E155401E37DD0230EDF6E010E2F
:10326000F36E370EF3CFDBFF010EF36E340EF3CFA8
:10327000DBFF120EF36E340EDBCFF4FFF350F45C81
:103280004FE2D950210F146EDACF15F0340EDB0463
:103290000F011424E96E000E1520EA6EEF502EE0A7
:1032A000370EDB501DE0D950210F166EDACF17F024
:1032B000340EDB041624E96E000E1720EA6EEF5080
:1032C000E66ED9CF14F0DACF15F0340EDB501424AB
:1032D000E96E000E1520EA6EE552E750EF6E0DD054
:1032E000D9CF14F0DACF15F0340EDB501424E96E88
:1032F000000E1520EA6E200EEF6E0FD0370EDB6A3F
:10330000D9CF14F0DACF15F0340EDB501424E96E67
:10331000000E1520EA6E200EEF6E340EDB2AA9D7C0
:103320004B0E146E570E156E166A14C0E6FF15C0CC
:10333000E6FF16C0E6FF99EC30F0E552E552E552A3
:10334000380EDB2A3F0EDB2A010EF36E400EF3CF60
:10335000DBFF10D0360E146E570E156E166A14C0B1
:10336000E6FF15C0E6FF16C0E6FF99EC30F0E55227
:10337000E552E552130EE66EE66AE66AD950210F71
:10338000E66E000EDA20E66E4CEC30F0146E050EA0
:10339000E15E1450010EE66EE66EE66AC00EE66E61
:1033A0002EEC00F0E552E552E552E552580EE66E7D
:1033B000020EE66ECFEC02F0E552E552340EDB6A07
:1033C00060D03A0EDB50630804E101011B6B45D26B
:1033D00058D0D950210FE66E000EDA20E66E66EC6A
:1033E00030F0E552E552F3CF14F0F4CF15F0D89059
:1033F000155004E6120E145C000E155816E2380E35
:10340000DB5013E1D950210F146EDACF15F0340ED2
:10341000DB500F011424E96E000E1520EA6E3A0EFF
:10342000DBCFEFFF340EDB2A2CD0380EDB50000848
:1034300028E2D950210FE66E000EDA20E66E66EC27
:1034400030F0E552E552F3CF14F0F4CF15F0D890F8
:10345000155004E6030E145C000E155812E2D95004
:10346000210F146EDACF15F0340EDB500F01142447
:10347000E96E000E1520EA6E3A0EDBCFEFFF340E38
:10348000DB2A140E146E14C00EF0350EDBCF09F0DB
:10349000F8EC32F0055017E1360EDB5020080EE153
:1034A000380EDB50000808E2380EDB50010B02E159
:1034B000730E01D0DF0E01D0FF0E01D0200EE76E9B
:1034C000360EE7CFDBFF380EDB500E0801E049D1A6
:1034D00081EC03F0EEEC03F0200DF350E00FE66E0C
:1034E000D9503D0FE96EDACFEAFFE552E750EE6EB4
:1034F000ED6AD9CFE6FFDACFE6FF3D0EDBCFE6FF80
:103500003E0EDBCFE6FF4CEC04F0E552E552E5520F
:10351000E552380EDBCFE6FF76EC08F0E552010EFF
:10352000E66EE66EE66AC00EE66E2EEC00F0E55240
:10353000E552E552E552210E146E570E156E166ACD
:1035400014C0E6FF15C0E6FF16C0E6FF99EC30F0A8
:10355000E552E552E552010EE66EE66EE66A940E1D
:10356000E66E2EEC00F0E552E552E552E5520C0E07
:10357000146E570E156E166A14C0E6FF15C0E6FFEE
:1035800016C0E6FF99EC30F0E552E552E552010E27
:10359000E66EE66EE66AD40EE66E2EEC00F0E552BC
:1035A000E552E552E552F70E146E560E156E166A88
:1035B00014C0E6FF15C0E6FF16C0E6FF99EC30F038
:1035C000E552E552E552010EE66EE66EE66A800EC1
:1035D000E66E2EEC00F0E552E552E552E552080E9B
:1035E000E66E070EE66ECFEC02F0E552E552010EF4
:1035F000F36E370EF3CFDBFF340EDB6ADB501208BD
:103600004EE3D9CF14F0DACF15F0340EDB500F01B2
:103610001424E96E000E1520EA6EEF50200825E014
:10362000370EDB5018E0D9CF14F0DACF15F0340E96
:10363000DB281424E96E000E1520EA6EEF50E66ECA
:10364000340EDB50EA6A600FE96E000EEA22E552A2
:10365000E750EF6E09D0340EDB50EA6A600FE96E76
:10366000000EEA22200EEF6E0BD0370EDB6A340E0E
:10367000DB50EA6A600FE96E000EEA22200EEF6E60
:10368000340EDB50120808E1340EDB50EA6A600F9A
:10369000E96E000EEA22EF6A340EDB2AAFD7010E84
:1036A000F36E370EF3CFDBFF340EDB6A0C0EF36ED6
:1036B000340EDBCFF4FFF350F45C20E2D9CF14F0EA
:1036C000DACF15F0340EDB50120F0F011424E96E1F
:1036D000000E1520EA6EEF50E66E340EEA6ADB3417
:1036E000FE0BEA36E96E730EE926000EEA22E55279
:1036F000E750EE6EED6A340EDB2AD8D73B0EDBCFF7
:103700008DF03C0EDBCF8EF0380EDB6A3B0EDB6AB1
:103710003C0EDB6A3D0EDB6A3E0EDB6A130EE66E84
:10372000E66AE66AD950210FE66E000EDA20E66EF0
:103730004CEC30F0146E050EE15E1450210EE66E76
:10374000E66AE66AD9CFE6FFDACFE6FF4CEC30F066
:10375000146E050EE15E14500101010E1B6F7DD049
:1037600012D0380EDBCFE6FF76EC08F0E552010E02
:10377000E66EE66EE66AC00EE66E2EEC00F0E552EE
:10378000E552E552E552360EDBCFE6FFE66AD95048
:10379000210FE66E000EDA20E66EE20E146E560E73
:1037A000156E166A14C0E6FF15C0E6FF16C0E6FFE8
:1037B00099EC30F0176E070EE15E1750010EE66EC1
:1037C000E66EE66A940EE66E2EEC00F0E552E552E7
:1037D000E552E552CE0E146E590E156E166A14C0DF
:1037E000E6FF15C0E6FF16C0E6FF99EC30F0E552A3
:1037F000E552E552010EE66EE66EE66AD40EE66E1E
:103800002EEC00F0E552E552E552E552F30E146E4F
:10381000570E156E166A14C0E6FF15C0E6FF16C0F7
:10382000E6FF99EC30F0E552E552E552010EE66E06
:10383000E66EE66A800EE66E2EEC00F0E552E5528A
:10384000E552E5520A0EE66EE66ACFEC02F0E5526A
:10385000E552350EDB2A44EF17F0410EE15C02E23F
:10386000E16AE552E16EE552E7CFD9FF1200D9CF08
:10387000E6FFE1CFD9FF080EE126DE6ADD6A020E1F
:10388000DB6A030EDB6A040EDB6A050EDB6A060EDA
:10389000DB6A070EDB6AFE0EDB0402E18D900BD0C3
:1038A000FE0EDB50020802E18D9205D0FE0EDB50C9
:1038B000030801E18D94020EE66E8DEC32F0E552C4
:1038C000E66A19EC04F0E552DE6EDD6AE66A19EC90
:1038D00004F0E552E66ED950020FE96EDACFEAFF46
:1038E000E552E750EE6EED6ADECF14F0DDCF15F055
:1038F00014C015F0146A14C0DEFF15C0DDFF020EFF
:10390000DBCF16F0030EDBCF17F0DE501624146E5B
:10391000DD501720156E020E14C0DBFF030E15C01C
:10392000DBFF020EDBCF14F0030EDBCF15F0D890D7
:1039300015321432E804FBE1020E14C0DBFF030E63
:1039400015C0DBFFFE0EDB0402E18D800BD0FE0E06
:10395000DB50020802E18D8205D0FE0EDB50030829
:1039600001E18D84020EDBCF08F0030EDBCF09F0FE
:1039700005EC2DF007C014F008C015F009C016F0D2
:103980000AC017F00C6A0D6A800E0E6E3E0E0F6EA6
:1039900014C007F015C008F016C009F017C00AF0EF
:1039A0006BEC2DF0040E07C0DBFF050E08C0DBFF3B
:1039B000060E09C0DBFF070E0AC0DBFF040EDBCFDB
:1039C00007F0050EDBCF08F0060EDBCF09F0070E7F
:1039D000DBCF0AF00CEC2EF008C014F009C015F093
:1039E00014C0F3FF15C0F4FF080EE15C03E200D041
:1039F000E16AE552E16EE552E7CFD9FF1200D9CF77
:103A0000E6FFE1CFD9FF070EE126010EDB6A020EC9
:103A1000DB6ADF6AFC0EDB50DF5C1CE2176ADF3416
:103A2000FE0B1736166EFD0EDB501624E96EFE0EE9
:103A3000DB501720EA6EEECF14F0EFCF15F0D9501F
:103A4000010FE96EDACFEAFF1450EE261550ED2291
:103A5000DF2AE0D7010EDBCF08F0020EDBCF09F042
:103A600005EC2DF007C014F008C015F009C016F0E1
:103A70000AC017F0FC0EDBCF1CF01CC009F0F2EC02
:103A80002CF007C018F008C019F009C01AF00AC0DD
:103A90001BF018C00CF019C00DF01AC00EF01BC0BE
:103AA0000FF014C007F015C008F016C009F017C0D9
:103AB0000AF018EC2DF0030E07C0DBFF040E08C05F
:103AC000DBFF050E09C0DBFF060E0AC0DBFF030E9D
:103AD000DBCF07F0040EDBCF08F0050EDBCF09F0DB
:103AE000060EDBCF0AF00CEC2EF008C014F009C073
:103AF00015F014C0F3FF15C0F4FF070EE15C03E2FC
:103B000000D0E16AE552E16EE552E7CFD9FF12003D
:103B1000D9CFE6FFE1CFD9FF070EE126040EDB6A1D
:103B2000050EDB6A060EDB6A0101116B126B81EC7C
:103B300003F0060EDB5001E0D7D0E66ABDEC04F0DE
:103B4000E552E76E030EE7CFDBFFDB50230854E0BE
:103B5000030EDB5031080DE1010EE66EE66AFCEC67
:103B600002F0E552E552010EF36E060EF3CFDBFFD5
:103B700043D0030EDB5032080DE1020EE66EE66A1A
:103B8000FCEC02F0E552E552010EF36E060EF3CFA7
:103B9000DBFF32D0030EDB5033080DE1030EE66E7F
:103BA000E66AFCEC02F0E552E552010EF36E060EF9
:103BB000F3CFDBFF21D0030EDB5034080DE1040E00
:103BC000E66EE66AFCEC02F0E552E552010EF36E99
:103BD000060EF3CFDBFF10D0030EDB5035080CE1EF
:103BE000050EE66EE66AFCEC02F0E552E552010EC7
:103BF000F36E060EF3CFDBFF7C0E146E560E156EC1
:103C0000166A14C0E6FF15C0E6FF16C0E6FF99EC81
:103C100030F0E552E552E552010EE66EE66EE66AD8
:103C2000C00EE66E2EEC00F0E552E552E552E5528C
:103C3000680E146E560E156E166A14C0E6FF15C097
:103C4000E6FF16C0E6FF99EC30F0E552E552E5528A
:103C5000010EE66EE66EE66A940EE66E2EEC00F05D
:103C6000E552E552E552E552540E146E560E156EAD
:103C7000166A14C0E6FF15C0E6FF16C0E6FF99EC11
:103C800030F0E552E552E552010EE66EE66EE66A68
:103C9000D40EE66E2EEC00F0E552E552E552E55208
:103CA000400E146E560E156E166A14C0E6FF15C04F
:103CB000E6FF16C0E6FF99EC30F0E552E552E5521A
:103CC000010EE66EE66EE66A800EE66E2EEC00F001
:103CD000E552E552E552E552020EE66EE66ACFEC99
:103CE00002F0E552E55225D7F28E910ED76EC80E3E
:103CF000D66EF294F28AD58E81EC03F0DF6A060E5E
:103D0000DF5C01E343D1DF5002E1000E02D0DF505F
:103D1000E824E76E010EE7CFDBFFDB28E96EEA6AF5
:103D2000D890E936EA36730EE926000EEA22020E32
:103D3000EFCFDBFF010EDB28E96EEA6AD890E936A7
:103D4000EA36730EE926000EEA22EECF14F0EFCF2A
:103D500015F001011151FE0BE842166E176A17505B
:103D60001518E8AE02D0153404D01450165C155066
:103D7000175801E305D1E66ABDEC04F0E552E76EA1
:103D8000030EE7CFDBFFDB5023080BE0030EDB5015
:103D9000620807E1D59E8B908C960101060E1B6F81
:103DA000FAD0040E00018F5D2AE2020EE66E5FDD9E
:103DB000E552F3CF14F0F4CF15F000018F51E96E06
:103DC000EA6AD890E936EA36130EE926010EEA22AD
:103DD00014C0EEFF15C0EDFFD950040FE96EDACF25
:103DE000EAFFEE50ED100AE1020EE66E40DDE5520C
:103DF000040EF3CFDBFF050EF4CFDBFF13D0040E70
:103E00008F5D10E1040EE66E130EE66E010EE66E97
:103E1000F6DDE552E552E552040EF3CFDBFF050E69
:103E2000F4CFDBFF600EE66E000EE66E660E146EDB
:103E3000580E156E166A14C0E6FF15C0E6FF16C0D0
:103E4000E6FF99EC30F0176E050EE15E1750010E9B
:103E5000E66EE66EE66AC00EE66E2EEC00F0E55207
:103E6000E552E552E552020EDBCFE6FFE66ADF0ED1
:103E7000E66EE66A010EEA6ADB34FE0BEA36E96EAC
:103E8000730EE926000EEA22EECFE6FFEFCFE6FF43
:103E9000DF28E66EE66A270E146E560E156E166A59
:103EA00014C0E6FF15C0E6FF16C0E6FF99EC30F03F
:103EB000176E0B0EE15E1750010EE66EE66EE66AB7
:103EC000940EE66E2EEC00F0E552E552E552E55216
:103ED000020EDBCFE6FF01011151FE0BE842E55275
:103EE000E75CE66EE66ADF0EE66EE66A040EDBCF9E
:103EF000E6FF050EDBCFE6FFDF28E66EE66A270E5B
:103F0000146E560E156E166A14C0E6FF15C0E6FF55
:103F100016C0E6FF99EC30F0176E0B0EE15E1750FD
:103F2000010EE66EE66EE66AD40EE66E2EEC00F04A
:103F3000E552E552E552E552120E146E560E156E1C
:103F4000166A14C0E6FF15C0E6FF16C0E6FF99EC3E
:103F500030F0E552E552E552010EE66EE66EE66A95
:103F6000800EE66E2EEC00F0E552E552E552E55289
:103F7000020EE66EE66ACFEC02F0E552E552DAD6C2
:103F8000DF28E824126F116BDF2AB9D6D59E010114
:103F9000060E1B6F00D0070EE15C02E2E16AE552FB
:103FA000E16EE552E7CFD9FF1200D9CFE6FFE1CFAE
:103FB000D9FFE652050EE66EE66AFCEC02F0E55229
:103FC000E5528B908C96030EE66E51DCE552F3CFF2
:103FD00014F0F4CF15F0153404E214505008000E1C
:103FE000155401E3A4D0E66ABDEC04F0E552DF6E9F
:103FF000230EDF5C0EE0630EDF5C0BE1000EE66E6D
:10400000E66AFCEC02F0E552E5520101010E1B6F7D
:104010008ED0600EE66E000EE66EFD0E146E550E2E
:10402000156E166A14C0E6FF15C0E6FF16C0E6FF5F
:1040300099EC30F0176E050EE15E1750010EE66E3A
:10404000E66EE66AC00EE66E2EEC00F0E552E55232
:10405000E552E552DF0EE66EE66A030EE66E37ECD9
:104060001CF0E552F3CF14F0F4CF15F014C0E6FFC6
:1040700015C0E6FFE80E166E550E176E186A16C0CC
:10408000E6FF17C0E6FF18C0E6FF99EC30F0196EA6
:10409000070EE15E1950010EE66EE66EE66A940EBA
:1040A000E66E2EEC00F0E552E552E552E552CE0EFA
:1040B000146E590E156E166A14C0E6FF15C0E6FFA1
:1040C00016C0E6FF99EC30F0E552E552E552010EDC
:1040D000E66EE66EE66AD40EE66E2EEC00F0E55271
:1040E000E552E552E552F30E146E570E156E166A40
:1040F00014C0E6FF15C0E6FF16C0E6FF99EC30F0ED
:10410000E552E552E552010EE66EE66EE66A800E75
:10411000E66E2EEC00F0E552E552E552E552140E43
:10412000E66EE66ACFEC02F0E552E5524CD7000E9F
:10413000E66EE66AFCEC02F0E552E5520101010E82
:104140001B6FE552E552E7CFD9FF1200DACFE4FF4B
:10415000E2CFDAFFE9CFE4FFEACFE4FFF6CFE4FFF6
:10416000F7CFE4FFF5CFE4FFF3CFE4FFF4CFE4FFB4
:10417000FACFE4FF00EE00F0140EE80403E3EECF04
:10418000E4FFFBD700EE14F0090EE80403E3EECFE2
:10419000E4FFFBD7E652910ED76EC80ED66E030E23
:1041A000E66E37EC1CF0E552F3CF1DF0F4CF1EF0B5
:1041B00000011E508E19E8AE02D08E3504D08D510C
:1041C0001D5C8E511E5802E28B7001D08B90010154
:1041D0001251E96EEA6AD890E936EA36730EE9269A
:1041E000000EEA22EECF1DF0EFCF1EF0020EE66EBB
:1041F00037EC1CF0E552F3CF1FF0F4CF20F0205045
:104200001E18E8AE02D01E3404D01D501F5C1E5094
:10421000205802E28C7601D08C9600018F51040860
:1042200002E28F6B01D08F2B0101112BF294E5522A
:1042300000EE1CF0090EE80403E3E5CFEDFFFBD729
:1042400000EE13F0140EE80403E3E5CFEDFFFBD717
:10425000E5CFFAFFE5CFF4FFE5CFF3FFE5CFF5FFBC
:10426000E5CFF7FFE5CFF6FFE5CFEAFFE5CFE9FFC2
:10427000E5CFDAFF1100D8CFE4FFE0CFE4FFE46E32
:10428000DACFE4FFE2CFDAFFE652E552E5CFDAFF1C
:10429000E550E5CFE0FFE5CFD8FF1000D9CFE6FF2E
:1042A000E1CFD9FF270EE126060EDB6AD950070FB2
:1042B000E96EDACFEAFFEE6AEE6AEE6AEE6AEE6A5D
:1042C000EE6AEE6AEE6AEE6AEE6AEE6AEE6AEE6A2E
:1042D000EE6AEE6AEE6AEE6AEE6AEE6AEE6AEE6A1E
:1042E000EE6AEE6AEE6AEE6AEE6AEE6AEE6AEE6A0E
:1042F000EE6AEE6AEE6AA2EC02F0D30E146E550E70
:10430000156E166A14C0E6FF15C0E6FF16C0E6FF7C
:1043100099EC30F0E552E552E552010EE66EE66E9C
:10432000E66AC00EE66E2EEC00F0E552E552E5526C
:10433000E552BE0E146E550E156E166A14C0E6FFD9
:1043400015C0E6FF16C0E6FF99EC30F0E552E552E5
:10435000E552010EE66EE66EE66A940EE66E2EEC0F
:1043600000F0E552E552E552E552A90E146E550EE5
:10437000156E166A14C0E6FF15C0E6FF16C0E6FF0C
:1043800099EC30F0E552E552E552010EE66EE66E2C
:10439000E66AD40EE66E2EEC00F0E552E552E552E8
:1043A000E552940E146E550E156E166A14C0E6FF93
:1043B00015C0E6FF16C0E6FF99EC30F0E552E55275
:1043C000E552010EE66EE66EE66A800EE66E2EECB3
:1043D00000F0E552E552E552E552B80EE66E0B0EDE
:1043E000E66ECFEC02F0E552E55281EC03F0EEEC24
:1043F00003F0146E156A153404E214500008000E20
:10440000155401E31ED1EEEC03F0166E176A173453
:1044100004E216500F08000E175401E212D1EEEC20
:1044200003F0E66E79EC11F0E552000901E18ED05F
:10443000EEEC03F0E66E24EC12F0E5527F0E146E03
:10444000550E156E166A14C0E6FF15C0E6FF16C0BD
:10445000E6FF99EC30F0E552E552E552010EE66ECA
:10446000E66EE66AC00EE66E2EEC00F0E552E5520E
:10447000E552E5526A0E146E550E156E166A14C09A
:10448000E6FF15C0E6FF16C0E6FF99EC30F0E552F6
:10449000E552E552010EE66EE66EE66A940EE66EB1
:1044A0002EEC00F0E552E552E552E552EEEC03F059
:1044B000E66EE66A550E146E550E156E166A14C039
:1044C000E6FF15C0E6FF16C0E6FF99EC30F0176E68
:1044D000050EE15E1750010EE66EE66EE66AD40E3A
:1044E000E66E2EEC00F0E552E552E552E552E66A42
:1044F00079EC11F0E552E66EE66A400E146E550E48
:10450000156E166A14C0E6FF15C0E6FF16C0E6FF7A
:1045100099EC30F0176E050EE15E1750010EE66E55
:10452000E66EE66A800EE66E2EEC00F0E552E5528D
:10453000E552E552B00EE66E040EE66ECFEC02F0E8
:10454000E552E5520101010E1B6F7AD02B0E146E5D
:10455000550E156E166A14C0E6FF15C0E6FF16C0AC
:10456000E6FF99EC30F0E552E552E552010EE66EB9
:10457000E66EE66AC00EE66E2EEC00F0E552E552FD
:10458000E552E552160E146E550E156E166A14C0DD
:10459000E6FF15C0E6FF16C0E6FF99EC30F0E552E5
:1045A000E552E552010EE66EE66EE66A940EE66EA0
:1045B0002EEC00F0E552E552E552E552CE0E146EB7
:1045C000590E156E166A14C0E6FF15C0E6FF16C038
:1045D000E6FF99EC30F0E552E552E552010EE66E49
:1045E000E66EE66AD40EE66E2EEC00F0E552E55279
:1045F000E552E552CE0E146E590E156E166A14C0B1
:10460000E6FF15C0E6FF16C0E6FF99EC30F0E55274
:10461000E552E552010EE66EE66EE66A800EE66E43
:104620002EEC00F0E552E552E552E552B00EE66E92
:10463000040EE66ECFEC02F0E552E55201011B6B71
:104640007AD0010E146E550E156E166A14C0E6FF70
:1046500015C0E6FF16C0E6FF99EC30F0E552E552D2
:10466000E552010EE66EE66EE66AC00EE66E2EECD0
:1046700000F0E552E552E552E552EC0E146E540E90
:10468000156E166A14C0E6FF15C0E6FF16C0E6FFF9
:1046900099EC30F0E552E552E552010EE66EE66E19
:1046A000E66A940EE66E2EEC00F0E552E552E55215
:1046B000E552CE0E146E590E156E166A14C0E6FF42
:1046C00015C0E6FF16C0E6FF99EC30F0E552E55262
:1046D000E552010EE66EE66EE66AD40EE66E2EEC4C
:1046E00000F0E552E552E552E552CE0E146E590E39
:1046F000156E166A14C0E6FF15C0E6FF16C0E6FF89
:1047000099EC30F0E552E552E552010EE66EE66EA8
:10471000E66A800EE66E2EEC00F0E552E552E552B8
:10472000E552B00EE66E040EE66ECFEC02F0E552F6
:10473000E55201011B6B01011B0503E118EC0AF0B6
:10474000A4D01B5103E115EC0CF09FD0020E1B5DB1
:1047500001E084D0E66A79EC11F0E552146E0F0E98
:10476000145C03E2BDEC0CF078D0D70E146E540E3E
:10477000156E166A14C0E6FF15C0E6FF16C0E6FF08
:1047800099EC30F0E552E552E552010EE66EE66E28
:10479000E66AC00EE66E2EEC00F0E552E552E552F8
:1047A000E552C20E146E540E156E166A14C0E6FF62
:1047B00015C0E6FF16C0E6FF99EC30F0E552E55271
:1047C000E552010EE66EE66EE66A940EE66E2EEC9B
:1047D00000F0E552E552E552E552CE0E146E590E48
:1047E000156E166A14C0E6FF15C0E6FF16C0E6FF98
:1047F00099EC30F0E552E552E552010EE66EE66EB8
:10480000E66AD40EE66E2EEC00F0E552E552E55273
:10481000E552CE0E146E590E156E166A14C0E6FFE0
:1048200015C0E6FF16C0E6FF99EC30F0E552E55200
:10483000E552010EE66EE66EE66A800EE66E2EEC3E
:1048400000F0E552E552E552E552B00EE66E040E78
:10485000E66ECFEC02F0E552E55217D0030E1B5D79
:1048600003E1E1EC16F011D0040E1B5D03E1BFEC97
:1048700013F00BD0050E1B5D03E188EC1DF005D095
:10488000060E1B5D02E1D5EC1FF055D7270EE15C4B
:1048900002E2E16AE552E16EE552E7CFD9FF12008C
:1048A0008CEC29F0FB0EDBCFF3FFDB06F3500009A5
:1048B0000AE0DAEC29F0FA0E45EC2AF0F3E1151CD7
:1048C000F1E1010E01D0000EBBEF29F08CEC29F0D4
:1048D0003B0EE12402E3E168E652E16E010EDB6A81
:1048E000020EDB6AF90EDBCFF6FFFA0EDBCFF7FF25
:1048F000FB0EDBCFF8FF0800F550DF6EDF5002E162
:10490000DFEF28F0250EDF5C02E0D2EF28F0030E87
:10491000DB6A040EDB6A050EDB6A060EDB6A070E35
:10492000DB6AF4EC28F02D0EDF5C0CE02B0EDF5C74
:1049300009E0200EDF5C06E0230EDF5C03E0300EB2
:10494000DF5C1AE1DF50300A14E0130A0FE0030ABB
:104950000AE00B0A05E0060AE4E1030EDB80E1D77A
:10496000030EDB82DED7030EDB84DBD7030EDB8690
:10497000D8D7030EDB88D5D72A0EDF5C1BE1F0EC1D
:1049800028F03EEC29F010E0030EDB80086809688F
:10499000130EDBCF0DF0140EDBCF0EF0C1EC2EF0BA
:1049A000040E06C0DBFF03D0130E27EC29F0F4EC55
:1049B00028F00BD0090EDB6A95EC29F003E009EC36
:1049C0002AF0FAD7090E27EC29F0030EDBB0DB98AA
:1049D0002E0EDF5C1BE1F4EC28F02A0EDF5C0BE10D
:1049E000F0EC28F03EEC29F003E1130E79EC29F00D
:1049F000F4EC28F00BD0090EDB6A95EC29F003E00B
:104A000009EC2AF0FAD7090E79EC29F0680EDF5C80
:104A100007E1F4EC28F0680EDF5C1DE1030E18D00E
:104A2000740EDF5C17E07A0EDF5C14E0480EDF5C8A
:104A300006E0540EDF5C03E05A0EDF5C02E1020E7A
:104A400007D06C0EDF5C03E06A0EDF5C04E1010E50
:104A5000CCEC29F0C9DBDF506E0A01E17FD31E0ADE
:104A600001E192D1200A01E18FD13F0A01E149D150
:104A70001A0A01E146D10D0A01E143D1200A01E100
:104A800040D13A0A01E13DD1200A01E13AD1260A9A
:104A900001E135D10D0A01E132D11A0A01E1D9D083
:104AA000200A4AE0300A1FE0460A0EE0250A01E02B
:104AB00083D3D950F90FE96EFF0EDA20EA6E010EAA
:104AC000EE5E000EEE5AEE5ADAEC29F0250EE66E96
:104AD00095DB03E1151C01E169D3D6EC29F001E275
:104AE0006BD3DB2A69D3080EDB6A040EDB500108A6
:104AF00006E2040EDB049EEC29F0DB508BDB080E93
:104B0000DB5009E0030EDB50010B05E172DB01E035
:104B10004DD3080EDB6A64DBEFCFDFFF4EEC2AF0EB
:104B200003E1151C01E142D3D6EC29F001E3DB2AB5
:104B300060DB01E141D33AD3070EDB5002080FE1FD
:104B40001AEC2AF0030EE1EC29F00E0EEECFDBFF9B
:104B50000F0EEECFDBFF100EEECFDBFF20D0F70EF7
:104B6000DBCF17F0F80EDBCF18F0020E175E000E49
:104B7000185AF70E17C0DBFFF80E18C0DBFF17C07E
:104B8000E9FF18C0EAFFD1EC29F0166A0E0E14C036
:104B9000DBFF0F0E15C0DBFF100E16C0DBFF0E0E85
:104BA000DBCFE6FF0F0EDBCFE6FF100EDBCFE6FF1D
:104BB00074EC30F0E552E552E552130E07C0DBFF0E
:104BC000140E08C0DBFF060EDB5005E0130E15ECDB
:104BD0002AF001E26ADB39EC2AF002E2130E37DB3D
:104BE000FCEC29F006E0040E15EC2AF002E2050EBA
:104BF0002EDB030EDBB005D0FCDA01E0D7D2080EC5
:104C0000DB6A090EDB6A0E0EDBCFF6FF0F0EDBCF81
:104C1000F7FF100EDBCFF8FF0800F550DF6EDF5016
:104C200014E03FEC2AF011E24EEC2AF003E1151CEF
:104C300001E1BCD2BBDB01E3DB2A090EDB2AD95040
:104C40000E0FE96E000ECBDBE7D7D3DA01E1B4D269
:104C5000ADD2C6DA110EEECFDBFF120EEDCFDBFFC9
:104C6000110EDBCFE6FF120EDBCFE6FF66EC30F075
:104C7000E552E552130EF3CFDBFF140EF4CFDBFF4A
:104C8000060EDB5004E0130ED0DB01E20EDB39EC44
:104C90002AF002E2130EDBDAAFDB05E0040EC5DB1F
:104CA00002E2050ED4DA030EDBB005D0A2DA01E091
:104CB0007DD2080EDB6A090EDB6A110EDBCFE9FF3D
:104CC000120EDBCFEAFFEFCFDFFFDF5014E0D7DBC0
:104CD00012E2E4DB03E1151C01E168D267DB01E3CA
:104CE000DB2A090EDB2A110EDB2ADBCFE9FF120ECD
:104CF000E8E3DB2AE6D77DDA01E15ED257D2030E84
:104D0000DB8E070EDB0410E195DB040E5ADB0A0E86
:104D1000EECFDBFF0B0EEECFDBFF0C0EEECFDBFF9B
:104D20000D0EEECFDBFF6CD0070EDB5003082CE13D
:104D3000030EDBAE0DD0B2DA020E76DAEFCF14F04E
:104D4000156A166A176A14AE39D01568166835D018
:104D5000F70EDBCF15F0F80EDBCF16F0020E155E66
:104D6000000E165AF70E15C0DBFFF80E16C0DBFF5B
:104D700015C0E9FF16C0EAFFEFCF14F00A0E14C009
:104D8000DBFF0B0EDB6A38D0070EDB50020809E1AF
:104D9000030EDBAE04D059DB16AE10D00ED055DBBF
:104DA0000DD0030EDBAE12D079DA020E3DDAF9DA5D
:104DB000166A176A15AE02D016681768E2DA0C0E8A
:104DC00016C0DBFF0D0E17C0DBFF1AD0F70EDBCFCE
:104DD00016F0F80EDBCF17F0020E165E000E175A13
:104DE000F70E16C0DBFFF80E17C0DBFF16C0E9FF99
:104DF00017C0EAFFD6DAC5DA0C0EDB6A0D0EDB6AE5
:104E0000060EDB5005E1010EF36E050EF3CFDBFF5E
:104E1000150EDB6A160EDB6AD950370F146E000EC2
:104E2000DA20156E390E14C0DBFF3A0E15C0DBFF19
:104E3000380EDB6A080EDB6A0A0EAEDADF50780A3B
:104E400012E0200A10E0280A0CE0200A0AE03F0ADB
:104E500006E00D0A02E0200A08E1020E05D0080E65
:104E600003D0080EDF26100E97DA030EDBBE02D049
:104E7000DB92DB94DB50800B24E08ADAD890030EBF
:104E8000EB50000A08E6000EEE5C000EEE58000E35
:104E9000EE58000EEE5815E213DA0B680C680D6838
:104EA0000E6862EC31F00A0E02C0DBFF0B0E03C08D
:104EB000DBFF0C0E04C0DBFF0D0E05C0DBFF2D0E6B
:104EC00008D0030EDBA202D02B0E03D0DBA408D047
:104ED000200EF36E170EF3CFDBFF150EDB2A02D088
:104EE000170EDB6A050EDB5003E1B7D901E189D06B
:104EF000220E146E660E156E000E166E070EDBCFB8
:104F000017F0186A196A1A6A17C00BF018C00CF06B
:104F100019C00DF01AC00EF0D3D9F8EC31F01450CE
:104F20000224F36E15500320F46E16500420F86E20
:104F3000F4CFF7FFF3CFF6FF0800090EF5CFDBFF44
:104F4000580EDF5C0FE1610EF36E090E7BD90AE3A8
:104F5000200E146E090EDBCFE7FF1450E75E090E3A
:104F6000E7CFDBFF070EDBCF14F0156A166A176A6E
:104F70000FDA14C00BF015C00CF016C00DF017C0FE
:104F80000EF0EECF06F0EECF07F0EECF08F0EFCF49
:104F900009F0F8EC31F009C0EDFF08C0EDFF07C0E3
:104FA000EDFF06C0EFFF390EDBCFE9FFDB063A0E5F
:104FB000DBCFEAFF01E2DB06090EDBCFEFFF150EC8
:104FC000DB2A4BD995E1030EDBA61DD06F0EDF5C0B
:104FD00006E1C1D918E3150EDB285BDA14D0780E90
:104FE000DF5C09E0580EDF5C06E0620EDF5C03E088
:104FF000420EDF5C08E1020EF36E160EF3CFDBFF0C
:1050000002D0150EDB6A030EDB50100B0EE0040E0F
:10501000DBCF14F0050EDB50D880145406E2060EE8
:10502000DB5003E1040EDB5034DA95D90AE2050EB9
:10503000DBCFE7FF150EDB50E75E050EE7CFDBFFAA
:1050400002D0050EDB6A040EDBCF14F0160E45D934
:10505000D880145414E2160EDBCFE6FF150EDBCF1A
:10506000E6FF040EDBCFE6FF050EDB50E552E75C02
:10507000E552D880E754E552D880E7545FD9030E53
:10508000DB50010B0BE1080EDB5008E0B2D801E069
:105090008DD0080EDB50BED8080EDB6A170EDB5031
:1050A00007E088D9170EF1D903E1151C01E17ED084
:1050B000160EDB5016E07ED9300EE66E9FD802E168
:1050C000151C74E077D9DFCFE6FFE5EC30F0E55250
:1050D000E552E552F4CF15F00001F31C02E1151C76
:1050E00065E0050EDBCF14F0160EDB50D8801454AB
:1050F00009E2050EDBCFE7FF160EDB50E75E050E7B
:10510000E7CFDBFF300EE66E050ECBD94FE1390E4F
:10511000DB2ADBCFE9FF3A0E01E3DB2ADBCFEAFF34
:10512000090EEFCFDBFFDB500EE044D9090EADD9FD
:1051300002E1151C3BE0390EDB2ADBCFE9FF3A0E1A
:10514000EDE3DB2AEBD755D831E1160EDBCFE6FFD6
:10515000080EC3D8E552E7245DD82ED0070EDB50E9
:10516000030A1CE0010A14E0030A07E07BD9DBCF45
:10517000EEFF020EDBCFEDFF1FD0F5D8196A17AE98
:1051800002D0186819682CD8BCD819C0EEFF14D00A
:10519000EAD817BE186824D8B4D80ED063D9DBCFAC
:1051A000EFFF0AD07BD905E1151C03E1F368F46831
:1051B00010D0FCD801E3DB2A79D97BEF24F0010E73
:1051C000DBCF14F0020EDBCF15F014C0F3FF15C0D7
:1051D000F4FF3B0EE15C02E2E16AE552E16ECBD006
:1051E00029D9020EE1EF29F061D90800F550DF6EF0
:1051F0001200200EE66E080E51EF2AF0E5EC30F0BA
:10520000E552E552E552F3CF14F0F4CF15F000016A
:10521000F31C1200146E156AD950010F4DD91450A9
:10522000EE261550ED221200185E000E195AF70EE8
:1052300018C0DBFFF80E19C0DBFF18C0E9FF19C06A
:10524000EAFF1200DBCFF4FFF350F45C1200DB50F6
:10525000E76E040EE7CFDBFF12000A0EDBCF14F07F
:105260000B0EDBCF15F00C0EDBCF16F00D0EDBCFE7
:1052700017F014501510161017101200130EEECF61
:10528000DBFF140EEDCFDBFF130EDBCF14F0140E9B
:10529000DBCF15F00001800E15141200F70EDBCFE6
:1052A00018F0F80EDBCF19F01200050EDB50E66E99
:1052B000D950130F01D9E552E750EE6EED6A120096
:1052C0000A0EDBCF06F00B0EDBCF07F00C0EDBCFA8
:1052D00008F00D0EDBCF09F01200DBCFE6FF150E54
:1052E000DBCFE6FF050EDB50E552E724E552E7246D
:1052F0001200DB50CED8010EF36E060EF3CFDBFFAB
:105300001200EE50EFCFEAFFE96E16C0EEFF17C0B5
:10531000EEFF18C0EEFF1200D9CFE6FFDACFE6FFAE
:10532000E1CFD9FFE2CFDAFF1200DFCFE6FFE66A76
:10533000BAEC32F0E552E552F3501200E76E080E77
:10534000E7CFDBFF1200EECF14F0EECF15F0EFCF7A
:1053500016F0176A1200050EDBCF14F0150EDB50A5
:10536000D88014541200010EDBCF16F0020EDBCFF2
:1053700017F0186A1200E552E5CFDAFFE7CFD9FF40
:1053800012000A0E14C0DBFF0B0E15C0DBFF12006B
:10539000D9500A0F5CEF2AF0F36E070EF3CFDBFF54
:1053A0001200EECF14F0EFCF15F01200010EDB2A41
:1053B000020E1200FC0EDBCFE6FFFD0EDBCFE6FF98
:1053C0001200145E000E155AF70E14C0DBFFF80E23
:1053D00015C0DBFF14C0E9FF15C0EAFF1200DA2098
:1053E000EA6EEF2AEECFF6FF000EEF22EECFF7FFC8
:1053F000EF22EECFF8FF1200040EDBCFE6FF130E14
:10540000DB50E552E75C9ADFDB5004DF060EDB5031
:105410001200090EDB500A0DF350DF24D00FE76EA7
:10542000090EE7CFDBFFF4EF28F0DB50F36E050E3B
:1054300022EF29F0F70EDBCF14F0F80EDBCF15F0DA
:105440001200DFCFE6FFFEEF28F028DF030EECDED0
:10545000A3EF29F050EC24F0E552E552E552E55275
:1054600000091200BDDEEE50EFCFEAFFE96E010E3B
:105470001200130EDB50F36E040E22EF29F0040E1F
:10548000DB50F36E090E22EF29F0DBCFE6FFFEEFD3
:1054900028F0E76E050EE7CFDBFF12008BDF21EF70
:1054A0002AF0DBCFE6FF86DF2AEF2AF0D950F90F8A
:1054B000E96EFF0EEFEF29F0E96E000EDA20EA6EDA
:0254C0001200D8
:0E54C2006D656774656C742E204D6178203125
:1054D000352E2020202000486962613A204D656DFC
:1054E0006F72696120202020202020006572746581
:1054F0006B656C6865746F20616461742120202085
:1055000000486962613A20456570726F6D2C206EAB
:10551000696E637320006E696E637320762E206857
:105520006962617320616461742100486962613A53
:10553000204D656D6F7269612C206D6567202000BC
:105540004F73737A2070726F66696C3A205B2569BD
:105550005D2020200050726F66696C3A205B2569DF
:105560005D20202020202020200070726F66696C52
:10557000206265746F6C746573652E2E2E20005545
:10558000746F6C736F20656C6D656E7465747420D8
:105590002020200020205645525A494F20535A417E
:1055A0004D3A20312E3020200020464F5252415398
:1055B0005A544F20414C4C4F4D4153202000202045
:1055C00020463237535A455256495A2E48552020C4
:1055D000202000445054502053595354454D2031FD
:1055E000342720352030310048757465733A202502
:1055F00030336925632020202020202000257320BF
:10560000202020202020202020202020202020209A
:105610002000546F7661626269206F7063696F3A2F
:105620002053544F50200025692E205B25303369CC
:1056300025635D20205B25303369735D20202000C9
:105640002020203430783430202020353078353018
:105650002020200020202020203420202020202056
:105660002035202020202000313078313020203299
:105670003078323020203330783330002020312011
:105680002020202020322020202020203320200015
:105690005B4D656E755D2020202020202020205B42
:1056A000362D3E5D00253032692E2055726573001F
:1056B000253032692E25730061646174626C6F63FA
:1056C0006B212020202020202020202000486962FB
:1056D000613A20457276656E7974656C656E20203E
:1056E000200025732563202020202020202020203A
:1056F00020202020202000666F6C79616D6174622B
:10570000616E2E2E2E2E20202020200050726F66DB
:10571000696C206265746F6C74657365202020204D
:1057200000416461746F6B20656C6D656E747665A5
:10573000212020202000486962613A4D696E2033A3
:10574000206B6172616B746572210050726F6669C3
:105750006C6E6576207461726F6C7661212020001A
:10576000486962613A204E656D20737A616D21202F
:105770002020202000486962613A2031203C2D3EE3
:1057800020323535202020202000416461742065BE
:105790006C7461726F6C76612120202020200034AF
:1057A0002E2050726F6772616D20202020202020F3
:1057B00020202000332E2050726F66696C6F6B20A2
:1057C0006C697374616A612000322E20416B742E03
:1057D0002070726F662E20737A65726B2E00312EE8
:1057E00020556A2070726F66696C20686F7A7A61E2
:1057F000616400546F7661626269206F7063696FE3
:105800003A204D454E55200050726F6720696E64F6
:1058100069746173613A2053544152540025692ED2
:105820002025303369256320253033696D702020B1
:1058300020202020200025692E2025303369256373
:1058400020253033696D702020202020200025691C
:105850002E20416C736F2066757465733A20253075
:10586000336925632000257300486962613A20701E
:10587000726F66696C7465787428292020005072F4
:105880006F66696C206C65747265686F7A766121E9
:10589000212100416C736F2066757465733A202076
:1058A00020202020202020004B696675746F20691D
:1058B000646F3A202020202020202020004B6966A1
:1058C00075746F20686F666F6B3A2020202020204F
:1058D000200050726F6772616D2069646F20353AE5
:1058E00020202020202000486F666F6B20353A2052
:1058F00020202020202020202020200050726F67B0
:1059000072616D2069646F20343A202020202020AD
:1059100000486F666F6B20343A2020202020202022
:1059200020202020200050726F6772616D20696412
:105930006F20333A20202020202000486F666F6BB4
:1059400020333A202020202020202020202020004A
:1059500050726F6772616D2069646F20323A202047
:105960002020202000486F666F6B20323A202020D4
:10597000202020202020202020004B657A646F20EA
:1059800069646F3A20202020202020202020004B16
:10599000657A646F20686F666F6B3A202020202044
:1059A0002020200050726F66696C206E65763A2068
:1059B0002020202020202020007E5B25635D2020E9
:1059C00020202020202020202020202020002020F7
:1059D00020202020202020202020202020202020C7
:0359E00020200084
:0C59E400019E05D0019E09AE02D0096CA6
:1059F000018E09C003F0026A136A126A860E046EF1
:105A0000056A57EF2EF0019E08D0019E09AE05D021
:105A1000086C091EE86A0922018E09C003F008C05B
:105A200002F0136A126A8E0E046E056A57EF2EF0AA
:105A3000016A93EC2EF0ABEC2EF001B63BEF2EF0AA
:105A400001A205D001BA3BEF2EF042EF2EF001BAD1
:105A50004EEF2EF001A005D001B83BEF2EF04EEF37
:105A60002EF001B842EF2EF0056A7F0E0A24046E74
:105A7000E86A05220F50045EE86A055A1A0E106E95
:105A80000A6A126A136A026A036A0C50075E0D50B2
:105A9000085A0E50095A000E0A5A09E70C500726F8
:105AA0000D5008220E500922000E0A2201D0128A3F
:105AB000D8900736083609360A36D890123613368B
