:020000040000FA
:060000004DEF2EF012008E
:020006001200E6
:06000800CEEF1AF0120019
:02000E00FEFFF3
:06001800CEEF1CF0120007
:02001E000200DE
:10002000155D0000000100009D0000000E000000B2
:08003000B00100000200000015
:08003800020EE66E77EC2EF0DB
:10004000E5528C84020EE66E77EC2EF0E5528C942D
:10005000010EE66E77EC2EF0E5521200D9CFE6FFE6
:10006000E1CFD9FF020EE126FC0EDB501BE08C90A5
:100070009588958A958C958E8C828C84020EE66E7E
:1000800077EC2EF0E5528350800B01E0010EDF6E1D
:100090008C94020EE66E77EC2EF0E552CDDFDF5049
:1000A000ECE105D00C0EE66EEEEC2DF0E5529598E5
:1000B000959A959C959EFD0EDB5002E08C8001D0B8
:1000C0008C908C92FE0EDB50F00BE76E010EE7CFAA
:1000D000DBFFDBCFE6FF0F0E8C14E552E7108C6ED2
:1000E000ABDFFB0EDB500FE0FE0EDB500F0B100DF5
:1000F000010EF3CFDBFFDBCFE6FF0F0E8C14E552D2
:10010000E7108C6E99DF020EE15C02E2E16AE552D3
:10011000E16EE552E7CFD9FF12009598959A959C2C
:10012000959E8C948C908C923C0EE66EEEEC2DF0AD
:10013000E552E66AE66AE66A300EE66E8FDFE55261
:10014000E552E552E552060EE66EEEEC2DF0E55274
:10015000E66AE66AE66A300EE66E80DFE552E55250
:10016000E552E552E66AE66AE66A300EE66E76DF4A
:10017000E552E552E552E552E66AE66AE66A200E85
:10018000E66E6CDFE552E552E552E552010EE66E91
:10019000E66AE66A280EE66E61DFE552E552E55250
:1001A000E552010EE66EE66EE66A080EE66E56DF72
:1001B000E552E552E552E552010EE66EE66EE66A5C
:1001C000E66E4CDFE552E552E552E552010EE66E71
:1001D000E66EE66A0C0EE66E41DFE552E552E55248
:1001E000E5520101B069B1691200D9CFE6FFE1CF54
:1001F000D9FF010EE66EE66EE66EFE0EDBCFE6FF81
:100200002DDFE552E552E552E552E552E7CFD9FF41
:100210001200D9CFE6FFE1CFD9FFE652AAC1F6FF1F
:10022000ABC1F7FF0800F550DF6EDF5004E0DFCF11
:10023000E6FFDBDFE5520101AAC1F6FFABC1F7FF24
:10024000AA2B000EAB23DF50E9E1E552E552E7CFE0
:10025000D9FF1200D08EF28EF29CF184D59ED59CEF
:10026000D59AD598D596D584D582D580F29E1200A0
:10027000D08EF29EF28CF194D59ED59CD59AD598CD
:10028000D596D584D582D580F29E1200926A806A76
:10029000956A836A0F0E936E816A966A846A946A7D
:1002A000826A070EC16E39DF0101B069B169D2DF20
:1002B00094928B828B80949A94969488C79EC78CD4
:1002C000C790C69EC69CC68AC698C690C682C6946B
:1002D000C6961200D9CFE6FFE1CFD9FF020EE12684
:1002E000DE6ADD6ADE6ADD6ADECF14F0DDCF15F08E
:1002F000FD0EDBCF16F0FE0EDBCF17F01450165CB0
:10030000155017580AE30A0EE66E2DEC2EF0E55252
:10031000DF2A010E01E3DB2AE7D7020EE15C02E2ED
:10032000E16AE552E16EE552E7CFD9FF1200D9CF7D
:10033000E6FFE1CFD9FF3D0EE66EBBEC2DF0E552B6
:10034000E668D6EC2DF0E552FD0EDBCF06F0FE0E92
:10035000DBCF07F0080E061801E107506EE0070E2C
:10036000061801E1075060E0060E061801E107508B
:1003700052E0050E061801E1075044E0040E06188D
:1003800001E1075036E0030E061801E1075028E0AE
:10039000020E061801E107501AE0010E061801E1ED
:1003A00007500DE0065001E1075001E04ED0000E6D
:1003B000E66EE66A4AEC2DF0E552E5524DD0CD0EE0
:1003C000E66EE66A4AEC2DF0E552E55245D05E0E47
:1003D000E66E010EE66E4AEC2DF0E552E5523CD099
:1003E000260EE66E020EE66E4AEC2DF0E552E55260
:1003F00033D08A0EE66E020EE66E4AEC2DF0E55220
:10040000E5522AD0EE0EE66E020EE66E4AEC2DF0B4
:10041000E552E55221D0520EE66E030EE66E4AEC2E
:100420002DF0E552E55218D0B60EE66E030EE66EDC
:100430004AEC2DF0E552E5520FD0E668030EE66E69
:100440004AEC2DF0E552E55207D0000EE66EE66A62
:100450004AEC2DF0E552E552E552E7CFD9FF120004
:10046000010EE66EE66EE66AE66EF8DDE552E552EE
:10047000E552E5521200D9CFE6FFE1CFD9FFE652AF
:10048000A96AA69EA69CA680A850DF6EDF5000D069
:10049000E552E552E7CFD9FF1200D9CFE6FFE1CF11
:1004A000D9FFA96AFE0EDB50A86EA69EA69CA68464
:1004B000F29E550EA76EAA0EA76EA682A6B2FED712
:1004C000F28EA694E552E7CFD9FF1200D9CFE6FF0E
:1004D000E1CFD9FFE652C790C69EC950DF6EFE0E2F
:1004E000DB50C96EC7A0FED7C95000D0E552E55217
:1004F000E7CFD9FF1200D9CFE6FFE1CFD9FF020E37
:10050000E1268B92050EE66EE1DFE552E66ADEDF5C
:10051000E552DE6EDD6A8B82DF50010BF2E1020EE6
:10052000E15C02E2E16AE552E16EE552E7CFD9FF14
:100530001200D9CFE6FFE1CFD9FF020EE126DBDFC3
:100540008B92060EE66E9DEC2DF0E5528B82010E2D
:10055000E66EE66ABFDEE552E5528B92020EE66E6B
:10056000B5DFE552FE0EDBCFE6FFB0DFE552FD0E54
:10057000DBCFE6FFABDFE552DF6A200EDF5C0FE288
:10058000FB0EDBCFE9FFDB2AFC0EDBCFEAFF01E34A
:10059000DB2AEF50E66E9ADFE552DF2AEED78B8238
:1005A000020EE15C02E2E16AE552E16EE552E7CF5C
:1005B000D9FF1200D9CFE6FFE1CFD9FFE6529BDF8A
:1005C0008B92030EE66E82DFE552FE0EDBCFE6FF76
:1005D0007DDFE552FD0EDBCFE6FF78DFE552DF6A17
:1005E000200EDF5C12E2E66A71DFE552E66EFB0E7A
:1005F000DBCFE9FFDB2AFC0EDBCFEAFF01E3DB2ADE
:10060000E552E750EF6EDF2AEBD78B82E552E552D9
:10061000E7CFD9FF1200D9CFE6FFE1CFD9FF040E13
:10062000E126010EDB6ADF6A050EDF5C6CE2DFCFDC
:10063000E6FF70EC19F0E552010EDB5002E0010E0E
:10064000DB2A81A010D0FE0EDB5007E0010EDBCFCD
:10065000E6FFC4D8E55259D006D0010EDBCFE6FF45
:1006600060D8E55252D0030EE66EE66A33DEE552FC
:10067000E552010EDB2A81A210D0FE0EDB5007E00E
:10068000010EDBCFE6FFAAD8E5523FD006D0010E1F
:10069000DBCFE6FF46D8E55238D0030EE66EE66AB9
:1006A00019DEE552E552010EDB2A81A410D0FE0EC0
:1006B000DB5007E0010EDBCFE6FF90D8E55225D0F6
:1006C00006D0010EDBCFE6FF2CD8E5521ED0030E7C
:1006D000E66EE66AFFDDE552E552010EDB2A81A6F1
:1006E00010D0FE0EDB5007E0010EDBCFE6FF76D820
:1006F000E5520BD006D0010EDBCFE6FF12D8E55253
:1007000004D0DF2A91D7FF0E00D0146E040EE15CF6
:1007100002E2E16AE552E16E1450E552E7CFD9FFFB
:100720001200D9CFE6FFE1CFD9FFE65281A010D069
:1007300081B0FED7FE0EDB50050DF3CFE9FFF4CFFD
:10074000EAFF340EE926010EEA22EFCFDFFF35D0B3
:1007500081A210D081B2FED7FE0EDB50050DF3CF83
:10076000E9FFF4CFEAFF340EE926010EEA22EFCFCB
:10077000DFFF23D081A410D081B4FED7FE0EDB5062
:10078000050DF3CFE9FFF4CFEAFF340EE926010EA1
:10079000EA22EFCFDFFF11D081A60FD081B6FED7BE
:1007A000FE0EDB50050DF3CFE9FFF4CFEAFF340E68
:1007B000E926010EEA22EFCFDFFF0A0EE66EE66AB7
:1007C000010EE66E49EC19F0E552E552E552DF50B4
:1007D00000D0E552E552E7CFD9FF1200D9CFE6FFAE
:1007E000E1CFD9FF030EE126320EDF6E010EDB6A88
:1007F00081A0E3D0FE0EDB5001E1CED0FE0EDB5037
:10080000040801E1C9D0FE0EDB50100801E1C4D09C
:100810008150080B01E0010E156E8150040B01E0C0
:10082000010E146E8150020B01E0010E1410151020
:1008300001E0B1D081A0A4D081B0FED70101490E62
:10084000AA6F4E0EAB6FE5DC010EE66EE66EE66A51
:10085000C00EE66E2EEC00F0E552E552E552E55290
:10086000FE0EDB50050DF3CF14F0F4CF15F0340E6F
:100870001426010E1522010EDB500F011424E96E1F
:10088000000E1520EA6EEF50E66EE66ABA0E166E9E
:10089000570E176E186A16C0E6FF17C0E6FF18C09D
:1008A000E6FF84EC2CF0196E050EE15E1950010E86
:1008B000E66EE66EE66A940EE66E2EEC00F0E55209
:1008C000E552E552E552FE0EDB50050DF3CF14F074
:1008D000F4CF15F0340E1426010E152214C0E6FFD5
:1008E00015C0E6FFA50E166E570E176E186A16C0D5
:1008F000E6FF17C0E6FF18C0E6FF84EC2CF0196E87
:10090000050EE15E1950010EE66EE66EE66AD40E43
:10091000E66E2EEC00F0E552E552E552E55201019B
:100920008C0EAA6F4D0EAB6F74DC010EE66EE66E98
:10093000E66A800EE66E2EEC00F0E552E552E552D6
:10094000E552FE0EDB50050DF3CF14F0F4CF15F099
:10095000340E1426010E1522010EDB500F01142453
:10096000E96E000E1520EA6E020EEFCFDBFF010EDE
:10097000DB50030803E1010EDB6A02D0010EDB2A23
:100980003C0EE66EE66AA6DCE552E552DF50DF0675
:10099000000901E03DD710D081B0FED7FE0EDB503C
:1009A000050DF3CFE9FFF4CFEAFF340EE926010E7F
:1009B000EA22020EEFCFDBFFD0D181A2DAD0FE0E09
:1009C000DB0401E1C5D08150080B01E0010E156E7A
:1009D0008150040B01E0010E146E8150010B1410C4
:1009E000151001E0B4D081A2A6D081B2FED70101DA
:1009F000490EAA6F4E0EAB6F09EC01F0010EE66EC8
:100A0000E66EE66AC00EE66E2EEC00F0E552E552A8
:100A1000E552E552FE0EDB50050DF3CF14F0F4CF96
:100A200015F0340E1426010E1522010EDB500F01B5
:100A30001424E96E000E1520EA6EEF50E66EE66AA9
:100A4000BA0E166E570E176E186A16C0E6FF17C05C
:100A5000E6FF18C0E6FF84EC2CF0196E050EE15E8F
:100A60001950010EE66EE66EE66A940EE66E2EEC06
:100A700000F0E552E552E552E552FE0EDB50050D61
:100A8000F3CF14F0F4CF15F0340E1426010E152216
:100A900014C0E6FF15C0E6FFA50E166E570E176EC2
:100AA000186A16C0E6FF17C0E6FF18C0E6FF84EC20
:100AB0002CF0196E050EE15E1950010EE66EE66E21
:100AC000E66AD40EE66E2EEC00F0E552E552E552F1
:100AD000E55201018C0EAA6F4D0EAB6F09EC01F0CF
:100AE000010EE66EE66EE66A800EE66E2EEC00F013
:100AF000E552E552E552E552FE0EDB50050DF3CF0F
:100B000014F0F4CF15F0340E1426010E1522010E48
:100B1000DB500F011424E96E000E1520EA6E020E60
:100B2000EFCFDBFF010EDB50030803E1010EDB6AB0
:100B300002D0010EDB2A3C0EE66EE66A6AEC01F09A
:100B4000E552E552DF50DF06000901E03CD710D046
:100B500081B2FED7FE0EDB50050DF3CFE9FFF4CFD7
:100B6000EAFF340EE926010EEA22020EEFCFDBFF88
:100B7000F4D081A4E0D0FE0EDB50020801E1CAD01F
:100B8000FE0EDB50120801E1C5D08150080B01E0D8
:100B9000010E156E8150020B01E0010E146E8150A2
:100BA000010B1410151001E0B4D081A4A6D081B4BB
:100BB000FED70101490EAA6F4E0EAB6F09EC01F092
:100BC000010EE66EE66EE66AC00EE66E2EEC00F0F2
:100BD000E552E552E552E552FE0EDB50050DF3CF2E
:100BE00014F0F4CF15F0340E1426010E1522010E68
:100BF000DB500F011424E96E000E1520EA6EEF5051
:100C0000E66EE66ABA0E166E570E176E186A16C0B2
:100C1000E6FF17C0E6FF18C0E6FF84EC2CF0196E63
:100C2000050EE15E1950010EE66EE66EE66A940E60
:100C3000E66E2EEC00F0E552E552E552E552FE0E6E
:100C4000DB50050DF3CF14F0F4CF15F0340E14265D
:100C5000010E152214C0E6FF15C0E6FFA50E166EA4
:100C6000570E176E186A16C0E6FF17C0E6FF18C0C9
:100C7000E6FF84EC2CF0196E050EE15E1950010EB2
:100C8000E66EE66EE66AD40EE66E2EEC00F0E552F5
:100C9000E552E552E55201018C0EAA6F4D0EAB6F85
:100CA00009EC01F0010EE66EE66EE66A800EE66E75
:100CB0002EEC00F0E552E552E552E552FE0EDB5017
:100CC000050DF3CF14F0F4CF15F0340E1426010EF9
:100CD0001522010EDB500F011424E96E000E1520C1
:100CE000EA6E020EEFCFDBFF010EDB50030803E1DB
:100CF000010EDB6A02D0010EDB2A3C0EE66EE66ACC
:100D00006AEC01F0E552E552DF50DF06000901E030
:100D10003CD710D081B4FED7FE0EDB50050DF3CFCB
:100D2000E9FFF4CFEAFF340EE926010EEA22020EB3
:100D3000EFCFDBFF12D081A610D081B6FED7FE0E1A
:100D4000DB50050DF3CFE9FFF4CFEAFF340EE926BF
:100D5000010EEA22020EEFCFDBFF0A0EE66EE66A14
:100D6000010EE66E49EC19F0E552E552E552020E2D
:100D7000DB50146E030EE15C03E200D0E16AE55241
:100D8000E16E1450E552E7CFD9FF1200D9CFE6FF4C
:100D9000E1CFD9FF040EE126DE6ADD6A020EDB6ACE
:100DA000030EDB6AFD0EDBCF14F0FE0EDBCF15F079
:100DB000DE501424E96EDD501520EA6EEF5032E06B
:100DC000FD0EDBCF15F0FE0EDBCF16F0DE50152446
:100DD000E96EDD501620EA6EEFCF14F0300E145C91
:100DE0001AE3FD0EDBCF17F0FE0EDBCF18F0DE505E
:100DF0001724E96EDD501820EA6EEF5039080BE336
:100E0000010EF36E020EF3CFDBFF030EDB6ADF2A67
:100E1000010E07E305D0020EDB6A030EDB6A02D087
:100E2000DB2AC0D7020EDBCF14F0030EDBCF15F0A8
:100E300014C0F3FF15C0F4FF00D0040EE15C02E221
:100E4000E16AE552E16EE552E7CFD9FF1200D9CF52
:100E5000E6FFE1CFD9FF070EE126DE6ADD6A020E6A
:100E6000DB6A030EDB6A010EF36E040EF3CFDBFFC9
:100E7000050EDB6A30EC02F0E66A0BEC03F0E5529B
:100E8000E76E060EE7CFDBFFDB50650805E10101E9
:100E9000050EAF6F01D107D0060EDB50730803E1DA
:100EA0000101AF6BF9D051EC14F0F3CF14F0F4CF93
:100EB00015F014C0E6FF15C0E6FF000EE66E010E49
:100EC000E66E9B0E166E570E176E186A16C0E6FF7A
:100ED00017C0E6FF18C0E6FF84EC2CF0196E070E71
:100EE000E15E1950010EE66EE66EE66AC00EE66E31
:100EF0002EEC00F0E552E552E552E552DECF14F05B
:100F0000DDCF15F0140E0B6E0C6A14C006F015C080
:100F100007F005EC2EF002C014F003C015F01450D9
:100F2000151001E079D0020EDBCF16F0030EDBCFF7
:100F300017F00C0E165C000E17586EE2010EE76EED
:100F4000020EDBCFE9FF030EDBCFEAFFE750E92615
:100F5000000EEA22010ED890E936EA36E806FBE1F7
:100F60000F0EE926010EEA22EECFE6FFEFCFE6FFF5
:100F7000DF0EE66EE66A020EDBCFE9FF030EDBCF83
:100F8000EAFF010ED890E936EA36E806FBE10F0EDB
:100F9000E926010EEA22EECFE6FFEFCFE6FF040ED0
:100FA000DBCFE6FF050EDBCFE6FF830E146E570E98
:100FB000156E166A14C0E6FF15C0E6FF16C0E6FF00
:100FC00084EC2CF0176E0B0EE15E1750040EDBCF95
:100FD00014F0050EDBCF15F0060E145C000E15584C
:100FE00010E2020EDB2A030E01E3DB2A020EDB2AEB
:100FF000030E01E3DB2A040EDB2A050E01E3DB2AE4
:101000000BD0020EDB6A030EDB6A010EF36E040ED8
:10101000F3CFDBFF050EDB6A010EE66EE66EE66AD5
:10102000940EE66E2EEC00F0E552E552E552E552E4
:1010300001015E0EAA6F4E0EAB6F09EC01F0010EBE
:10104000E66EE66EE66AD40EE66E2EEC00F0E55231
:10105000E552E552E5520101730EAA6F4E0EAB6FD9
:1010600009EC01F0010EE66EE66EE66A800EE66EB1
:101070002EEC00F0E552E552E552E552DF2A010E72
:1010800001E3DB2A140EE66EE66A6AEC01F0E55233
:10109000E552BDEC19F0F0D6070EE15C02E2E16A20
:1010A000E552E16EE552E7CFD9FF1200D9CFE6FF56
:1010B000E1CFD9FF020EE126010EDB6AE66A0BECF6
:1010C00003F0E552DF6E310EDF5C05E10101020E37
:1010D000AF6FDFD030D0320EDF5C05E10101030ECF
:1010E000AF6FD7D028D0330EDF5C05E10101040ECD
:1010F000AF6FCFD020D0340EDF5C05E10101010ECF
:10110000AF6FC7D018D0790EDF5C05E10101070E83
:10111000AF6FBFD010D06A0EDF5C03E0620EDF5C01
:101120000AE1010EDB5002E1010E01D0000EE76E74
:10113000010EE7CFDBFF010EDB504FE130EC02F098
:101140000101880EAA6F4E0EAB6F09EC01F0010E83
:10115000E66EE66EE66AC00EE66E2EEC00F0E55234
:10116000E552E552E55201019D0EAA6F4E0EAB6F9E
:1011700009EC01F0010EE66EE66EE66A940EE66E8C
:101180002EEC00F0E552E552E552E5520101B20EB7
:10119000AA6F4E0EAB6F09EC01F0010EE66EE66E23
:1011A000E66AD40EE66E2EEC00F0E552E552E5520A
:1011B000E5520101C70EAA6F4E0EAB6F09EC01F0AC
:1011C000010EE66EE66EE66A800EE66E2EEC00F02C
:1011D000E552E552E552E55251D0010EDB044EE1F5
:1011E00030EC02F00101DC0EAA6F4E0EAB6F09EC81
:1011F00001F0010EE66EE66EE66AC00EE66E2EECBB
:1012000000F0E552E552E552E55201018C0EAA6F5D
:101210004D0EAB6F09EC01F0010EE66EE66EE66A6C
:10122000940EE66E2EEC00F0E552E552E552E552E2
:1012300001018C0EAA6F4D0EAB6F09EC01F0010E8F
:10124000E66EE66EE66AD40EE66E2EEC00F0E5522F
:10125000E552E552E5520101F10EAA6F4E0EAB6F59
:1012600009EC01F0010EE66EE66EE66A800EE66EAF
:101270002EEC00F0E552E552E552E552140EE66E12
:10128000E66A6AEC01F0E552E552BDEC19F08C76A5
:1012900015D7020EE15C02E2E16AE552E16EE55229
:1012A000E7CFD9FF1200D9CFE6FFE1CFD9FF3E0E3D
:1012B000E126DF6AD950010FE96EDACFEAFFEE6A64
:1012C000EE6AEE6AEE6AEE6AEE6AEE6AEE6AEE6A5E
:1012D000EE6AEE6AEE6AEE6AEE6AEE6AEE6AEE6A4E
:1012E000EE6AEE6AEE6AEE6AEE6AEE6AEE6AEE6A3E
:1012F000EE6AEE6AEE6AEE6AEE6AEE6AEE6A210E57
:10130000DB6AD950220FE96EDACFEAFFEE6AEE6AA5
:10131000EE6AEE6AEE6AEE6AEE6AEE6AEE6AEE6A0D
:10132000EE6AEE6AEE6AEE6A300EDB6A310EDB6A56
:10133000320EDB6A330EDB68350EDB6A0E0EF36E9F
:10134000360EF3CFDBFF3C0EDB6A010EF36E3D0E73
:10135000F3CFDBFF380EDB6A390EDB6A3A0EDB6A4D
:101360003B0EDB6A30EC02F0FE0EDB0401E07AD0CB
:101370003C0EDB5027E13D0EDB5024E0300EDB6AF3
:10138000DB500E081CE3300EDB50EA6A000FE96EFA
:10139000010EEA22EF50E66ED950210F146EDACF1B
:1013A00015F0300EDB500F011424E96E000E1520ED
:1013B000EA6EE552E750EF6E300EDB2AE1D73D0EC4
:1013C000DB6A50D03C0EDB50000829E20D0EF36EB4
:1013D0003C0EDBCFF4FFF350F45C21E23D0EDB501A
:1013E0001EE0D950210FE66E000EDA20E66E3C0EAC
:1013F000DB04E96EEA6AD890E936EA360F0EE92690
:10140000010EEA22EECFE6FFEFCFE6FFFBEC2AF07B
:10141000E552E552E552E5523D0EDB6A23D03C0E23
:10142000DB500D081FE13D0EDB501CE0D950210FB1
:10143000E66E000EDA20E66E3C0EEA6ADB34FE0B46
:10144000EA36E96E0F0EE926010EEA22EECFE6FF3C
:10145000EFCFE6FFFBEC2AF0E552E552E552E5520C
:101460003D0EDB6A350EDB50000805E2E66A0BEC48
:1014700003F0E55205D0010EE66E0BEC03F0E552E9
:10148000E76E370EE7CFDBFFDB50FF0801E170D2DC
:10149000370EDB50620844E1FE0EDB0418E1300E2B
:1014A000DB500FE1D950210FE66E000EDA20E66E18
:1014B00051EC2CF0E552E552300EF3CFDBFFF35048
:1014C00002D0300EDB50E76E300EE7CFDBFF300E80
:1014D000DB5025E0D950210FE66E000EDA20E66ED3
:1014E00051EC2CF0E552E552F3CF14F0F4CF15F0A7
:1014F000153404E214500008000E155410E2300EAA
:10150000DB06D950210F146EDACF15F0300EDB5008
:101510000F011424E96E000E1520EA6EEF6A28D23E
:10152000370EDB50650801E0C3D1350EDB500008F3
:1015300001E307D1D950210FE66E000EDA20E66EE6
:1015400025DCE552E552F3CF14F0F4CF15F014503A
:10155000151001E1EED0350EDB50010B61E1D950E1
:10156000210FE66E000EDA20E66E86EC2AF0E552D8
:10157000E552F3CF14F0F4CF15F0D890155004E6EF
:10158000000E145C010E155843E2D950210FE66E8F
:10159000000EDA20E66E86EC2AF0E552E552F3CF33
:1015A00016F0F4CF17F0173404E216500008000EBE
:1015B00017542EE2D950210FE66E000EDA20E66EA7
:1015C00086EC2AF0E552E552F350E66ED9CF14F0DE
:1015D000DACF15F0360EDB500F011424E96E000E41
:1015E0001520EA6EE552E750EF6E0101060EAA6F74
:1015F0004F0EAB6F09EC01F0360EDB2A350EDB2AFD
:101600003C0EDB2A010EF36E3D0EF3CFDBFF07D05D
:1016100001011B0EAA6F4F0EAB6F09EC01F073D0E6
:10162000D950210FE66E000EDA20E66E86EC2AF025
:10163000E552E552F3CF14F0F4CF15F0D8901550E1
:1016400004E6C30E145C010E155856E2D950210F62
:10165000E66E000EDA20E66E86EC2AF0E552E552E0
:10166000F3CF16F0F4CF17F0173404E21650000849
:10167000000E175441E2D950210FE66E000EDA2019
:10168000E66E86EC2AF0E552E552380EF3CFDBFF2A
:10169000390EF4CFDBFFD9CF14F0DACF15F0360EC8
:1016A000DB500F011424E96E000E1520EA6E390E8E
:1016B000DBCFEFFF360EDB2AD9CF14F0DACF15F0EF
:1016C000DB501424E96E000E1520EA6E380EDBCFD5
:1016D000EFFF0101060EAA6F4F0EAB6F09EC01F090
:1016E000360EDB2A350EDB2A3C0EDB2A010EF36EAA
:1016F0003D0EF3CFDBFF07D00101300EAA6F4F0E76
:10170000AB6F09EC01F00C0EF36E350EDBCFF4FF7E
:10171000F350F45C0DE3D9CF14F0DACF15F0360EA8
:10172000DB500F011424E96E000E1520EA6EEF6AFB
:1017300007D00101450EAA6F4F0EAB6F09EC01F007
:1017400090D0D950210FE66E000EDA20E66E51ECF3
:101750002CF0E552E552F3CF14F0F4CF15F0153428
:1017600004E214500208000E155474E2230EDF6EDA
:10177000010EF36E340EF3CFDBFF010EF36E300E6D
:10178000F3CFDBFF0E0EF36E300EDBCFF4FFF35022
:10179000F45C4FE2D950210F146EDACF15F0300E01
:1017A000DB040F011424E96E000E1520EA6EEF50E1
:1017B0002EE0340EDB501DE0D950210F166EDACF2B
:1017C00017F0300EDB041624E96E000E1720EA6EC7
:1017D000EF50E66ED9CF14F0DACF15F0300EDB50B3
:1017E0001424E96E000E1520EA6EE552E750EF6E04
:1017F0000DD0D9CF14F0DACF15F0300EDB50142411
:10180000E96E000E1520EA6E200EEF6E0FD0340E3A
:10181000DB6AD9CF14F0DACF15F0300EDB50142488
:10182000E96E000E1520EA6E200EEF6E300EDB2AF8
:10183000A9D701015A0EAA6F4F0EAB6F09EC01F048
:10184000350EDB2A3C0EDB2A010EF36E3D0EF3CF84
:10185000DBFF07D001016F0EAA6F4F0EAB6F09ECD3
:1018600001F00F0EE66EE66AE66AD950210FE66EC9
:10187000000EDA20E66E37EC2CF0146E050EE15EF9
:101880001450010EE66EE66EE66AC00EE66E2EECB1
:1018900000F0E552E552E552E552E80EE66E030E21
:1018A000E66E6AEC01F0E552E552300EDB6A60D07C
:1018B000370EDB50730804E10101AF6B91D258D0B1
:1018C000D950210FE66E000EDA20E66E51EC2CF0B6
:1018D000E552E552F3CF14F0F4CF15F0D89015503F
:1018E00004E60E0E145C000E155816E2350EDB50A1
:1018F00013E1D950210F146EDACF15F0300EDB5002
:101900000F011424E96E000E1520EA6E370EDBCFAE
:10191000EFFF300EDB2A2CD0350EDB50000828E21A
:10192000D950210FE66E000EDA20E66E51EC2CF055
:10193000E552E552F3CF14F0F4CF15F0D8901550DE
:1019400004E6030E145C000E155812E2D950210F64
:10195000146EDACF15F0300EDB500F011424E96E4F
:10196000000E1520EA6E370EDBCFEFFF300EDB2ABC
:101970000A0E146E14C00CF0320EDBCF07F069ECC7
:101980002EF0035017E1330EDB5020080EE1350E28
:10199000DB50000808E2350EDB50010B02E1730E4C
:1019A00001D0DF0E01D0FF0E01D0200EE76E330E06
:1019B000E7CFDBFF350EDB500D0801E09FD130ECA7
:1019C00002F0FE0EDB502EE1E66A14DAE552000961
:1019D00002E1000E05D0E66A0DDAE552200DF35063
:1019E000E66ED9503A0FE96EDACFEAFFE552E750DA
:1019F000EE6EED6AD9CFE6FFDACFE6FF3A0EDBCF27
:101A0000E6FF3B0EDBCFE6FF99EC02F0E552E55234
:101A1000E552E552E66AEED9E552E66E4DEC02F08B
:101A2000E55222D0FE0EDB041FE13BEC02F0200D5C
:101A3000F350E00FE66ED9503A0FE96EDACFEAFFC5
:101A4000E552E750EE6EED6AD9CFE6FFDACFE6FF5A
:101A50003A0EDBCFE6FF3B0EDBCFE6FF99EC02F060
:101A6000E552E552E552E552350EDB50150DF3CF48
:101A7000AAF1F4CFABF1E80E0101AA274B0EAB237C
:101A800009EC01F0010EE66EE66EE66AC00EE66E47
:101A90002EEC00F0E552E552E552E5520101840ECC
:101AA000AA6F4F0EAB6F09EC01F0010EE66EE66E09
:101AB000E66A940EE66E2EEC00F0E552E552E55231
:101AC000E5520101990EAA6F4F0EAB6F09EC01F0C0
:101AD000010EE66EE66EE66AD40EE66E2EEC00F0BF
:101AE000E552E552E552E5522EEC19F0010EE66E94
:101AF000E66EE66A800EE66E2EEC00F0E552E552E8
:101B0000E552E552F40EE66E010EE66E6AEC01F067
:101B1000E552E552010EF36E340EF3CFDBFF300ECB
:101B2000DB6ADB500E084DE3D9CF14F0DACF15F0A5
:101B3000300EDB500F011424E96E000E1520EA6E02
:101B4000EF5025E0340EDB5018E0D9CF14F0DACF97
:101B500015F0300EDB281424E96E000E1520EA6E15
:101B6000EF50E66E300EDB50EA6A000FE96E010EB0
:101B7000EA22E552E750EF6E09D0300EDB50EA6AF8
:101B8000000FE96E010EEA22200EEF6E0BD0340E2C
:101B9000DB6A300EDB50EA6A000FE96E010EEA22C2
:101BA000200EEF6E300EDB500E0808E1300EDB50D9
:101BB000EA6A000FE96E010EEA22EF6A300EDB2AB4
:101BC000B0D7010EF36E340EF3CFDBFF310EDB6ABC
:101BD000300EDB6A0C0EF36E300EDBCFF4FFF350E9
:101BE000F45C5CE2380EDB6A390EDB6A300EDB50E7
:101BF000010B01081EE1D9CF14F0DACF15F0310E38
:101C0000DB500E0F0F011424E96E000E1520EA6E52
:101C1000EF50E66E300EEA6ADB34FE0BEA36E96E10
:101C20000F0EE926010EEA22E552E750EE6EED6A4C
:101C300030D0D9CF14F0DACF15F0310EDB500E0FC3
:101C40000F011424E96E000E1520EA6E390EEFCF55
:101C5000DBFF310EDB2AD9CF14F0DACF15F0DB50E1
:101C60000E0F1424E96E000E1520EA6E380EEFCF29
:101C7000DBFF300EEA6ADB34FE0BEA36E96E0F0E4C
:101C8000E926010EEA22380EDBCFEEFF390EDBCF5C
:101C9000EDFF310EDB2A300EDB2A9CD70101276BCA
:101CA000286B350EDB6A380EDB6A390EDB6A3A0EBA
:101CB000DB6A3B0EDB6A0F0EE66EE66AE66AD95017
:101CC000210FE66E000EDA20E66E37EC2CF0146E73
:101CD000050EE15E1450210EE66EE66AE66AD9CF83
:101CE000E6FFDACFE6FF37EC2CF0146E050EE15E6E
:101CF00014500101010EAF6F73D01AD0350EDB50B6
:101D0000150DF3CFAAF1F4CFABF1E80E0101AA272C
:101D10004B0EAB2309EC01F0010EE66EE66EE66AAF
:101D2000C00EE66E2EEC00F0E552E552E552E552AB
:101D3000330EDBCFE6FFE66AD950210FE66E000EC8
:101D4000DA20E66E6E0E146E570E156E166A14C00B
:101D5000E6FF15C0E6FF16C0E6FF84EC2CF0176E18
:101D6000070EE15E1750010EE66EE66EE66A940E0F
:101D7000E66E2EEC00F0E552E552E552E552010127
:101D80008C0EAA6F4D0EAB6F09EC01F0010EE66EE2
:101D9000E66EE66AD40EE66E2EEC00F0E552E552F1
:101DA000E552E55201015E0EAA6F4E0EAB6F09ECD3
:101DB00001F0010EE66EE66EE66A800EE66E2EEC2F
:101DC00000F0E552E552E552E552140EE66EE66A81
:101DD0006AEC01F0E552E552320EDB2AB4EF09F06D
:101DE0003E0EE15C02E2E16AE552E16EE552E7CFC8
:101DF000D9FF1200D9CFE6FFE1CFD9FF260EE126A9
:101E0000DF6ADE52010EDD6E020EDB6AD950030F6F
:101E1000E96EDACFEAFFEE6AEE6AEE6AEE6AEE6A21
:101E2000EE6AEE6AEE6AEE6AEE6AEE6AEE6AEE6AF2
:101E3000EE6AEE6AEE6AEE6AEE6AEE6AEE6AEE6AE2
:101E4000EE6AEE6AEE6AEE6AEE6AEE6AEE6AEE6AD2
:101E5000EE6AEE6AEE6A230EDB6A240EDB6A250E5A
:101E6000DB6AFE0EDB502EE0FE0EDB50010806E2C0
:101E7000FE0EDB50200DF350E00F01D0000EE66E99
:101E8000D950240FE96EDACFEAFFE552E750EE6E43
:101E9000ED6AD950020FE66E000EDA20E66E240ECF
:101EA000DBCFE6FF250EDBCFE6FFDAEC02F0E552F2
:101EB000E552E552E552020EDB50230802E1230E03
:101EC000DB2A34D0DF5002E1000E01D0200E146E68
:101ED000156A14BE1568D950240FE96EDACFEAFFEF
:101EE0001450EE261550ED22D950020FE66E000E6A
:101EF000DA20E66E240EDBCFE6FF250EDBCFE6FF11
:101F0000DAEC02F0E552E552E552E552020EDB5002
:101F1000230803E1230EDB2A02D0010EDB6ADF2A4D
:101F20000F0EDF5C03E2010EDB50CCE1230EDB5031
:101F3000146E260EE15C03E200D0E16AE552E16E28
:101F40001450E552E7CFD9FF1200D9CFE6FFE1CF19
:101F5000D9FF280EE126040EDB6AD950050FE96E81
:101F6000DACFEAFFEE6AEE6AEE6AEE6AEE6AEE6ACF
:101F7000EE6AEE6AEE6AEE6AEE6AEE6AEE6AEE6AA1
:101F8000EE6AEE6AEE6AEE6AEE6AEE6AEE6AEE6A91
:101F9000EE6AEE6AEE6AEE6AEE6AEE6AEE6AEE6A81
:101FA000EE6AEE6A260EDB6ADE6ADD6A020EDB6A24
:101FB000030EDB6AFE0EDB50200DF350E00F02E152
:101FC000000E05D0FE0EDB50200DF350E00FDE6E4C
:101FD000DD6AD950040FE66E000EDA20E66EDECF21
:101FE000E6FFDDCFE6FFDAEC02F0E552E552E5521E
:101FF000E552040EDB50230801E0E4D0010EF36E3D
:10200000270EF3CFDBFF250EDB6ADB500E084FE314
:10201000D950040F146EDACF15F0250EDB500F01E6
:102020001424E96E000E1520EA6EEF5026E0270E0C
:10203000DB5019E0D950040F146EDACF15F0250EDD
:10204000DB281424E96E000E1520EA6EEF50E66ED0
:10205000250EDB50EA6A000FE96E010EEA22E55216
:10206000E750EF6E09D0250EDB50EA6A000FE96EEB
:10207000010EEA22200EEF6E0BD0270EDB6A250E32
:10208000DB50EA6A000FE96E010EEA22200EEF6EC5
:10209000250EDB500E0808E1250EDB50EA6A000F22
:1020A000E96E010EEA22EF6A250EDB2AAED7010E99
:1020B000F36E270EF3CFDBFF260EDB6A250EDB6AFD
:1020C0000C0EF36E250EDBCFF4FFF350F45C60E2F0
:1020D000020EDB6A030EDB6A250EDB50010B0108E2
:1020E0001FE1D950040F146EDACF15F0260EDB5025
:1020F0000E0F0F011424E96E000E1520EA6EEF504A
:10210000E66E250EEA6ADB34FE0BEA36E96E0F0E48
:10211000E926010EEA22E552E750EE6EED6A33D071
:10212000D950040F146EDACF15F0260EDB500E0FC7
:102130000F011424E96E000E1520EA6E030EEFCF96
:10214000DBFF260EDB2AD950040F146EDACF15F010
:10215000260EDB500E0F1424E96E000E1520EA6ED9
:10216000020EEFCFDBFF250EEA6ADB34FE0BEA3608
:10217000E96E0F0EE926010EEA22020EDBCFEEFF1A
:10218000030EDBCFEDFF260EDB2A250EDB2A98D7C8
:10219000020EDB6A030EDB6A0101276B286BDE6A25
:1021A000DD6A210EE66EE66AE66AD950040FE66E35
:1021B000000EDA20E66E37EC2CF0146E050EE15EB0
:1021C000145056D00101AE0EAA6F4F0EAB6F09EC42
:1021D00001F0010EE66EE66EE66AC00EE66E2EECCB
:1021E00000F0E552E552E552E5520101C30EAA6F37
:1021F0004F0EAB6F09EC01F0010EE66EE66EE66A7B
:10220000940EE66E2EEC00F0E552E552E552E552F2
:1022100001018C0EAA6F4D0EAB6F09EC01F0010E9F
:10222000E66EE66EE66AD40EE66E2EEC00F0E5523F
:10223000E552E552E55201018C0EAA6F4D0EAB6FCF
:1022400009EC01F0010EE66EE66EE66A800EE66EBF
:102250002EEC00F0E552E552E552E552D00EE66E66
:10226000070EE66E6AEC01F0E552E5520101AF6B34
:10227000280EE15C02E2E16AE552E16EE552E7CF49
:10228000D9FF1200D9CFE6FFE1CFD9FF580EE126E2
:10229000DF6AD950010FE96EDACFEAFFEE6AEE6A23
:1022A000EE6AEE6AEE6AEE6AEE6AEE6AEE6AEE6A6E
:1022B000EE6AEE6AEE6AEE6AEE6AEE6AEE6AEE6A5E
:1022C000EE6AEE6AEE6AEE6AEE6AEE6AEE6AEE6A4E
:1022D000EE6AEE6AEE6AEE6AEE6AEE6A210EDB6A7A
:1022E000D950220FE96EDACFEAFFEE6AEE6AEE6AA3
:1022F000EE6AEE6AEE6AEE6AEE6AEE6AEE6AEE6A1E
:10230000EE6AEE6AEE6AD950300FE96EDACFEAFF74
:10231000EE6AEE6AEE6AEE6AEE6AEE6AEE6AEE6AFD
:10232000EE6AEE6AEE6AEE6AEE6AEE6AEE6AEE6AED
:10233000EE6AEE6AEE6AEE6AEE6AEE6AEE6AEE6ADD
:10234000EE6AEE6AEE6AEE6AEE6AEE6A010EF36E0D
:10235000500EF3CFDBFF510EDB6A540EDB6A550ED5
:10236000DB6A560EDB6A570EDB6A30EC02F0540E65
:10237000DB6A550EDB6A500EDB50030801E288D0A1
:10238000510EDB50000809E2D950540FE96EDACF44
:10239000EAFF200EEE26000EED22D9CFE6FFDACFBF
:1023A000E6FF540EDBCFE6FF550EDBCFE6FFDAEC9F
:1023B00002F0E552E552E552E5524F0EDB6A0E0E91
:1023C000F36E4F0EDBCFF4FFF350F45C5CE2230EB0
:1023D000DF5C27E1D9CF18F0DACF19F04F0EDB28F8
:1023E0000F011824E96E000E1920EA6EEF50E66E18
:1023F000D950210F166EDACF17F0500EDB040F0DF7
:102400001650F324146E1750F420156E4F0EDB5047
:102410001424E96E000E1520EA6EE552E750EF6EC7
:1024200018D0D950210F166EDACF17F0500EDB04FA
:102430000F0D1650F324146E1750F420156E4F0E26
:10244000DB500F011424E96E000E1520EA6E200EF9
:10245000EF6E4F0EDB500D0813E1D950210F146EB3
:10246000DACF15F0500EDB040F0D1450F324E96E93
:102470001550F420EA6E0E0EE926000EEA22EF6AED
:102480004F0EDB2A9CD7500EDB2A510EDB2A73D766
:10249000500EDB6A510EDB2AE66A0BEC03F0E552C4
:1024A000E76E4E0EE7CFDBFFDB50FF0801E10DD1F9
:1024B0004E0EDB506A0801E0C3D0010EF36E500EE1
:1024C000F3CFDBFF210EE66EE66AE66AD9CFE6FFC0
:1024D000DACFE6FF37EC2CF0146E050EE15E1450F7
:1024E0002D0EE66EE66AE66AD950210FE66E000E02
:1024F000DA20E66E37EC2CF0146E050EE15E145017
:102500000F0EF36E510EDBCFF4FFF350F45C09E3D2
:10251000010EF36E510EF3CFDBFF540EDB6A550E46
:10252000DB6A500EDB50030801E287D0510EDB045A
:1025300009E0D950540FE96EDACFEAFF200EEE26FB
:10254000000EED22D9CFE6FFDACFE6FF540EDBCF47
:10255000E6FF550EDBCFE6FFDAEC02F0E552E5527E
:10256000E552E5524F0EDB6A0E0EF36E4F0EDBCFD7
:10257000F4FFF350F45C5CE2230EDF5C27E1D9CF7B
:1025800018F0DACF19F04F0EDB280F011824E96E8E
:10259000000E1920EA6EEF50E66ED950210F166E2C
:1025A000DACF17F0500EDB040F0D1650F324146E23
:1025B0001750F420156E4F0EDB501424E96E000EF8
:1025C0001520EA6EE552E750EF6E18D0D950210F72
:1025D000166EDACF17F0500EDB040F0D1650F324F1
:1025E000146E1750F420156E4F0EDB500F0114249B
:1025F000E96E000E1520EA6E200EEF6E4F0EDB50D6
:102600000D0813E1D950210F146EDACF15F0500EDA
:10261000DB040F0D1450F324E96E1550F420EA6E1C
:102620000E0EE926000EEA22EF6A4F0EDB2A9CD737
:10263000500EDB2A510EDB2A74D730EC02F045D065
:102640004E0EDB50310808E04E0EDB50320804E03D
:102650004E0EDB50330832E14E0EDB50310808E1FC
:10266000510EDB50FD0FE76E530EE7CFDBFF16D0A8
:102670004E0EDB50320808E1510EDB50FE0FE76EC4
:10268000530EE7CFDBFF0AD04E0EDB50330806E1D6
:10269000510EDB04E76E530EE7CFDBFF530EDBCFAB
:1026A000E6FF4DEC02F0E552530EDBCFE6FF4DDCCA
:1026B000E5520101010EAF6FEAD007D04E0EDB509C
:1026C000730803E10101AF6BE2D0210EDB5020085B
:1026D0001DE0D950210FE66E000EDA20E66E510E95
:1026E000DB50FD0FE66EE66A660E146E570E156E31
:1026F000166A14C0E6FF15C0E6FF16C0E6FF84ECBC
:102700002CF0176E070EE15E175016D0510EDB50FD
:10271000FD0FE66EE66A5B0E146E570E156E166AB6
:1027200014C0E6FF15C0E6FF16C0E6FF84EC2CF0EF
:10273000176E050EE15E1750010EE66EE66EE66A54
:10274000C00EE66E2EEC00F0E552E552E552E55281
:10275000300EDB5020081DE0D950300FE66E000E21
:10276000DA20E66E510EDB50FE0FE66EE66A660E6C
:10277000146E570E156E166A14C0E6FF15C0E6FFFC
:1027800016C0E6FF84EC2CF0176E070EE15E1750C2
:1027900016D0510EDB50FE0FE66EE66A5B0E146E2D
:1027A000570E156E166A14C0E6FF15C0E6FF16C078
:1027B000E6FF84EC2CF0176E050EE15E1750010E5B
:1027C000E66EE66EE66A940EE66E2EEC00F0E552DA
:1027D000E552E552E5523F0EDB5020081CE0D9508F
:1027E0003F0FE66E000EDA20E66E510EDB04E66E59
:1027F000E66A660E146E570E156E166A14C0E6FF72
:1028000015C0E6FF16C0E6FF84EC2CF0176E070E2D
:10281000E15E175015D0510EDB04E66EE66A5B0EE2
:10282000146E570E156E166A14C0E6FF15C0E6FF4B
:1028300016C0E6FF84EC2CF0176E050EE15E175013
:10284000010EE66EE66EE66AD40EE66E2EEC00F041
:10285000E552E552E552E5520101D80EAA6F4F0E3E
:10286000AB6F09EC01F0010EE66EE66EE66A800ED3
:10287000E66E2EEC00F0E552E552E552E552140EFC
:10288000E66EE66A6AEC01F0E552E55205D6580EAE
:10289000E15C02E2E16AE552E16EE552E7CFD9FF81
:1028A0001200D9CFE6FFE1CFD9FF080EE126DE6A9C
:1028B000DD6A020EDB6A030EDB6A040EDB6A050EBC
:1028C000DB6A060EDB6A070EDB6A8B90010EE66E92
:1028D000E66A6AEC01F0E552E552E66A66EC02F05F
:1028E000E552DE6EDD6AE66A66EC02F0E552E66EFF
:1028F000D950020FE96EDACFEAFFE552E750EE6EEB
:10290000ED6ADECF14F0DDCF15F014C015F0146AB7
:1029100014C0DEFF15C0DDFF020EDBCF16F0030E84
:10292000DBCF17F0DE501624146EDD501720156E25
:10293000020E14C0DBFF030E15C0DBFF020EDBCF5F
:1029400014F0030EDBCF15F0D89015321432E804E2
:10295000FBE1020E14C0DBFF030E15C0DBFF8B8012
:10296000020EDBCF06F0030EDBCF07F071EC28F090
:1029700005C014F006C015F007C016F008C017F027
:102980000A6A0B6A800E0C6E3E0E0D6E14C005F0C6
:1029900015C006F016C007F017C008F0D9EC28F0F3
:1029A000040E05C0DBFF050E06C0DBFF060E07C0E8
:1029B000DBFF070E08C0DBFF040EDBCF14F0050EB3
:1029C000DBCF15F0060EDBCF16F0070EDBCF17F0CE
:1029D0000A6AC00E0B6E7F0E0C6E440E0D6E14C094
:1029E00005F015C006F016C007F017C008F075EC2A
:1029F00029F0010A08E1040EDB6A050EDB6A060E07
:102A0000DB6A070EDB6A040EDBCF05F0050EDBCFB9
:102A100006F0060EDBCF07F0070EDBCF08F046EC22
:102A200029F006C014F007C015F014C0F3FF15C05C
:102A3000F4FF080EE15C03E200D0E16AE552E16ECA
:102A4000E552E7CFD9FF1200D9CFE6FFE1CFD9FF9A
:102A5000070EE126010EDB6A020EDB6ADF6AFC0E5E
:102A6000DB50DF5C1CE2176ADF34FE0B1736166E94
:102A7000FD0EDB501624E96EFE0EDB501720EA6EC9
:102A8000EECF14F0EFCF15F0D950010FE96EDACF89
:102A9000EAFF1450EE261550ED22DF2AE0D7010E92
:102AA000DBCF06F0020EDBCF07F071EC28F005C09B
:102AB00014F006C015F007C016F008C017F0FC0EA1
:102AC000DBCF1CF01CC007F060EC28F005C018F04C
:102AD00006C019F007C01AF008C01BF018C00AF0B1
:102AE00019C00BF01AC00CF01BC00DF014C005F09B
:102AF00015C006F016C007F017C008F086EC28F0E5
:102B0000030E05C0DBFF040E06C0DBFF050E07C089
:102B1000DBFF060E08C0DBFF030EDBCF05F0040E63
:102B2000DBCF06F0050EDBCF07F0060EDBCF08F09B
:102B300046EC29F006C014F007C015F014C0F3FFEE
:102B400015C0F4FF070EE15C03E200D0E16AE55234
:102B5000E16EE552E7CFD9FF1200D9CFE6FFE1CF12
:102B6000D9FF0C0EE126040EDB6A050EDB6A060EA9
:102B7000DB6A010EF36E070EF3CFDBFF080EDB6A94
:102B8000090EDB6A0A0EDB6A0B0EDB6A0101AC6B15
:102B9000AE6B30EC02F0060EDB5001E0B3D0E66A1B
:102BA0000BEC03F0E552E76E030EE7CFDBFFDB50E3
:102BB000FF0854E0030EDB5031080DE1030EE66E12
:102BC000E66A97EC01F0E552E552010EF36E060E4F
:102BD000F3CFDBFF43D0030EDB5032080DE1040ED0
:102BE000E66EE66A97EC01F0E552E552010EF36EEF
:102BF000060EF3CFDBFF32D0030EDB5033080DE1BE
:102C0000050EE66EE66A97EC01F0E552E552010E1C
:102C1000F36E060EF3CFDBFF21D0030EDB5034083A
:102C20000DE1060EE66EE66A97EC01F0E552E5521C
:102C3000010EF36E060EF3CFDBFF10D0030EDB5058
:102C400035080CE1070EE66EE66A97EC01F0E552F6
:102C5000E552010EF36E060EF3CFDBFF0101ED0E20
:102C6000AA6F4F0EAB6F09EC01F0010EE66EE66E37
:102C7000E66AC00EE66E2EEC00F0E552E552E55233
:102C8000E5520101020EAA6F500EAB6F09EC01F084
:102C9000010EE66EE66EE66A940EE66E2EEC00F02D
:102CA000E552E552E552E5520101170EAA6F500EAA
:102CB000AB6F09EC01F0010EE66EE66EE66AD40E2B
:102CC000E66E2EEC00F0E552E552E552E5520101C8
:102CD0002C0EAA6F500EAB6F09EC01F0010EE66EE0
:102CE000E66EE66A800EE66E2EEC00F0E552E552E6
:102CF000E552E552140EE66EE66A6AEC01F0E55222
:102D0000E55249D730EC02F00101410EAA6F500E96
:102D1000AB6F09EC01F0010EE66EE66EE66AC00EDE
:102D2000E66E2EEC00F0E552E552E552E552010167
:102D30008C0EAA6F4D0EAB6F09EC01F0010EE66E22
:102D4000E66EE66A940EE66E2EEC00F0E552E55271
:102D5000E552E55201018C0EAA6F4D0EAB6F09ECE6
:102D600001F0010EE66EE66EE66AD40EE66E2EEC1B
:102D700000F0E552E552E552E55201018C0EAA6FD2
:102D80004D0EAB6F09EC01F0010EE66EE66EE66AE1
:102D9000800EE66E2EEC00F0E552E552E552E5526B
:102DA000A00EE66E0F0EE66E6AEC01F0E552E552FB
:102DB000F28E0101AD6B670ED76E690ED66EF2947E
:102DC000F28AD58E30EC02F0DF6A060EDF5C01E39A
:102DD00074D10A0EE66EE66A020EE66E5ADAE55223
:102DE000E552E552DF5002E1000E02D0DF50E82448
:102DF000E76E010EE7CFDBFFDB28E96EEA6AD890C9
:102E0000E936EA360F0EE926010EEA22020EEFCF6E
:102E1000DBFF010EDB28E96EEA6AD890E936EA3674
:102E20000F0EE926010EEA22EECF14F0EFCF15F0D7
:102E30000101AC51166E176A17501518E8AE02D092
:102E4000153404D01450165C1550175801E32FD1D7
:102E5000E66A0BEC03F0E552E76E030EE7CFDBFF0B
:102E6000DB50FF080AE0030EDB50730806E1D59E35
:102E700089900101060EAF6F26D113DD0A0EF3CF44
:102E8000DBFF0B0EF4CFDBFF040E0101335D33E2F9
:102E90003351E96EEA6AD890E936EA36290EE92616
:102EA000010EEA220A0EDBCFEEFF0B0EDBCFEDFFA9
:102EB000D950040FE96EDACFEAFFFF0ED880EE5446
:102EC000030EED5417E2D950040FE96EDACFEAFF92
:102ED000000ED880EE54000EED540CE30A0EDBCF4A
:102EE00006F00B0EDBCF07F0040E06C0DBFF050E6D
:102EF00007C0DBFF15D0040E335D12E1316B326B7E
:102F0000040EE66E290EE66E010EE66E9DDDE552BC
:102F1000E552E552040EF3CFDBFF050EF4CFDBFFE5
:102F200001013351040802E2336B01D0332B000E50
:102F3000E66E010EE66E580E146E570E156E166A8A
:102F400014C0E6FF15C0E6FF16C0E6FF84EC2CF0C7
:102F5000176E050EE15E1750010EE66EE66EE66A2C
:102F6000C00EE66E2EEC00F0E552E552E552E55259
:102F7000020EDBCFE6FFE66ADF0EE66EE66A010EC2
:102F8000EA6ADB34FE0BEA36E96E0F0EE926010E23
:102F9000EA22EECFE6FFEFCFE6FFDF28E66EE66A35
:102FA0003F0E146E570E156E166A14C0E6FF15C05C
:102FB000E6FF16C0E6FF84EC2CF0176E0B0EE15E08
:102FC0001750010EE66EE66EE66A940EE66E2EEC83
:102FD00000F0E552E552E552E552020EDB500101E8
:102FE000D880AC55E66EE66ADF0EE66EE66A040E41
:102FF000DBCFE6FF050EDBCFE6FFDF28E66EE66AF5
:103000003F0E146E570E156E166A14C0E6FF15C0FB
:10301000E6FF16C0E6FF84EC2CF0176E0B0EE15EA7
:103020001750010EE66EE66EE66AD40EE66E2EECE2
:1030300000F0E552E552E552E5520101560EAA6F45
:10304000500EAB6F09EC01F0010EE66EE66EE66A1B
:10305000800EE66E2EEC00F0E552E552E552E552A8
:10306000050EDF5C17E1020EDB500101D880AC5584
:10307000146E060E145C0EE2070EDB500BE0320EEF
:10308000E66EE66A050EE66E04D9E552E552E552B3
:10309000070EDB6A140EE66EE66A6AEC01F0E55292
:1030A000E552080EDB2A090E01E3DB2AB2D6DF283F
:1030B000E824AE6FAC6BDF2A88D6D59E89900101DB
:1030C000060EAF6F00D00C0EE15C02E2E16AE55241
:1030D000E16EE552E7CFD9FF1200D9CFE6FFE1CF8D
:1030E000D9FFE652080EE66EE66A97EC01F0E5526B
:1030F000E552640EE66EE66A010EE66ECAD8E55247
:10310000E552E55251EC14F0F3CF14F0F4CF15F082
:10311000500ED8801454000E155401E390D02DD9D0
:10312000E66A0BEC03F0E552DF6EFF0EDF5C0EE0AB
:10313000730EDF5C0BE1000EE66EE66A97EC01F0C1
:10314000E552E5520101010EAF6F79D0000EE66E37
:10315000010EE66EA50E146E570E156E166A14C09B
:10316000E6FF15C0E6FF16C0E6FF84EC2CF0176EF4
:10317000050EE15E1750010EE66EE66EE66AC00EC1
:10318000E66E2EEC00F0E552E552E552E552DF0E18
:10319000E66EE66A51EC14F0F3CF14F0F4CF15F0BC
:1031A00014C0E6FF15C0E6FF2A0E166E570E176E06
:1031B000186A16C0E6FF17C0E6FF18C0E6FF84ECE9
:1031C0002CF0196E070EE15E1950010EE66EE66EE8
:1031D000E66A940EE66E2EEC00F0E552E552E552FA
:1031E000E55201018C0EAA6F4D0EAB6F09EC01F098
:1031F000010EE66EE66EE66AD40EE66E2EEC00F088
:10320000E552E552E552E55201015E0EAA6F4E0EFF
:10321000AB6F09EC01F0010EE66EE66EE66A800E19
:10322000E66E2EEC00F0E552E552E552E552140E42
:10323000E66EE66A6AEC01F0E552E55263D7010EEC
:10324000E66EE66A97EC01F0E552E5520101010EE7
:10325000AF6FE552E552E7CFD9FF1200D9CFE6FFB5
:10326000E1CFD9FFE652DF6A140EDF5C0DE2E668BB
:10327000F5EC00F0E552140EE66EE66A6AEC01F039
:10328000E552E552DF2AF0D7E552E552E7CFD9FF04
:103290001200D9CFE6FFE1CFD9FFE652DF6AFE0E7A
:1032A000DB50DF5C18E28A8EFC0EDBCFE6FFFD0E02
:1032B000DBCFE6FF6AEC01F0E552E5528A9EFC0E98
:1032C000DBCFE6FFFD0EDBCFE6FF6AEC01F0E55257
:1032D000E552DF2AE4D7E552E552E7CFD9FF1200E5
:1032E000D9CFE6FFE1CFD9FF020EE126800E146EA2
:1032F000FE0EDB5014C0E7FF070B04E0E742E79E39
:10330000E806FCE1E750DF6E010EDB6A080EF36EA3
:10331000010EDBCFF4FFF350F45C25E2D950010F2E
:10332000E96EDACFEAFFDF50EFCFE7FFE75204E0C4
:10333000E8427F0BE706FCE1010B06E08A9A8A88E7
:103340008A8C8A9C8A8A05D08A9A8A988A8C8A9CD6
:103350008A8A020EE66EE66A6AEC01F0E552E552F0
:10336000010EDB2AD3D7020EE15C02E2E16AE552EC
:10337000E16EE552E7CFD9FF120089B0899051EC98
:1033800014F0F3CF14F0F4CF15F02C0ED8801454B1
:10339000010E155408E2080EE66EE66A97EC01F09D
:1033A000E552E55278D051EC14F0F3CF14F0F4CF9D
:1033B00015F0C80ED8801454000E155413E251ECC9
:1033C00014F0F3CF16F0F4CF17F02C0E165C010EAC
:1033D000175808E2060EE66EE66A97EC01F0E55231
:1033E000E55259D051EC14F0F3CF14F0F4CF15F0AE
:1033F000640ED8801454000E155413E251EC14F0EE
:10340000F3CF16F0F4CF17F0C80E165C000E175865
:1034100008E2040EE66EE66A97EC01F0E552E5522A
:103420003AD051EC14F0F3CF14F0F4CF15F0500E65
:10343000D8801454000E155413E251EC14F0F3CF5D
:1034400016F0F4CF17F0640E165C000E175808E261
:10345000020EE66EE66A97EC01F0E552E5521BD0EB
:1034600051EC14F0F3CF14F0F4CF15F0320ED880F5
:103470001454000E155408E2010EE66EE66A97EC4D
:1034800001F0E552E55207D0000EE66EE66A97ECD1
:1034900001F0E552E5521200D9CFE6FFE1CFD9FFA6
:1034A000E65230EC02F038EC01F0F28E0101AD6B27
:1034B000670ED76E690ED66EF294F28AD58EE66AE2
:1034C0000BEC03F0E552DF6EFF0EDF5C06E0780EDA
:1034D000DF5C03E10101AF6B5CD001016B0EAA6FF1
:1034E000500EAB6F09EC01F0010EE66EE66EE66A77
:1034F000C00EE66E2EEC00F0E552E552E552E552C4
:103500000101800EAA6F500EAB6F09EC01F0010EA5
:10351000E66EE66EE66A940EE66E2EEC00F0E5527C
:10352000E552E552E5520101950EAA6F500EAB6FC0
:1035300009EC01F0010EE66EE66EE66AD40EE66E68
:103540002EEC00F0E552E552E552E5520101AA0EDB
:10355000AA6F500EAB6F09EC01F0010EE66EE66E3D
:10356000E66A800EE66E2EEC00F0E552E552E5527A
:10357000E552140EE66EE66A6AEC01F0E552E55299
:10358000FCDE140EE66EE66A6AEC01F0E552E552E6
:1035900096D7E552E552E7CFD9FF1200DACFE4FF24
:1035A000E2CFDAFFE9CFE4FFEACFE4FFF6CFE4FFB2
:1035B000F7CFE4FFF5CFE4FFF3CFE4FFF4CFE4FF70
:1035C000FACFE4FF00EE00F0140EE80403E3EECFC0
:1035D000E4FFFBD700EE14F0090EE80403E3EECF9E
:1035E000E4FFFBD7E652CD0ED76E230ED66E010157
:1035F000AE51E96EEA6AD890E936EA360F0EE9264E
:10360000010EEA22EECF1DF0EFCF1EF051EC14F0C8
:10361000F3CF1FF0F4CF20F01D501F5C1E50205838
:1036200001E3D3D089800101AE51E96EEA6AD890F6
:10363000E936EA360F0EE926010EEA22EECF1DF03A
:10364000EFCF1EF01E3404E21D506408000E1E541D
:1036500008E3140EE66EE66A6AEC01F0E552E55204
:10366000B2D0AE51E96EEA6AD890E936EA360F0E6A
:10367000E926010EEA22EECF1DF0EFCF1EF01E3438
:1036800004E21D506408000E1E541DE2AE51E96EA6
:10369000EA6AD890E936EA360F0EE926010EEA22E8
:1036A000EECF1FF0EFCF20F0203404E21F50C80807
:1036B000000E205408E3280EE66EE66A6AEC01F07C
:1036C000E552E55280D0AE51E96EEA6AD890E9360B
:1036D000EA360F0EE926010EEA22EECF1DF0EFCFFB
:1036E0001EF01E3404E21D50C808000E1E541DE2D8
:1036F000AE51E96EEA6AD890E936EA360F0EE9264D
:10370000010EEA22EECF1FF0EFCF20F0203404E2CA
:103710001F502C08010E205408E33C0EE66EE66AAA
:103720006AEC01F0E552E5524ED0AE51E96EEA6A1C
:10373000D890E936EA360F0EE926010EEA22EECFDE
:103740001DF0EFCF1EF01E3404E21D502C08010EB8
:103750001E541DE2AE51E96EEA6AD890E936EA36A7
:103760000F0EE926010EEA22EECF1FF0EFCF20F078
:10377000203404E21F509008010E205408E3460E46
:10378000E66EE66A6AEC01F0E552E5521CD0AE51F5
:10379000E96EEA6AD890E936EA360F0EE926010E9C
:1037A000EA22EECF1DF0EFCF1EF01E3404E21D50D2
:1037B0009008010E1E5407E2500EE66EE66A6AECAF
:1037C00001F0E552E5528990BDD089800101AE51EA
:1037D000E96EEA6AD890E936EA360F0EE926010E5C
:1037E000EA22EECF1DF0EFCF1EF01E3404E21D5092
:1037F0006408000E1E541DE2AE51E96EEA6AD890CC
:10380000E936EA360F0EE926010EEA22EECF1FF066
:10381000EFCF20F0203404E21F50C808000E2054DF
:1038200008E30F0EE66EE66A6AEC01F0E552E55237
:1038300088D0AE51E96EEA6AD890E936EA360F0EC2
:10384000E926010EEA22EECF1DF0EFCF1EF01E3466
:1038500004E21D50C808000E1E541DE2AE51E96E70
:10386000EA6AD890E936EA360F0EE926010EEA2216
:10387000EECF1FF0EFCF20F0203404E21F502C08D1
:10388000010E205408E3140EE66EE66A6AEC01F0BD
:10389000E552E55256D0AE51E96EEA6AD890E93663
:1038A000EA360F0EE926010EEA22EECF1DF0EFCF29
:1038B0001EF01E3404E21D502C08010E1E541DE2A1
:1038C000AE51E96EEA6AD890E936EA360F0EE9267B
:1038D000010EEA22EECF1FF0EFCF20F0203404E2F9
:1038E0001F509008010E205408E3190EE66EE66A98
:1038F0006AEC01F0E552E55224D0AE51E96EEA6A75
:10390000D890E936EA360F0EE926010EEA22EECF0C
:103910001DF0EFCF1EF01E3404E21D509008010E82
:103920001E5408E21E0EE66EE66A6AEC01F0E552ED
:10393000E55207D0050EE66EE66A6AEC01F0E55244
:10394000E55289900101AD51020802E2AC2BAD6B4A
:10395000AD2BF294E55200EE1CF0090EE80403E3EF
:10396000E5CFEDFFFBD700EE13F0140EE80403E300
:10397000E5CFEDFFFBD7E5CFFAFFE5CFF4FFE5CFCD
:10398000F3FFE5CFF5FFE5CFF7FFE5CFF6FFE5CF96
:10399000EAFFE5CFE9FFE5CFDAFF1100D8CFE4FF7A
:1039A000E0CFE4FFE46EDACFE4FFE2CFDAFFE9CF65
:1039B000E4FFEACFE4FFF6CFE4FFF7CFE4FFF5CF73
:1039C000E4FFF3CFE4FFF4CFE4FFFACFE4FF00EE2F
:1039D00000F0140EE80403E3EECFE4FFFBD700EEA3
:1039E00014F0090EE80403E3EECFE4FFFBD7E65240
:1039F000670ED76E690ED66E8C86010EE66EE66A8D
:103A00006AEC01F0E552E5528C96F294E55200EE34
:103A10001CF0090EE80403E3E5CFEDFFFBD700EE51
:103A200013F0140EE80403E3E5CFEDFFFBD7E5CF79
:103A3000FAFFE5CFF4FFE5CFF3FFE5CFF5FFE5CFE4
:103A4000F7FFE5CFF6FFE5CFEAFFE5CFE9FFE5CFEA
:103A5000DAFFE550E5CFE0FFE5CFD8FF1000D9CF82
:103A6000E6FFE1CFD9FF260EE126040EDB6AD9502E
:103A7000050FE96EDACFEAFFEE6AEE6AEE6AEE6AE9
:103A8000EE6AEE6AEE6AEE6AEE6AEE6AEE6AEE6A76
:103A9000EE6AEE6AEE6AEE6AEE6AEE6AEE6AEE6A66
:103AA000EE6AEE6AEE6AEE6AEE6AEE6AEE6AEE6A56
:103AB000EE6AEE6AEE6AEE6A250EDB6A46EC01F00B
:103AC00001010E0EAA6F4D0EAB6F09EC01F0010E55
:103AD000E66EE66EE66AC00EE66E2EEC00F0E5528B
:103AE000E552E552E5520101230EAA6F4D0EAB6F70
:103AF00009EC01F0010EE66EE66EE66A940EE66EE3
:103B00002EEC00F0E552E552E552E5520101380E87
:103B1000AA6F4D0EAB6F09EC01F0010EE66EE66E7A
:103B2000E66AD40EE66E2EEC00F0E552E552E55260
:103B3000E55201014D0EAA6F4D0EAB6F09EC01F07D
:103B4000010EE66EE66EE66A800EE66E2EEC00F082
:103B5000E552E552E552E552640EE66EE66A010E64
:103B6000E66E49EC19F0E552E552E552880EE66E34
:103B7000130EE66E6AEC01F0E552E55230EC02F00D
:103B80003BEC02F0146E156A153404E21450000880
:103B9000000E155401E3C4D03BEC02F0166E176A18
:103BA000173404E216500F08000E175401E2B8D083
:103BB0003BEC02F0E66EFAEC0EF0E552000959E03B
:103BC0003BEC02F0E66EA5EC0FF0E5520101620E4F
:103BD000AA6F4D0EAB6F09EC01F0010EE66EE66EBA
:103BE000E66AC00EE66E2EEC00F0E552E552E552B4
:103BF000E5520101770EAA6F4D0EAB6F09EC01F093
:103C0000010EE66EE66EE66A940EE66E2EEC00F0AD
:103C1000E552E552E552E55201018C0EAA6F4D0EB8
:103C2000AB6F09EC01F0010EE66EE66EE66AD40EAB
:103C3000E66E2EEC00F0E552E552E552E5522EEC30
:103C400019F0010EE66EE66EE66A800EE66E2EEC68
:103C500000F0E552E552E552E552F40EE66E010E33
:103C6000E66E6AEC01F0E552E5520101010EAF6F1C
:103C700056D00101A10EAA6F4D0EAB6F09EC01F0F9
:103C8000010EE66EE66EE66AC00EE66E2EEC00F001
:103C9000E552E552E552E5520101B60EAA6F4D0E0E
:103CA000AB6F09EC01F0010EE66EE66EE66A940E6B
:103CB000E66E2EEC00F0E552E552E552E5520101C8
:103CC0008C0EAA6F4D0EAB6F09EC01F0010EE66E83
:103CD000E66EE66AD40EE66E2EEC00F0E552E55292
:103CE000E552E55201018C0EAA6F4D0EAB6F09EC47
:103CF00001F0010EE66EE66EE66A800EE66E2EECD0
:103D000000F0E552E552E552E552D00EE66E070EA0
:103D1000E66E6AEC01F0E552E5520101AF6B56D058
:103D20000101CB0EAA6F4D0EAB6F09EC01F0010E35
:103D3000E66EE66EE66AC00EE66E2EEC00F0E55228
:103D4000E552E552E5520101E00EAA6F4D0EAB6F50
:103D500009EC01F0010EE66EE66EE66A940EE66E80
:103D60002EEC00F0E552E552E552E55201018C0ED1
:103D7000AA6F4D0EAB6F09EC01F0010EE66EE66E18
:103D8000E66AD40EE66E2EEC00F0E552E552E552FE
:103D9000E55201018C0EAA6F4D0EAB6F09EC01F0DC
:103DA000010EE66EE66EE66A800EE66E2EEC00F020
:103DB000E552E552E552E552D00EE66E070EE66E8C
:103DC0006AEC01F0E552E5520101AF6B0101AF056C
:103DD00062E13BEC02F0E66EFAEC0EF0E55200090F
:103DE00003E027EC07F056D00101F50EAA6F4D0E47
:103DF000AB6F09EC01F0010EE66EE66EE66AC00EEE
:103E0000E66E2EEC00F0E552E552E552E552010176
:103E10000A0EAA6F4E0EAB6F09EC01F0010EE66EB2
:103E2000E66EE66A940EE66E2EEC00F0E552E55280
:103E3000E552E55201018C0EAA6F4D0EAB6F09ECF5
:103E400001F0010EE66EE66EE66AD40EE66E2EEC2A
:103E500000F0E552E552E552E55201018C0EAA6FE1
:103E60004D0EAB6F09EC01F0010EE66EE66EE66AF0
:103E7000800EE66E2EEC00F0E552E552E552E5527A
:103E8000D00EE66E070EE66E6AEC01F0E552E552E2
:103E90000101AF6B8DD0AF5106E18C962AEC01F099
:103EA00056EC08F085D0020EAF5D62E1E66AFAECEE
:103EB0000EF0E552146E0F0E145C05E2E66A53EC48
:103EC00009F0E55254D001011F0EAA6F4E0EAB6FE0
:103ED00009EC01F0010EE66EE66EE66AC00EE66ED3
:103EE0002EEC00F0E552E552E552E5520101340EA8
:103EF000AA6F4E0EAB6F09EC01F0010EE66EE66E96
:103F0000E66A940EE66E2EEC00F0E552E552E552BC
:103F1000E55201018C0EAA6F4D0EAB6F09EC01F05A
:103F2000010EE66EE66EE66AD40EE66E2EEC00F04A
:103F3000E552E552E552E55201018C0EAA6F4D0E95
:103F4000AB6F09EC01F0010EE66EE66EE66A800EDC
:103F5000E66E2EEC00F0E552E552E552E552D00E49
:103F6000E66E070EE66E6AEC01F0E552E55220D0EF
:103F7000030EAF5D06E1010EE66E53EC09F0E5526B
:103F800017D0040EAF5D03E142EC11F011D0050E25
:103F9000AF5D03E1ADEC15F00BD0060EAF5D03E1B4
:103FA0006DEC18F005D0070EAF5D02E14CEC1AF095
:103FB0000DD7260EE15C02E2E16AE552E16EE552C0
:063FC000E7CFD9FF12005B
:0A3FC6001FEC25F0FB0EDBCFF3FF2C
:103FD000DB06F35000090AE06DEC25F0FA0ED8EC90
:103FE00025F0F3E1151CF1E1010E01D0000E4EEFBA
:103FF00025F01FEC25F03B0EE12402E3E168E652D8
:10400000E16E010EDB6A020EDB6AF90EDBCFF6FF12
:10401000FA0EDBCFF7FFFB0EDBCFF8FF0800F55001
:10402000DF6EDF5002E172EF24F0250EDF5C02E06C
:1040300065EF24F0030EDB6A040EDB6A050EDB6A13
:10404000060EDB6A070EDB6A87EC24F02D0EDF5CC0
:104050000CE02B0EDF5C09E0200EDF5C06E0230E97
:10406000DF5C03E0300EDF5C1AE1DF50300A14E061
:10407000130A0FE0030A0AE00B0A05E0060AE4E16E
:10408000030EDB80E1D7030EDB82DED7030EDB8479
:10409000DBD7030EDB86D8D7030EDB88D5D72A0EF5
:1040A000DF5C1BE183EC24F0D1EC24F010E0030E84
:1040B000DB8006680768130EDBCF0BF0140EDBCF36
:1040C0000CF059EC2AF0040E04C0DBFF03D0130EF1
:1040D000BAEC24F087EC24F00BD0090EDB6A28EC54
:1040E00025F003E09CEC25F0FAD7090EBAEC24F099
:1040F000030EDBB0DB982E0EDF5C1BE187EC24F0B7
:104100002A0EDF5C0BE183EC24F0D1EC24F003E118
:10411000130E0CEC25F087EC24F00BD0090EDB6AB3
:1041200028EC25F003E09CEC25F0FAD7090E0CEC06
:1041300025F0680EDF5C07E187EC24F0680EDF5C99
:104140001DE1030E18D0740EDF5C17E07A0EDF5C01
:1041500014E0480EDF5C06E0540EDF5C03E05A0E0C
:10416000DF5C02E1020E07D06C0EDF5C03E06A0E3A
:10417000DF5C04E1010E5FEC25F0C9DBDF506E0A65
:1041800001E17FD31E0A01E192D1200A01E18FD122
:104190003F0A01E149D11A0A01E146D10D0A01E1C4
:1041A00043D1200A01E140D13A0A01E13DD1200A80
:1041B00001E13AD1260A01E135D10D0A01E132D1FE
:1041C0001A0A01E1D9D0200A4AE0300A1FE0460A63
:1041D0000EE0250A01E083D3D950F90FE96EFF0EF6
:1041E000DA20EA6E010EEE5E000EEE5AEE5A6DEC2B
:1041F00025F0250EE66E95DB03E1151C01E169D380
:1042000069EC25F001E26BD3DB2A69D3080EDB6A87
:10421000040EDB50010806E2040EDB0431EC25F04D
:10422000DB508BDB080EDB5009E0030EDB50010B8B
:1042300005E172DB01E04DD3080EDB6A64DBEFCFF2
:10424000DFFFE1EC25F003E1151C01E142D369EC4D
:1042500025F001E3DB2A60DB01E141D33AD3070E0D
:10426000DB5002080FE1ADEC25F0030E74EC25F0F5
:104270000E0EEECFDBFF0F0EEECFDBFF100EEECFFC
:10428000DBFF20D0F70EDBCF17F0F80EDBCF18F0F6
:10429000020E175E000E185AF70E17C0DBFFF80E5D
:1042A00018C0DBFF17C0E9FF18C0EAFF64EC25F077
:1042B000166A0E0E14C0DBFF0F0E15C0DBFF100ECA
:1042C00016C0DBFF0E0EDBCFE6FF0F0EDBCFE6FFE7
:1042D000100EDBCFE6FF5FEC2CF0E552E552E55225
:1042E000130E05C0DBFF140E06C0DBFF060EDB500D
:1042F00005E0130EA8EC25F001E26ADBCCEC25F01A
:1043000002E2130E37DB8FEC25F006E0040EA8EC7A
:1043100025F002E2050E2EDB030EDBB005D0FCDA41
:1043200001E0D7D2080EDB6A090EDB6A0E0EDBCF86
:10433000F6FF0F0EDBCFF7FF100EDBCFF8FF080004
:10434000F550DF6EDF5014E0D2EC25F011E2E1EC25
:1043500025F003E1151C01E1BCD2BBDB01E3DB2A44
:10436000090EDB2AD9500E0FE96E000ECBDBE7D722
:10437000D3DA01E1B4D2ADD2C6DA110EEECFDBFF53
:10438000120EEDCFDBFF110EDBCFE6FF120EDBCFFF
:10439000E6FF51EC2CF0E552E552130EF3CFDBFFB4
:1043A000140EF4CFDBFF060EDB5004E0130ED0DB5F
:1043B00001E20EDBCCEC25F002E2130EDBDAAFDB20
:1043C00005E0040EC5DB02E2050ED4DA030EDBB015
:1043D00005D0A2DA01E07DD2080EDB6A090EDB6AA5
:1043E000110EDBCFE9FF120EDBCFEAFFEFCFDFFFCD
:1043F000DF5014E0D7DB12E2E4DB03E1151C01E13E
:1044000068D267DB01E3DB2A090EDB2A110EDB2A07
:10441000DBCFE9FF120EE8E3DB2AE6D77DDA01E124
:104420005ED257D2030EDB8E070EDB0410E195DB64
:10443000040E5ADB0A0EEECFDBFF0B0EEECFDBFFD6
:104440000C0EEECFDBFF0D0EEECFDBFF6CD0070EB8
:10445000DB5003082CE1030EDBAE0DD0B2DA020E06
:1044600076DAEFCF14F0156A166A176A14AE39D0EF
:104470001568166835D0F70EDBCF15F0F80EDBCFD8
:1044800016F0020E155E000E165AF70E15C0DBFF71
:10449000F80E16C0DBFF15C0E9FF16C0EAFFEFCF2C
:1044A00014F00A0E14C0DBFF0B0EDB6A38D0070EC7
:1044B000DB50020809E1030EDBAE04D059DB16AE77
:1044C00010D00ED055DB0DD0030EDBAE12D079DA52
:1044D000020E3DDAF9DA166A176A15AE02D01668CE
:1044E0001768E2DA0C0E16C0DBFF0D0E17C0DBFFFB
:1044F0001AD0F70EDBCF16F0F80EDBCF17F0020E56
:10450000165E000E175AF70E16C0DBFFF80E17C026
:10451000DBFF16C0E9FF17C0EAFFD6DAC5DA0C0EDA
:10452000DB6A0D0EDB6A060EDB5005E1010EF36E51
:10453000050EF3CFDBFF150EDB6A160EDB6AD950D2
:10454000370F146E000EDA20156E390E14C0DBFF23
:104550003A0E15C0DBFF380EDB6A080EDB6A0A0E66
:10456000AEDADF50780A12E0200A10E0280A0CE0E8
:10457000200A0AE03F0A06E00D0A02E0200A08E1EC
:10458000020E05D0080E03D0080EDF26100E97DAB3
:10459000030EDBBE02D0DB92DB94DB50800B24E009
:1045A0008ADAD890030EEB50000A08E6000EEE5CA3
:1045B000000EEE58000EEE58000EEE5815E213DA1B
:1045C00009680A680B680C6812EC2DF00A0E00C02E
:1045D000DBFF0B0E01C0DBFF0C0E02C0DBFF0D0E7C
:1045E00003C0DBFF2D0E08D0030EDBA202D02B0E82
:1045F00003D0DBA408D0200EF36E170EF3CFDBFF41
:10460000150EDB2A02D0170EDB6A050EDB5003E124
:10461000B7D901E189D0040E146E5D0E156E000E3F
:10462000166E070EDBCF17F0186A196A1A6A17C0E0
:1046300009F018C00AF019C00BF01AC00CF0D3D959
:1046400079EC2DF014500024F36E15500120F46E17
:1046500016500220F86EF4CFF7FFF3CFF6FF0800F4
:10466000090EF5CFDBFF580EDF5C0FE1610EF36E34
:10467000090E7BD90AE3200E146E090EDBCFE7FF8B
:104680001450E75E090EE7CFDBFF070EDBCF14F017
:10469000156A166A176A0FDA14C009F015C00AF015
:1046A00016C00BF017C00CF0EECF04F0EECF05F003
:1046B000EECF06F0EFCF07F079EC2DF007C0EDFF5D
:1046C00006C0EDFF05C0EDFF04C0EFFF390EDBCFE4
:1046D000E9FFDB063A0EDBCFEAFF01E2DB06090E5B
:1046E000DBCFEFFF150EDB2A4BD995E1030EDBA6DE
:1046F0001DD06F0EDF5C06E1C1D918E3150EDB2873
:104700005BDA14D0780EDF5C09E0580EDF5C06E05F
:10471000620EDF5C03E0420EDF5C08E1020EF36E26
:10472000160EF3CFDBFF02D0150EDB6A030EDB5053
:10473000100B0EE0040EDBCF14F0050EDB50D8801A
:10474000145406E2060EDB5003E1040EDB5034DAAB
:1047500095D90AE2050EDBCFE7FF150EDB50E75EC9
:10476000050EE7CFDBFF02D0050EDB6A040EDBCFC0
:1047700014F0160E45D9D880145414E2160EDBCF6F
:10478000E6FF150EDBCFE6FF040EDBCFE6FF050EDE
:10479000DB50E552E75CE552D880E754E552D8801B
:1047A000E7545FD9030EDB50010B0BE1080EDB5021
:1047B00008E0B2D801E08DD0080EDB50BED8080E5C
:1047C000DB6A170EDB5007E088D9170EF1D903E139
:1047D000151C01E17ED0160EDB5016E07ED9300E9E
:1047E000E66E9FD802E1151C74E077D9DFCFE6FFB3
:1047F000D0EC2CF0E552E552E552F4CF15F0000173
:10480000F31C02E1151C65E0050EDBCF14F0160E5B
:10481000DB50D880145409E2050EDBCFE7FF160EFB
:10482000DB50E75E050EE7CFDBFF300EE66E050ED0
:10483000CBD94FE1390EDB2ADBCFE9FF3A0E01E39A
:10484000DB2ADBCFEAFF090EEFCFDBFFDB500EE008
:1048500044D9090EADD902E1151C3BE0390EDB2A23
:10486000DBCFE9FF3A0EEDE3DB2AEBD755D831E198
:10487000160EDBCFE6FF080EC3D8E552E7245DD85D
:104880002ED0070EDB50030A1CE0010A14E0030AD5
:1048900007E07BD9DBCFEEFF020EDBCFEDFF1FD0B1
:1048A000F5D8196A17AE02D0186819682CD8BCD888
:1048B00019C0EEFF14D0EAD817BE186824D8B4D8AF
:1048C0000ED063D9DBCFEFFF0AD07BD905E1151CF1
:1048D00003E1F368F46810D0FCD801E3DB2A79D94E
:1048E0000EEF20F0010EDBCF14F0020EDBCF15F03F
:1048F00014C0F3FF15C0F4FF3B0EE15C02E2E16A75
:10490000E552E16ECBD029D9020E74EF25F061D9C2
:104910000800F550DF6E1200200EE66E080EE4EF80
:1049200025F0D0EC2CF0E552E552E552F3CF14F02F
:10493000F4CF15F00001F31C1200146E156AD95063
:10494000010F4DD91450EE261550ED221200185EBD
:10495000000E195AF70E18C0DBFFF80E19C0DBFF66
:1049600018C0E9FF19C0EAFF1200DBCFF4FFF350D3
:10497000F45C1200DB50E76E040EE7CFDBFF1200A1
:104980000A0EDBCF14F00B0EDBCF15F00C0EDBCFD5
:1049900016F00D0EDBCF17F014501510161017106F
:1049A0001200130EEECFDBFF140EEDCFDBFF130E64
:1049B000DBCF14F0140EDBCF15F00001800E1514C0
:1049C0001200F70EDBCF18F0F80EDBCF19F0120053
:1049D000050EDB50E66ED950130F01D9E552E750B2
:1049E000EE6EED6A12000A0EDBCF04F00B0EDBCF89
:1049F00005F00C0EDBCF06F00D0EDBCF07F012003A
:104A0000DBCFE6FF150EDBCFE6FF050EDB50E552F0
:104A1000E724E552E7241200DB50CED8010EF36EF6
:104A2000060EF3CFDBFF1200EE50EFCFEAFFE96E88
:104A300016C0EEFF17C0EEFF18C0EEFF1200D9CF70
:104A4000E6FFDACFE6FFE1CFD9FFE2CFDAFF1200CF
:104A5000DFCFE6FFE66A1BEC2EF0E552E552F3509D
:104A60001200E76E080EE7CFDBFF1200EECF14F066
:104A7000EECF15F0EFCF16F0176A1200050EDBCF60
:104A800014F0150EDB50D88014541200010EDBCF49
:104A900016F0020EDBCF17F0186A1200E552E5CFD0
:104AA000DAFFE7CFD9FF12000A0E14C0DBFF0B0EAE
:104AB00015C0DBFF1200D9500A0FEFEF25F0F36E9F
:104AC000070EF3CFDBFF1200EECF14F0EFCF15F09F
:104AD0001200010EDB2A020E1200FC0EDBCFE6FFF5
:104AE000FD0EDBCFE6FF1200145E000E155AF70E26
:104AF00014C0DBFFF80E15C0DBFF14C0E9FF15C0C2
:104B0000EAFF1200DA20EA6EEF2AEECFF6FF000E7F
:104B1000EF22EECFF7FFEF22EECFF8FF1200040EE8
:104B2000DBCFE6FF130EDB50E552E75C9ADFDB508C
:104B300004DF060EDB501200090EDB500A0DF350A5
:104B4000DF24D00FE76E090EE7CFDBFF87EF24F0FD
:104B5000DB50F36E050EB5EF24F0F70EDBCF14F04B
:104B6000F80EDBCF15F01200DFCFE6FF91EF24F057
:104B700028DF030EECDE36EF25F0E3EC1FF0E55204
:104B8000E552E552E55200091200BDDEEE50EFCFCE
:104B9000EAFFE96E010E1200130EDB50F36E040EF5
:104BA000B5EF24F0040EDB50F36E090EB5EF24F0E0
:104BB000DBCFE6FF91EF24F0E76E050EE7CFDBFFDA
:104BC00012008BDFB4EF25F0DBCFE6FF86DFBDEF11
:104BD00025F0D950F90FE96EFF0E82EF25F0E96E4E
:084BE000000EDA20EA6E12005B
:084BE80050726F66696C206ECB
:104BF00065763A202020202020202020004B657A56
:104C0000646F20686F666F6B3A2020202020202080
:104C100020004B657A646F2069646F3A2020202061
:104C200020202020202000486F666F6B20323A2021
:104C300020202020202020202020200050726F677C
:104C400072616D2069646F20323A2020202020207C
:104C500000486F666F6B20333A20202020202020F0
:104C600020202020200050726F6772616D206964DF
:104C70006F20333A20202020202000486F666F6B81
:104C800020343A2020202020202020202020200016
:104C900050726F6772616D2069646F20343A202012
:104CA0002020202000486F666F6B20353A2020209E
:104CB0002020202020202020200050726F67726169
:104CC0006D2069646F20353A202020202020004B81
:104CD000696675746F20686F666F6B3A20202020BC
:104CE000202020004B696675746F2069646F3A203C
:104CF00020202020202020200050726F66696C2028
:104D00006C65747265686F7A7661212020002020BE
:104D10004450545020534F4C444552494E47202054
:104D2000202000202020424741535A455256495ADC
:104D30002E4855202020200020205645525A494F09
:104D400020535A414D3A20332E3020200020436F0B
:104D50007079726967687420445054502031342748
:104D6000200055746F6C736F20656C6D656E746593
:104D70007474202020200070726F66696C20626558
:104D8000746F6C746573652E2E2E200020202020F9
:104D90002020202020202020202020202020202013
:104DA00000486962613A204D656D6F7269612C201F
:104DB0006D65672020006E696E637320762E206813
:104DC0006962617320616461742100486962613ABB
:104DD00020456570726F6D2C206E696E63732000C4
:104DE000657274656B656C6865746F20616461746D
:104DF0002120202000486962613A204E696E637369
:104E00002070726F66696C2020006265746F6C742C
:104E100076652120202020202020202020200048EE
:104E20006962613A204D656D6F72696120202020B2
:104E3000202020006D656774656C7421204D6178B9
:104E40002E20313520202020004B6172616B74656B
:104E5000722076616C61737A746F20202000546F29
:104E60007661626269206F7063696F3A205B4553B7
:104E7000435D0050726F6720696E6469746173618D
:104E80003A205B454E545D005B315D20556A2070D1
:104E9000726F662E20686F7A7A616164005B325DA2
:104EA00020416B742E70726F662E20737A65726B60
:104EB0002E005B335D2050726F66696C6F6B206CE7
:104EC000697374616A61005B345D20416B742E709C
:104ED000726F6772616D205B2D3E5D005B46325DD7
:104EE00020534D4420466F727261737A746173204F
:104EF0000020205B3C2D5D20202020202020205BF6
:104F00002D3E5D2020004164617420656C746172E7
:104F10006F6C766121202020202000486962613A70
:104F20002031203C2D3E203235352020202020000D
:104F3000486962613A2031203C2D3E2034353020D2
:104F40002020202000486962613A204E656D207360
:104F50007A616D2120202020200050726F66696CDC
:104F60006E6576207461726F6C7661212020004836
:104F70006962613A4D696E2033206B6172616B74B6
:104F800065722100416461746F6B20656C6D656EA4
:104F900074766521202020200050726F66696C2095
:104FA0006265746F6C746573652020202000486909
:104FB00062613A20457276656E7974656C656E2023
:104FC00020200061646174626C6F636B212020207B
:104FD000202020202020200020205B4553435D20FE
:104FE0002020202020205B2D3E5D202000205B31F2
:104FF0005D202020205B325D202020205B335D205F
:1050000020002035783520202031307831302020A4
:1050100031357831352000202020205B345D202080
:105020002020205B355D2020202020002020203201
:105030003078323020202033307833302020202048
:10504000002020204B6572656D207661726A6F6E5C
:10505000212020202000202053746F703A2020202F
:105060002020205B4553435D202000202020534D0D
:105070004420466F727261737A746F202020200082
:10508000202020202020202044454D4F202020207B
:105090002020202000202046656A6C65737A7465A4
:1050A0007320616C61747420200042474120666F58
:0F50B000727261737A7461733A205B46315D00EE
:1050C0000F9E05D00F9E07AE02D0076C0F8E07C053
:1050D00001F0006A136A126A860E026E036AEFEF2D
:1050E00029F00F9E08D00F9E07AE05D0066C071E54
:1050F000E86A07220F8E07C001F006C000F0136AAD
:10510000126A8E0E026E036AEFEF29F00F6A2BEC23
:105110002AF043EC2AF00FB6D3EF29F00FA205D006
:105120000FBAD3EF29F0DAEF29F00FBAE6EF29F042
:105130000FA005D00FB8D3EF29F0E6EF29F00FB894
:10514000DAEF29F0036A7F0E0824026EE86A032270
:105150000D50025EE86A035A1A0E106E086A126A4F
:10516000136A006A016A0A50055E0B50065A0C5019
:10517000075A000E085A09E70A5005260B50062266
:105180000C500722000E082201D0128AD890053652
:10519000063607360836D8901236133600360136F2
:1051A000102EE1D7075006100510D8A4128AEFEF91
:1051B00029F00F6A2BEC2AF043EC2AF00FB6D3EF5C
:1051C00029F00FA205D00FB8D3EF29F0DAEF29F0BC
:1051D0000FAA05D00FB0D3EF29F0DAEF29F00FB006
:1051E00002D00FA802D0E6EF29F0036A0D50082480
:1051F000026EE86A03227E0E025EE86A035A126AB1
:10520000136A006A016A0C500702F4CF01F0F3CF71
:1052100000F00B500702F3501326F4500022000E4A
:1052200001220C500602F3501326F4500022000E07
:1052300001220A500702F3501226F4501322000EE6
:10524000002201220B500602F3501226F4501322C2
:10525000000E002201220C500502F3501226F450D9
:105260001322000E002201220A500602F4501226D8
:10527000000E1322002201220B500502F4501226C8
:10528000000E132200220122EFEF29F00F6A2BEC0F
:105290002AF00FB650EF29F00FA20ED00FB405D0B0
:1052A0007F0E076EFF0E066E1FD0800E076E066A19
:1052B0001BD0076A066A18D00FB0FBD78F0E0860A4
:1052C000EDD77E0E0864F5D78E0E085C05E0D89009
:1052D00007320632082AF8D70FA406D0066C071E3C
:1052E000E86A072207AEE5D712007EEC29F00FB678
:1052F000000C0FB0000C0FB4000C010C0F6A2BEC6B
:105300002AF043EC2AF00FB612000FAE08D00FA01F
:1053100004D00FA802D00F8012000F9012000D5081
:10532000085C0BE10C50075C08E10B50065C05E1E2
:105330000A50055C02E10F801200D8A002D00F8E47
:1053400010D008500DC008F00D6E07500CC007F0CB
:105350000C6E06500BC006F00B6E05500AC005F02F
:105360000A6E0D50085C10E0FF0F09E00F900FB4BB
:1053700003D00FAE0F8412000FAE0F9412000D2A4F
:10538000D8900C320B320A320A50055E0B50065A86
:105390000C50075A07BEEAD7D890053606360736AE
:1053A000082EF8D7C8D77F0E086EFF0E076E066E60
:1053B000056E12007F0E0FBEFF0E086E02D07F0E2C
:1053C000086E800E076E066A056AF3D70FAE04D02A
:1053D000800E086E076AF7D7086A076AF4D701508B
:1053E000001013101210F8E003BEF0D701BE0CD06D
:1053F00002500310EBE0D890123613360036013617
:105400000206D8A00306F2D70350D4E10228D2E066
:1054100012AE11D07F0E121402E113A00CD0132A89
:10542000E86A0022012207E3D880013200321332F9
:10543000022A0228BFE00250C9E013C005F000C0F4
:1054400006F00134076E0230086E0732089E0FBE68
:10545000088ED9EF29F00736083602E30F840F7E55
:1054600006E10F80086A076A066A056A12000828C2
:1054700003E0D88007321200D890073202E10F8291
:1054800012000F8612000C360D3602E30F8C0F7ED1
:1054900006E10F880D6A0C6A0B6A0A6A12000D2871
:1054A00003E0D8800C321200D8900C32EAE10F8A67
:1054B000120007C013F006C012F006500B02F4CF22
:1054C00005F0F3CF04F007500C02F4CF07F0F3CF50
:1054D00006F00B02F3500526F4500622E86A072274
:1054E00012500C02F3500526F4500622E86A0722F7
:1054F0000CAE7FEF2AF01250065E1350075A13AE1F
:0C550000000C0B50065E0C50075A000C0B
:04550C00FF0EE3CFDC
:10551000EAFFE552FF0EE3CFE9FFE552E66AE66AED
:10552000D9CFE6FFDACFE6FFFC0EE124D96EFF0EFD
:10553000E220DA6EE66AE66AE66A200EEF5C06E0D2
:10554000090EEF5C03E0EF6603D03FD0EE50F5D7D5
:105550002D0EEF5C03E1FF0EE32A03D02B0EEF5C70
:1055600001E1EE502F0EEF6424D03A0EEF6021D00F
:10557000D890F90EE336FA0EE336FD0EDECFE3FFE8
:10558000FE0EDDCFE3FFD890F90EE336FA0EE336D8
:10559000D890F90EE336FA0EE336FD0EE350DE2620
:1055A000FE0EE350DD22300EEE5CDE26000EDD2224
:1055B000D9D7FF0EE3CFE8FFE85207E0F90EE31E6C
:1055C000E32AFA0ED8B4E306E31EE552E552E552AB
:1055D000FF0EE3CFDAFFE552FF0EE3CFD9FFE5522E
:1055E000E1CFE9FFE2CFEAFFED52ED52EECFF3FF5C
:1055F000EFCFF4FF1200D9CFE6FFDACFE6FFFA0EC5
:10560000E3CFD9FFFB0EE3CFDAFFFD0EE35209E74C
:105610002D0EDE6EFC0EE31EE32AFD0ED8B4E3066B
:10562000E31EE652E652E652FD0EE124E76EFF0E5F
:10563000E220E46EE652F70EE3CFE6FFF70EE3CF8B
:10564000E6FF6BEC2BF0F90EE124E96EFF0EE22091
:10565000EA6E5BEC2BF00AE158EC2BF009E15BEC15
:105660002BF008E158EC2BF007E108D066EC2BF0AA
:1056700061EC2BF066EC2BF061EC2BF066EC2BF080
:10568000DE6AF90EE126FF0EE222FF0EE3CFDAFF1B
:10569000E552FF0EE3CFD9FFE552FC0EE124E96E9F
:1056A000FF0EE220EA6EEECFF3FFEFCFF4FF120021
:1056B000EF380F0B1200EF500F0B02E1EE52D884BF
:1056C0001200EF380F0B300FDE6E1200EE500F0B92
:1056D000300FDE6E1200FC0EE3CFE9FFFD0EE3CFCC
:1056E000EAFF100EE66EEE6AEE6AEF6AD890FD0EE3
:1056F000E336FE0EE336ED36ED36EF36FF0EE3060B
:1057000009E08CEC2BF0EE528CEC2BF0EE528CEC92
:105710002BF0EDD7E56E1200030EEF24E8B6EF6E26
:0A572000300EEF24E8BEEF6E000C1F
:06572A0048757465733A36
:1057300020253033692563202020202020200025CB
:10574000692E205B2530336925635D20205B253081
:105750003369735D20202000257300253032692EC7
:10576000205572657300253032692E25730025732C
:1057700025632020202020202020202020202020E1
:1057800020200025692E202530336925632025300F
:1057900033696D70202020202020002573202825CB
:1057A000303369290025732020202020202020204C
:1057B0002020202020202020200020207E5B256328
:0F57C0005D2020202020202020202020202000DD
:1057D0001E0EF66E000EF76E000EF86E0101090047
:1057E000F550A26F0900F550A36F03E1A26701D045
:1057F0003DD00900F5509D6F0900F5509E6F0900DE
:10580000F5509F6F09000900F550E96E0900F55049
:10581000EA6E090009000900F550A06F0900F55073
:10582000A16F09000900F6CFA4F1F7CFA5F1F8CFD9
:10583000A6F19DC1F6FF9EC1F7FF9FC1F8FF0101D0
:10584000A05302E1A15307E00900F550EE6EA00756
:10585000F8E2A107F9D7A4C1F6FFA5C1F7FFA6C1D9
:0E586000F8FF0101A207000EA35BBFD71200E4
:02586E00FE0E2C
:10587000E3CFE9FFFF0EE3CFEAFFE9CFF3FFEACF83
:10588000F4FFFB0EE35003E1FC0EE35009E0FB0ED6
:10589000E30602E2FC0EE306FD0EE350EE6EF1D7E6
:1058A0001200FE0EE3CFE9FFFF0EE3CFEAFFF36A3B
:1058B000F46AEE5203E0F34AF42AFBD71200FF0E1B
:1058C000E3CFF8FFE552FF0EE3CFF7FFE552FF0EFF
:1058D000E3CFF6FFE552E66AE66AE66A0900F552AA
:1058E00009E0FD0EE32A05E1FE0EE32A02E1FF0EC8
:1058F000E32AF4D7FD0EE3CF05F0FE0EE3CF06F06A
:08590000FF0EE3CF07F01200D7
:08590800D9CFE6FFDACFE6FF7C
:10591000E1CFD9FFE2CFDAFFE652E652E652E65295
:10592000D950FB0F146EFF0EDA20156E14C0DEFF87
:10593000DD6EDECFE6FFDDCFE6FFFB0EDBCFE6FF61
:10594000FC0EDBCFE6FFFD0EDBCFE6FFB0C1E6FFCE
:10595000B1C1E6FFF9EC1FF0146E070EE15C02E244
:10596000E16AE552E16E1450020EF3CFDBFF030E45
:10597000F4CFDBFF020EDBCF14F0030EDBCF15F00C
:1059800014C0F3FF15C0F4FF040EE15C02E2E16A0B
:10599000E552E16EE552E5CFDAFFE7CFD9FF12001D
:1059A000D9CFE6FFDACFE6FFE1CFD9FFE2CFDAFFCA
:1059B000FB0EDBCF14F0FC0EDBCF15F00001800EE8
:1059C00015141AE1FB0EDBCFE9FFFC0EDBCFEAFF7B
:1059D000EECFF3FFEDCFF4FFEE2A000EEF22F3CF70
:1059E000E9FFF4CFEAFFFD0EDBCFEFFFEF50156AC2
:1059F000F36E15C0F4FF10D0FB0EDB50FE0806E17D
:105A0000FD0EDBCFE6FF5BEC2EF005D0FD0EDBCF0D
:105A1000E6FFF5EC00F0E552E552E5CFDAFFE7CF1F
:045A2000D9FF120098
:0C5A240004500902F3CF00F0F4CF01F0B1
:105A30000A02F3500126000EF420026E04500B02FD
:105A4000F3500226000EF420036E04500C02F350B3
:105A5000032605500902F3500126F4500222000EDD
:105A6000032205500A02F3500226F4500322055087
:105A70000B02F350032606500902F3500226F4509D
:105A8000032206500A02F350032607500902F3507E
:045A900003261200D7
:0C5A9400D9CFE6FFDACFE6FFE1CFD9FF63
:105AA000E2CFDAFFE652E652FC0EDBCF14F0FD0E39
